:100000000C9418050C9435050C9435050C94452E6C
:100010000C9435050C9435050C9435050C94350578
:100020000C9435050C9435050C940B2B0C94E32B98
:100030000C94F9150C9435050C9435050C94350584
:100040000C9435050C9435050C9435050C94350548
:100050000C9435050C94E72A0C9435050C94350561
:100060000C9435050C9435050C9435050C94350528
:100070000C9435050C9435050C9435050C94350518
:100080000C9435050C9435050C9435050C94350508
:100090000C9435050C9435050C9435050C943505F8
:1000A0000C9435050C9435050C94350500AF00AE65
:1000B00007087F0807003E5B4F5B3E003E6B4F6BBF
:1000C0003E001C3E7C3E1C00183C7E3C18001C5729
:1000D0007D571C001C5E7F5E1C0000183C18000051
:1000E000FFE7C3E7FF00001824180000FFE7DBE785
:1000F000FF0030483A060E00262979292600407F65
:1001000005050700407F05253F005A3CE73C5A00A3
:100110007F3E1C1C0800081C1C3E7F0014227F220E
:1001200014005F5F005F5F0006097F017F000066CB
:1001300089956A0060606060600094A2FFA29400EC
:1001400008047E04080010207E20100008082A1CE5
:100150000800081C2A0808001E10101010000C1EB1
:100160000C1E0C0030383E383000060E3E0E0600E5
:1001700000000000000000005F0000000007000712
:100180000000147F147F1400242A7F2A12002313F6
:10019000086462003649562050000008070300003A
:1001A000001C224100000041221C00002A1C7F1C70
:1001B0002A0008083E080800008070300000080887
:1001C0000808080000006060000020100804020019
:1001D0003E5149453E0000427F4000007249494976
:1001E00046002141494D33001814127F1000274565
:1001F000454539003C4A4949310041211109070070
:10020000364949493600464949291E000000140074
:1002100000000040340000000008142241001414C3
:1002200014141400004122140800020159090600A8
:100230003E415D594E007C1211127C007F494949B4
:1002400036003E41414122007F4141413E007F490D
:10025000494941007F09090901003E4141517300AC
:100260007F0808087F0000417F4100002040413F97
:1002700001007F08142241007F40404040007F027F
:100280001C027F007F0408107F003E4141413E0078
:100290007F09090906003E4151215E007F091929A5
:1002A000460026494949320003017F0103003F40CF
:1002B00040403F001F2040201F003F4038403F008B
:1002C0006314081463000304780403006159494D62
:1002D0004300007F4141410002040810200000411A
:1002E00041417F00040201020400404040404000C0
:1002F0000003070800002054547840007F2844443D
:100300003800384444442800384444287F00385496
:100310005454180000087E09020018A4A49C780018
:100320007F080404780000447D4000002040403DE8
:1003300000007F102844000000417F4000007C0442
:10034000780478007C080404780038444444380079
:10035000FC182424180018242418FC007C08040429
:10036000080048545454240004043F4424003C40F2
:1003700040207C001C2040201C003C4030403C00C1
:100380004428102844004C9090907C004464544CC5
:1003900044000008364100000000770000000041E2
:1003A000360800000201020402003C2623263C001D
:1003B000000000000000404040F0F8F8FF38FFF86F
:1003C000F83FF8F8FF38FFF8F8F040404000000030
:1003D00000000080C0C0C0800000C0C080000000DD
:1003E00080C0C000C0C0000080C0C000000000008D
:1003F000C0C0C0C0C000C0C00000000000000000BD
:1004000000000000000000000000000000000000EC
:1004100000000000000000000000000000000000DC
:10042000000000000000000000000000000000C00C
:10043000F0F8FC3E1E06010000007F4141417F00B4
:100440007F4141417F000080C0E07E5B4F5BFEC08A
:100450000000C000DCD7DEDEDED7DC00C00000001C
:10046000000000000000000000000000000000008C
:10047000000000000000494949FFFFFFFFE0DFBF27
:10048000BF00BFBFDFE0FFFFFFFF49494900000099
:1004900000001F3F6060E0BF1F007F7F071E381E07
:1004A000077F7F007F7F0E1F3B7160000000000010
:1004B0007F7F0C0C0C007E7E007F7E0303007F7E1E
:1004C00003037E7E03037F7E000F3E703C063C707C
:1004D0003E0F00327B49493F7E007F7E0303001EB2
:1004E0003F69696F26000000000000000000000363
:1004F0000F1F3F3C7870600000007F4141417F004A
:100500007F4141417F00307B7F7830202030787FF1
:100510003B0003000F7F0F0F0F7F0F000300000051
:1005200000000000000000000000000000000000CB
:10053000000000000000010101070F0F7F0F7F0F77
:100540000F7E0F0F7F0F7F0F0F07010101000000CB
:100550000000000000000001010000000000000099
:10056000000000000000000000000000000000008B
:10057000000000000000000000000000000000007B
:10058000000000000000000000000000000000006B
:10059000000000000000000000000000000000005B
:1005A000000000000000000000000000000000004B
:1005B000000000000000000000000000000000003B
:1005C000000000000000000000000000000000002B
:1005D000000000000000000000000000000000001B
:1005E000000000000000000000000000000000000B
:1005F00005010902A10185020901A10005091901EE
:1006000029081500250195087501810205010930A9
:1006100009311581257F95027508810609381581F4
:10062000257F950175088106050C0A38021581257C
:100630007F950175088106C0C005010980A101856B
:100640000319012AB700150126B70095017510811D
:1006500000C0050C0901A101850419012AA0021599
:100660000126A002950175108100C005010906A1AF
:10067000018506050719E029E7150025019508758C
:100680000181020507190029EF1500250195F07574
:100690000181020508190129059505750191029549
:1006A0000175039101C005010906A101050719E0C3
:1006B00029E7150025019508750181029501750846
:1006C00081010507190029FF150026FF0095067511
:1006D00008810005081901290515002501950575F2
:1006E000019102950175039101C009023B000201CD
:1006F00000A0FA0904000001030101000921110111
:1007000000012244000705810308000109040100DB
:10071000010300000009211101000122B6000705B4
:100720008203200001120100020000000832FC8751
:10073000020100010200010C0353006F0066006C0F
:1007400000650000001A034A006F00730065006630
:10075000004100640061006D00630069006B0000EF
:10076000000403090443617073000A0A00466E0A1C
:10077000004E756D0A00426173650A000A0A004D59
:100780006F640A00517765727479000A0A000001EB
:100790000101010101010101020202020202020241
:1007A0000203030303030303030404040404040413
:1007B00005050505050606060606070707070708D7
:1007C000080808090909090A0A0A0B0B0B0C0C0C8A
:1007D0000D0D0D0E0E0E0F0F0F1010111111121224
:1007E00013131414151516161717181819191A1AA1
:1007F0001B1B1C1D1D1E1E1F202021222223242402
:10080000252626272829292A2B2C2D2D2E2F30313D
:100810003232333435363738393A3B3C3D3E3F404F
:100820004142434445464748494A4C4D4E4F50513A
:100830005354555658595A5B5D5E5F6162646566F4
:1008400068696B6C6D6F7072737577787A7B7D7E7B
:100850008082838587888A8C8E8F91939596989ACB
:100860009C9EA0A2A3A5A7A9ABADAFB1B3B5B7BAE3
:10087000BCBEC0C2C4C6C9CBCDCFD1D4D6D8DBDDB7
:10088000DFE2E4E7E9EBEEF0F3F5F8FAFDFF00DA7A
:100890000281FFD9F1DB20A4A62EAF00A0C0D300B7
:1008A00000A1C8D30000AED580A81F408D14200041
:1008B00029001E001F002000210022002B00140030
:1008C0001A00080015001700E300040016000700D6
:1008D00009000A00E1001D001B00060019000500C8
:1008E000E000E200215222522C00A8002A0027003A
:1008F00026002500240023002F00130012000C0006
:1009000018001C00340033000F000E000D000B0017
:10091000E50038003700360010001100E400E60062
:1009200021522252280000002900A800AA00A90094
:10093000000000002B0000004A0052004D004B0058
:10094000E3000000500051004F004E00E10039006C
:10095000D100D300D20066000100010001000100B7
:10096000010001004C002E00610060005F00540097
:10097000300026025E005D005C005500E7002702A3
:100980005B005A0059005600E50031008500630005
:100990006200570001000100010001000100010098
:1009A00035003A003B003C003D003E002B00490072
:1009B000D100CD00D200D900E3004600CF00CE0028
:1009C000D000DA00E1000000DB00D300DC00000012
:1009D0000100010001000100010001002D004300A1
:1009E0004200410040003F00300044004D005200F2
:1009F0004A004B00E70045004F00510050004E00F8
:100A0000E5003100D200D300D10000000100010058
:100A10000100010001000100DC00DB00D900DA0068
:100A2000A900AA004B004E00237824782578267868
:100A300011241FBECFEFDAE0DEBFCDBF12E0A0E091
:100A4000B1E0ECE2F6E602C005900D92A63EB107D9
:100A5000D9F727E0A6EEB2E001C01D92A83AB2078E
:100A6000E1F70E9495260C94AE320C9400009C0194
:100A7000892F99270097E9F09C0188E0A90174E08B
:100A8000569547957A95E1F74115510511F08C5F20
:100A90009A01A901569547955695479541155105D7
:100AA00011F08E5F9A0136952795232B09F08F5F01
:100AB000089580E0E3CF9093600780935F070895E7
:100AC0009093620780936107089521E030E002C0AF
:100AD000220F331F8A95E2F7809161079091620798
:100AE000822B932B0E946005089521E030E002C024
:100AF000220F331F8A95E2F7209530958091610788
:100B000090916207822393230E94600508959B01C0
:100B1000677091E001C0990F6A95EAF763E0369536
:100B200027956A95E1F7220F331F220F331FFA0131
:100B3000E20FF31F40E050E0682F70E08191DF0189
:100B400011979B01042E02C0369527950A94E2F76F
:100B5000217021952827292328272C934F5F5F4F49
:100B60004430510559F708959C01982F977083E000
:100B7000369527958A95E1F7220F331F220F331FF1
:100B8000FB01E20FF31F40E050E080E0219130E0F4
:100B9000092E02C0369527950A94E2F72170332773
:100BA000042E01C0220F0A94EAF7822B4F5F5F4F99
:100BB0004430510559F70895282F862F9A3070F444
:100BC000263058F4622F70E026E0929F600D711D70
:100BD000112442E257E00E94870508959C5F9230FD
:100BE000E0F7622F70E04EE157E0F5CF292F9A3001
:100BF00068F4863090F490E062E277E036E0239F7C
:100C0000800D911D11240E94B40508952C5F22309F
:100C100020F46EE177E090E0F6CF80E008958091D7
:100C2000680790916707981301C008958F5F8770D8
:100C3000FACF909163078095892380936307282FCB
:100C4000277021110DC0891759F09091650792FF07
:100C500007C08695869586950E9475051092630754
:100C6000089580915C0790916607892B50915D07EC
:100C70005523C1F0909171019923A9F090916407D7
:100C800097FF11C09DE122EF32E040E0F901608161
:100C90002F5F3F4F61114F5F9150C0F7411110928C
:100CA0005D07852B089595E02AEE32E0EECF982F70
:100CB000909580915C07892380935C070895E82FC5
:100CC000872F7A30D0F4663008F03BC0E33008F06C
:100CD0003BC070E026E0829F600D711D1124CB01A6
:100CE0002CE3E29F800D911D1124FC01EE0FFF1FEC
:100CF000E055F74F8591949108957D3F81F46230DE
:100D000000F5E33008F5F0E0EE0FFF1FE60FF11DF0
:100D1000EE0FFF1FEE0FFF1FE85EF54FEBCF7C3F9E
:100D200081F4623070F4E33078F4F0E0EE0FFF1FEE
:100D3000E60FF11DEE0FFF1FEE0FFF1FE65EF54FF2
:100D4000D9CF80E090E0089581E0FCCF803E91050E
:100D5000D1F1C8F48133910509F47FC048F4893298
:100D6000910509F46FC08A32910509F47DC0089598
:100D700089339105E1F082389105C9F085339105F9
:100D800009F45BC00895843E9105D1F148F4823E98
:100D9000910531F1833E910541F181EE90E0089596
:100DA000863E9105C1F1873E9105E1F108952091BC
:100DB00064072370211165C02091650723FF14C0CB
:100DC00089E290E008952091640720FD43C03091AE
:100DD000650730FF09C024FF4EC080E090E0089511
:100DE0002091640722FDF7CF08952091640722FD2A
:100DF00045C03091650730FD44C024FFF5CFEDCFED
:100E00002091650721FFF0CF8091640784FDE5CF35
:100E100087EE90E008952091640723FFE5CF24FD3D
:100E2000DCCFF6CF2091640723FD2EC030916507FB
:100E300031FFE3CF84EE90E008952091640725FF11
:100E4000D3CFBECF2091640725FD21C02091650737
:100E500023FFCACF89E390E008952091640726FF1D
:100E6000C3CF8AE290E008952091640726FFBCCFAB
:100E700081E390E0089583EE90E0089582EE90E0A3
:100E8000089580EE90E0089586EE90E0089585E361
:100E900090E0AACF9091640792FF10C041E0282F04
:100EA0002471243009F040E031E0282F28712830E7
:100EB00009F030E0431711F02CE0822793FF10C0B7
:100EC00041E0282F2471243109F040E031E0282F3F
:100ED0002871283109F030E0431711F02CE0822707
:100EE0003091650730FF10C051E0282F217121306B
:100EF00009F050E041E0282F2871283009F040E047
:100F0000541711F029E0822731FF10C041E0282F4B
:100F10002171213109F040E031E0282F287128317A
:100F200009F030E0431711F029E0822794FD877E15
:100F300008951F93CF93DF930E94A606EC018115BD
:100F400022E5920708F053C0811540E5940708F0A8
:100F5000DDC0803E9105F8F48D3C910508F0AEC0EF
:100F6000883A910580F4853A910508F099C081305E
:100F7000910521F00497813A910550F4CE01DF915B
:100F8000CF911F910895885A91094B9708F48BC00F
:100F9000C0E0D0E0F3CF811550E49507F8F4C11517
:100FA00080E2D80708F0CBC0C83ED10538F3CE01A7
:100FB0009A9581159F4160F78D2F0E944A07182F3F
:100FC000CE0199270E94A606212F30E0322F22273A
:100FD000E901CC27DF71C82BD92BD0CF99270E94EC
:100FE000A606CC27DF70C82BD92BD06AC7CF803894
:100FF00042E59407C8F5803652E5950708F067C0CA
:10100000C03482E5D807B0F08C2F8695869587701E
:1010100020E2829FC0011124C37021E030E0A901C9
:1010200002C0440F551FCA95E2F7EA01C82BD92B1D
:10103000DC68A4CFC03252E5D50708F041C08C2F40
:101040008695869520E2829FC0011124C37021E01D
:1010500030E0A90102C0440F551FCA95E2F7EA012A
:10106000C82BD92BDD688ACF803C52E5950760F408
:101070008F71C03AD24508F03FC090E0982F882782
:10108000EC01C46FD06A7ACF805C9245809708F0FB
:101090007FCFDC2FCC27CC27DF71C06FD06A6ECF1B
:1010A000A497D0646BCFC85AD0E0CC0FDD1FC055D9
:1010B000DD4F0990D881C02DD46460CFD0655ECF5C
:1010C000CF71D0E0DC2FCC27C16FD06A57CF869587
:1010D0008695877020E2829FC0011124C37021E0B1
:1010E00030E0A90102C0440F551FCA95E2F7EA019A
:1010F000C82BD92BDA6842CF0E944A07C82FD0E00C
:10110000DC2FCC27CC27DF71D06238CF8F710E94C3
:101110004A0765E0D695C7956A95E1F7CF70D0E0AC
:10112000DC2FCC27282F30E084FF05C054E0220FAD
:10113000331F5A95E1F7C22BD32BD0691FCF8D2FC8
:101140008F710E944A07182FCE0199270E94A60688
:10115000212F30E0322F222722273F71282B392BD5
:10116000E901D2CFA0E0B0E0E8EBF8E00C94D92F91
:101170008C01E0906107F090620780915F07909189
:101180006007E82AF92ACFE0D0E0CC24C394D12C20
:10119000C6010C2E02C0880F991F0A94E2F78E2117
:1011A0009F21892B49F4219798F7B12C8B2DCDB72E
:1011B000DEB7E9E00C94F52FBC2EB8018C2F0E940D
:1011C0005F060E949907019771F3F0CF0F931F9369
:1011D000CF93FC01858100811181882391F06623E2
:1011E00081F0C8010E94B208C82F682FC8010E9470
:1011F000DC05B8018C2F0E945F06CF911F910F91E3
:101200000895C8010E94F605C82FF3CFCF93DF934E
:10121000D82FC92F0E94B2086D2F7C2F0E945F0625
:101220000E949907DF91CF910895FC018481882362
:10123000A1F0808191810E940609282F92959F70CC
:10124000963091F060F4925F9F70923030F481E0BC
:10125000203F79F030F4283E30F080E004C09A5FFF
:10126000F3CF243FD1F7089581E0283E18F0213FC5
:10127000F9CF0895089580E00895F894E82FE29555
:10128000EF70F0E041A18F7021E030E0B90102C0C1
:10129000660F771F8A95E2F7CB01962F90959423DE
:1012A00091A392A1892B82A37894089581E08093E1
:1012B000AF060895FF920F931F93CF93DF93182FDC
:1012C000062FF42EC0E0D0E02F2D402F612FCE014D
:1012D0000E94C90A2196C834D105B1F7CDB7DEB74F
:1012E000E5E00C94F92F9FE0899F802D1124980F41
:1012F000993408F098E42091ED06211104C084325D
:1013000028F484E20895953208F094E20895A0E06C
:10131000B0E0EDE8F9E00C94D72FC82F80910B01D5
:1013200091E08C130CC020915407237030E0409161
:101330000A0150E091E02417350709F490E091701C
:10134000909309018091590790910801981739F0FD
:101350008093080140E060E080E00E945A09CC23BD
:1013600041F0A0900701C130E1F0A394A0920701E1
:101370003EC080910901882309F4CCC040E060E0C0
:1013800080E00E945A09809107018F5F80930701D6
:1013900082E0809372018091090181112BC083E06A
:1013A00027C08A2D0E947309982E092F2091560775
:1013B000E0915707F0E0E257F84F211120C0E49187
:1013C000CE2F1E2FDE2FE92CF12CE01608F48CC056
:1013D0008091ED06882309F49AC081E0043208F078
:1013E00080E091E09A0D90930701811103C082E0A3
:1013F00080937201CDB7DEB7EBE00C94F32FC09071
:101400005507D12C30E0B490CB2D86E08C9D700137
:101410008D9DF00C1124EFEFF0E0C701BF010E9499
:10142000BC2FCC0CDD1C45E5469FC001479F900DAD
:101430001124C81AD90A8C2D880F8C0DDF01A21B2C
:10144000B30BBA9EA001BB9E500D1124152F829F95
:10145000D001839FB00D1124AB2FBB276F01CA1A97
:10146000DB0AD601BA9E6001BB9ED00C1124DD2D93
:10147000DF01A81BB109CD01829FD001839FB00D70
:10148000929FB00D1124AB2FBB27CF018A1B9B0B62
:10149000DC01BA9EC001BB9E900D11246330710522
:1014A000C9F0ACEFEA16A3E0FA0650F4613071051A
:1014B00009F489CF6230710589F0DC2FC92F83CF01
:1014C0006430710571F066307105B9F3C52F1D2DBB
:1014D000DB2D79CFCD2DD52F1B2D75CFD52F192FE6
:1014E00072CFD92FC52FF8CFF701E55BFD4F808173
:1014F000909108018923882331F0212F4C2F6D2FE3
:10150000C7010E94C90ABFEFEB1AFB0A5ECF81E058
:10151000073465CF809107018F5F809307013FCF2C
:10152000CF93C82F882391F08091A60681110EC019
:101530000E94870910920B01809154078370809359
:101540000A010E943A0F83E080937201C093A606BD
:10155000CF910895E4E5F7E0248130E1230F08F40A
:101560002FEF248380915307816080935307089560
:10157000E4E5F7E0248130E1231B08F420E0248334
:1015800080915307816080935307089510923E0421
:101590000895FC018091ED06811123C0E432F1052C
:1015A0001CF1B497CF01880F991FDC01AE0FBF1F4C
:1015B000AA59BC4F11963C911197361307C03C9124
:1015C000341304C012963C91321771F031E030931D
:1015D0003E04E80FF91FEA59FC4F618340832283E0
:1015E00003C0E432F105F4F20895FA01882311F002
:1015F00009950895FB01FCCF90918B06292F30E0CF
:10160000E0918C06F0E0A9014F5F5F4F43705527D2
:10161000E417F50789F02757394F60FB87F9F9017F
:1016200084839F5F937090938B06809189068F5F70
:101630008093890681E0089580E0089590E0662314
:10164000E9F0845F9E4FFC0180818F3FB1F0E82F6D
:10165000E295EF70F0E041A18F7021E030E0B90138
:1016600002C0660F771F8A95E2F7CB01962F9095FF
:10167000942391A392A1892B82A30895835F9E4F07
:10168000E2CF90E06623A9F0845F9E4FFC012081A9
:101690002F3F91F0E22FE295EF70E05EF0E0808165
:1016A00090E02F7002C0959587952A95E2F781709A
:1016B0000895835F9E4FEACF80E00895FC01680F94
:1016C000791F8FEF91E3E617F70709F40895219149
:1016D000822728E030E087FF08C0880F8927215043
:1016E000310921153105B9F7EECF880FF8CF282F32
:1016F00035EB2303C001112497FF04C080589109E2
:10170000892F089580589F4FFBCF8091440780FD1B
:1017100014C081FD14C082FD16C080914307882348
:1017200081F08E3180F420E5829FC00111246EE1AA
:1017300070E00E941330862F089584E1089588E2B6
:10174000089588E0089580E508958091440780FD1C
:1017500017C081FD17C082FD19C080914207882300
:1017600099F0883298F428E0829FC001112468E241
:1017700070E00E9413306115710551F0862F0895B5
:1017800062E0FCCF64E0FACF61E0F8CF68E0F6CF2A
:1017900081E008958091EC06882359F0E0911407C8
:1017A000F0911507309729F00190F081E02D09950F
:1017B000089580E00895DC01E0911407F091150789
:1017C000309739F082E08C930680F781E02DCD01CF
:1017D00009950895A3E0B0E0E0EFFBE00C94E02F62
:1017E0009C01809142039091430382179307A1F0DB
:1017F0003093430320934203E0911407F0911507BF
:10180000309751F083E089833B832A830084F185FC
:10181000E02DCE01019609952396E2E00C94FC2F71
:10182000A3E0B0E0E6E1FCE00C94E02F9C018091A5
:1018300040039091410382179307A1F03093410335
:1018400020934003E0911407F0911507309751F071
:1018500084E089833B832A830084F185E02DCE01D7
:10186000019609952396E2E00C94FC2F909171016A
:101870009923C1F09091640797FF14C0E82FE69573
:10188000E695E695803FF8F4F0E0E051FD4F877073
:1018900021E030E001C0220F8A95EAF78281822B95
:1018A00082830895AAEEB2E0EFEF90E02D918217C7
:1018B00051F0EF3F19F4211101C0E92F9F5F9630DD
:1018C000A9F7EF3F09F408950E2E000CFF0BE85125
:1018D000FD4FE6CF909171019923E1F0909164075B
:1018E00097FF18C0E82FE695E695E695803FF0F45F
:1018F000F0E0E051FD4F877021E030E0A90102C027
:10190000440F551F8A95E2F7CA0180959281892379
:1019100082830895EAEEF2E09191891303C0DF011A
:1019200011971C9252E0E03FF507B1F70895DC01F2
:10193000FB0111969C9111978181981322C01296F8
:101940008C911297882319F0928189131AC01396EB
:101950008C911397882319F09381891312C01596DF
:101960008C911597882319F0958189130AC01496D4
:101970009C91992321F081E02481291303C080E008
:1019800001C081E081700895A4E0B0E0EAECFCE0E1
:101990000C94E02F8FB7F89420913C0330913D03D5
:1019A00040913E0350913F0329833A834B835C83EC
:1019B0008FBF69817A818B819C812496E2E00C94AF
:1019C000FC2FA4E0B0E0E7EEFCE00C94E02F809167
:1019D000EC06882371F00E94C40C69837A838B83A0
:1019E0009C8369817A818B819C812496E2E00C94AE
:1019F000FC2F0E94C40C69837A838B839C83809123
:101A0000EE069091EF06A091F006B091F1062981C3
:101A10003A814B815C81280F391F4A1F5B1F298344
:101A20003A834B835C83DDCFA4E0B0E0EAE1FDE0E4
:101A30000C94DE2F462F572FBC012FB7F8948091BE
:101A40003C0390913D03A0913E03B0913F032FBF13
:101A50008C019D01041B150B260B370BC901B80126
:101A60002496E4E00C94FA2F87E797E79093010817
:101A70008093000888E19AE00FB6F894A8958093C7
:101A800060000FBE90936000FFCF80913B030895EC
:101A9000FC019B01809131039091320386179707D7
:101AA00040F0672B29F48091E8008E778093E8005E
:101AB000C90140E0009741F4411106C08091E8005F
:101AC00082FF2FC080E00895209173062223A9F1A0
:101AD0002530A9F12091E80023FD2DC02091E800D8
:101AE00022FDECCF2091E80020FFE4CF3091F300FD
:101AF0002091F200009719F02830310558F041E0AC
:101B00002830310509F040E02091E8002E7720933D
:101B1000E800D0CF41914093F10001972F5F3F4FF4
:101B2000E9CF80917306882341F0853041F08091A0
:101B3000E80083FFC3CF81E0089582E0089583E049
:101B4000089580912B0387FF13C08091E80082FFE6
:101B500006C08091E8008B778093E80004C08091F4
:101B600073068111F2CF0895809173068823D9F30B
:101B70008091E80080FFF8CF8091E8008E77ECCF6D
:101B80002091E4003091E50095E6A9018091EC00F8
:101B90008170882331F08091E80080FF06C080E0EA
:101BA00008952091E80022FD1BC0809173068823D0
:101BB00091F0853091F08091EB0085FD10C020916F
:101BC000E4003091E5004217530701F39150911161
:101BD000DCCF84E0089582E0089583E0089581E0F9
:101BE0000895E8EDF0E080818E7F80831092E2001E
:101BF0001092DA001092E100A0EEB0E08C918160CA
:101C00008C9380818F77808319BCA7EDB0E08C9195
:101C10008E7F8C9380818F7E808310922A0308951B
:101C2000909154079370992359F0809355076093CE
:101C3000560740935707809153078160809353075D
:101C40000895E4E5F7E0818190E0438162810896A0
:101C50000E94100E0895E4E5F7E0818143816281DE
:101C60008850990B0E94100E0895E4E5F7E0628118
:101C700020E1620F08F46FEF8181438190E00E94C0
:101C8000100E0895E4E5F7E0628120E1621B08F49C
:101C900060E08181438190E00E94100E0895E4E5A8
:101CA000F7E0438120E1420F08F44FEF8181628128
:101CB00090E00E94100E0895E4E5F7E0438120E1F2
:101CC000421B08F440E08181628190E00E94100E86
:101CD0000895809154078370882351F08460809325
:101CE00054071092720180915307816080935307CB
:101CF000089581E00E94690E089590915407969589
:101D000096958FEF890F913009F481E00E94690E5A
:101D10000895982FE42FE2709093E900891308C08A
:101D2000762F242F50E0E11111C091E0980FF4CFED
:101D30007091EC002091ED005091F00021FD06C063
:101D40009F5F973049F78093E90008953091EB0049
:101D50003E7F3093EB003091ED003D7F3093ED00FE
:101D60003091EB0031603093EB007093EC002093E6
:101D7000ED005093F0002091EE0027FDE1CF089593
:101D8000A0E0B0E0E6ECFEE00C94DA2FC8EDD0E085
:101D900088818F7E8883E7EDF0E080818160808399
:101DA00084E082BF81E080932A0388818E7F8883CC
:101DB00002EE10E0F80110821092DA0081EEC82ED7
:101DC000D12CF601108288818F7788838881806882
:101DD000888388818F7D888319BC10927306109246
:101DE0002903109272061092280390EEE92EF12C2E
:101DF000F70180818B7F808388818160888342E0C6
:101E000060E080E00E94890EF60180818E7F8083F1
:101E1000F801808181608083808188608083F70100
:101E200080818E7F8083888180618883CDB7DEB793
:101E3000E8E00C94F62FE09168079091670727E09F
:101E4000E91302C080E00895AE2FB0E02E9FF001AC
:101E50001124E759F84F3181361306C03081381309
:101E600003C03581341304C0FD013196E770E8CF1B
:101E700081E0089580913E04882341F1539A3BB15B
:101E8000377F2BB128604FB7F89486E693E0FC01CA
:101E90000196508168E02BB9000000C057FF3BB9A4
:101EA000550F000000C000C000C03BB900C06A95DB
:101EB00091F754E08E33950751F74FBF8FE594E0CB
:101EC0000197F1F700C0000010923E0408950F93AF
:101ED0001F93CF93DF93EB018A01909173069430A7
:101EE00079F58093E9008FEF9091E80095FD07C0A8
:101EF00095ED9A95F1F7000081508111F5CF809111
:101F0000E80085FF1DC00E94C00D811114C08091A2
:101F1000E80085FD06C08091E8008E778093E80098
:101F2000F2CF88818093F10001501109011511054C
:101F300011F02196ECCF8091E8008E778093E80035
:101F4000DF91CF911F910F910895CF93DF93D82FF9
:101F5000C92F48E050E0682F792F81E00E94670F79
:101F600088E0ED2FFC2FA3E3B3E001900D928A955A
:101F7000E1F7DF91CF910895BC0140E250E082E0AB
:101F80000E94670F0895BC0146E050E082E00E9485
:101F9000670F0895BC0143E050E082E00E94670FA4
:101FA0000895A0E0B0E0E7EDFFE00C94D82FF82E04
:101FB000E92EB62EA72E8A0180912603CC24C39445
:101FC000D12C8A3018F48AE0C82ED12CC1E0D0E0A0
:101FD0006B2D7A2D8F2D9E2DF8010995811116C03C
:101FE0002196CC16DD0694F0CC9FC001CD9F900DBC
:101FF000900D112420E030E045E34A95F1F7000010
:102000002F5F3F4F28173907B9F7E2CFCDB7DEB7BB
:10201000EAE00C94F42F9091650792FB222720F9B7
:10202000281779F080FB92F9909365076091640717
:102030007091650784E090E00E94983082E00E94F1
:1020400019060895CF9362E574E08BE497E00E944F
:10205000970CC82F882321F08BE497E00E94DB0BBC
:1020600090914C0786E0EBE4F7E0DF01282F1D920A
:102070002A95E9F790934C07A2E5B4E001900D9200
:102080008A95E1F781E0C11103C0911101C080E0A0
:102090008170CF910895A2E2B0E0E1E5F0E10C9407
:1020A000E02F8091EC06811105C080E0A296E2E06D
:1020B0000C94FC2F80914E0490914F04A0915004F9
:1020C000B0915104BC01CD010E94140D6F8F78A313
:1020D00089A39AA3672B682B692B39F30E94C40C40
:1020E00060934E0470934F04809350049093510476
:1020F0008091ED06811185C040914B0750914C07AE
:1021000060914D0770914E0780914F079091500755
:102110000E944B1B20934B0730934C0740934D0775
:1021200050934E0760934F077093500786E0EBE49F
:10213000F7E0DE01179601900D928A95E1F786E0AF
:10214000FE013796DE011D9601900D928A95E1F70A
:1021500086E0FE013D96DE01119601900D928A9572
:10216000E1F786E0FE013196ABE4B7E001900D9215
:102170008A95E1F786E0EBE4F7E0DE0159960190FD
:102180000D928A95E1F786E0FE017996DE011796B9
:1021900001900D928A95E1F786E0FE013796DE0107
:1021A000119601900D928A95E1F786E0FE01319635
:1021B000DE01539601900D928A95E1F786E0FE01CB
:1021C0007396DE01179601900D928A95E1F786E0ED
:1021D000FE013796ABE4B7E001900D928A95E1F7E6
:1021E00080914C0790914607892B80934C070E9461
:1021F0002210811110C080914D04817010924D0405
:1022000055CF86E0ECE9F6E0ABE4B7E001900D9243
:102210008A95E1F78BCF81E090E0EFCF809171015B
:10222000882359F18091640787FF27C00E943106F7
:102230008093F10240E250E064EF76E080EF92E0BC
:102240000E943630892BC1F080E2E0EFF2E0A4EF8B
:10225000B6E001900D928A95E1F7E0911407F091B4
:102260001507309749F086E08093F0020480F581ED
:10227000E02D80EF92E0099508950E943106809349
:10228000E80248E050E066E177E088EE92E00E94E4
:102290003630892B89F388E0E8EEF2E0A6E1B7E07A
:1022A00001900D928A95E1F7E0911407F0911507DE
:1022B000309711F30280F381E02D88EE92E0DBCFBE
:1022C000882339F090915C07892B80935C070E94EA
:1022D0000E110895882321F00E9457060E940E11C6
:1022E0000895A0E0B0E0E7E7F1E10C94DA2FFA01FD
:1022F00069017801C82F880FDD0B3097B1F0DE013E
:1023000093E0AA0FBB1F9A95E1F7A75EBE4F119607
:102310008D919C9112978E53994F4C9150E0E417F8
:10232000F50708F4AF010E944330CE010E94EB2E66
:10233000182F8823D1F0E114F104B9F083E0CC0F19
:10234000DD1F8A95E1F7FE01E75EFE4F438150E015
:10235000E416F50608F4A701C75EDE4F6C817D81A7
:102360006E53794FC6010E944330812FCDB7DEB73F
:10237000E8E00C94F62FA5E0B0E0E1ECF1E10C947C
:10238000D42F762E6A014901580101E010E09E0128
:102390002F5F3F4F40E050E060E070E00E9471111D
:1023A000182F8823B9F1D6018D919D910D90BC9184
:1023B000A02DBC01CD010E94140D69806436710509
:1023C0008105910530F4B701C5010E945E0B8615A9
:1023D00009F18701940140E050E060E070E0872D52
:1023E0000E947111182FB701C5010E945E0B86155E
:1023F00031F010E0812F2596EEE00C94F02F117053
:102400001123C1F30E94C40CF6016083718382839F
:102410009383F0CFA701B501C4010E944330EACFF6
:10242000A5E0B0E0E6E1F2E10C94DA2F6B0185E083
:10243000E82EF12C03EC16E09E012F5F3F4F4EEB90
:1024400056E061E080E00E94BB11882349F095E0EE
:10245000FE013196A9EBB6E001900D929A95E1F755
:1024600095E0E9EBF6E0D60101900D929A95E1F73F
:102470002596E8E00C94F62FAAE0B0E0E2E4F2E161
:102480000C94D92FB82E6D837E837A01B90168012F
:10249000A801C7010E9436308C01AD81BE818D91AB
:1024A0009D910D90BC91A02DBC01CD010E94140DF9
:1024B000643671058105910518F40115110599F02F
:1024C00000E010E020E030E0A601B7018B2D0E9473
:1024D0007111882349F00E94C40CED81FE81608354
:1024E00071838283938381E02A96E9E00C94F52F2F
:1024F0000F931F93AC0105E010E028EC36E065EB8C
:1025000076E082E00E943C121F910F910895A9E0AD
:10251000B0E0EDE8F2E10C94DE2F88E0E4E5F7E0CE
:10252000DE01119601900D928A95E1F78091A60641
:10253000898709E010E02AED36E0AE014F5F5F4F7A
:1025400067EA76E087E00E943C122996E4E00C946A
:10255000FA2FA8E0B0E0EFEAF2E10C94DC2F88E07B
:10256000E82EF12C0EEC16E09E012F5F3F4F41EB61
:1025700056E064E083E00E94BB11182F8823C1F16C
:102580009091CD068091B006981791F1F12C909121
:10259000D1068091D006891729F1E92FF0E0EA539E
:1025A000F94F848587FB662760F99F5F937090934E
:1025B000D1069091CF069F5F9093CF068F770E94B0
:1025C000FC0AF82E8111E3CF00E010E020E030E0BB
:1025D00040E050E060E070E085E00E9471111F2D46
:1025E000182302C0F110F0CF8091CD068093B00681
:1025F000812F2896E6E00C94F82FA8E0B0E0E3E005
:10260000F3E10C94DE2F8091AB069091AC06A09183
:10261000AD06B091AE06BC01CD010E94140D11E0D3
:10262000643671058105910520F10E94E10CDC0101
:10263000CB010296A11DB11D89839A83AB83BC8314
:1026400000E010E020E030E044E050E0BE016F5FC9
:102650007F4F86E00E947111182F882351F00E944D
:10266000C40C6093AB067093AC068093AD06909358
:10267000AE06812F2896E4E00C94FA2FACE0B0E08F
:10268000E4E4F3E10C94DC2F8091ED06811105C0A8
:1026900081E02C96E6E00C94F82F86E0E82EF12CF1
:1026A00004EE16E09E01295F3F4F42EA56E069E0E2
:1026B00088E00E94BB11882361F386E0FE01379613
:1026C000DE01119601900D928A95E1F786E0FE01F8
:1026D0003196ACE9B6E001900D928A95E1F7D8CF3A
:1026E000A8E0B0E0E6E7F3E10C94E02F0E94E10CF3
:1026F000282F60933F04709340048093410490938B
:1027000042048091A60681111EC030915407832F88
:102710008370882319F0832F8695869530917201F6
:102720003230E1F090F4311116C01092070160933D
:10273000430470934404209345049093460481E03D
:102740008093720104C080E0E9CF333091F0289685
:10275000E2E00C94FC2F0E948709F9CF80930B01D3
:1027600080915407837080930A010E943A0F83E09E
:10277000E7CF80915307882351F048E050E068E1AB
:1027800070E084E597E00E946A30109253078091D0
:10279000430490914404A0914504B0914604898378
:1027A0009A83AB83BC838091EC06882389F069818E
:1027B0007A818B819C810E94140D462F572FBC017A
:1027C000403151056105710510F210927201BFCFC1
:1027D0000E94E10CAB01BC0189819A81AB81BC8173
:1027E000481B590B6A0B7B0BEBCF84988C9A85980E
:1027F0008D9A84EF0E94B72F90934A0480934904E6
:1028000085EF0E94B72F9093480480934704089562
:10281000A6E0B0E0EEE0F4E10C94DB2F6D837E8364
:102820000E94B72F9C014D815E814817590709F41A
:10283000D2C08417950708F0B5C0481B590B9A0100
:102840001FEFA901330F660B770B49835A836B8304
:102850007C83CB01BA010E94B531D62EE72EF82E2B
:10286000092F6D817E81072E000C880B990B6983DF
:102870007A838B839C830E94B5319B01AC01D98202
:10288000EA82FB820C8369817A818B819C810E9420
:102890000B3120E030E048EC52E469837A838B838B
:1028A0009C8369817A818B819C810E9441326983FA
:1028B0007A838B839C8369817A818B819C810E943E
:1028C0007D31462F572F9A0137FD85C0812F012E6C
:1028D000000C990B253631050CF471C024E6289FB5
:1028E000D001299FB00D1124BE83AD834D815E813F
:1028F000052E000C660B770B49835A836B837C8310
:10290000CB01BA010E94B53120E030E048EC52E43E
:1029100069837A838B839C8369817A818B819C8193
:102920000E940B319B01AC0169837A838B839C836A
:1029300069817A818B819C810E949F307B018C010F
:102940008D819E8197FF03C091958195910964E1E6
:1029500070E00E941330CB01770FAA0BBB0B898369
:102960009A83AB83BC83BC01CD010E94B5319B012E
:10297000AC01E982FA820B831C8369817A818B81A5
:102980009C810E94413269837A838B839C83698115
:102990007A818B819C810E947D31862F2696E7E08B
:1029A0000C94F72F6D817E81261B370B8FEF93E000
:1029B000DC01A61BB70BBE83AD8311E042CF849F21
:1029C0009001859F300D949F300D11243E832D83FF
:1029D000232B09F08BCF80E0E1CFAB0124E630E080
:1029E000BC0188E70E94022D9C0181E0232B09F0A5
:1029F00080E0089580916A06882369F080916906D5
:102A0000882349F062E070E08EEA90E00E94ED14C5
:102A10008111109269060895A4E0B0E0E2E1F5E1C9
:102A20000C94E02F80916A068823F9F00E94C40C70
:102A3000DC01CB01805A9541AF4FBF4F80936B06AD
:102A400090936C06A0936D06B0936E068091690614
:102A500081110BC062E070E08CEA90E00E94ED14FE
:102A6000882319F081E0809369062496E2E00C94B3
:102A7000FC2FCF93DF93682F81E06A3019F06D301F
:102A800031F480E00E94B915DF91CF9108958091D3
:102A900066049091670426E0FC01A0E2B3E0019097
:102AA0000D922A95E1F7603E08F458C026E0FC013B
:102AB00011922A95E9F7C0916604D091670446E027
:102AC00050E0BE0180E293E00E9436309E0128561D
:102AD0003440892B41F1C90145E0969587954A9587
:102AE000E1F741E050E0BA0102C0660F771F8A9516
:102AF000E2F7CB016091640470916504862B972BFB
:102B0000B9016B5F7F4FE5E076956795EA95E1F750
:102B100002C0440F551F6A95E2F7842B952B9093C2
:102B20006504809364042A5F3F4F40916F06642FD1
:102B300070E0C9010E94BC2F481B463010F4240FDE
:102B4000311D211572E0370710F020E030E02859E0
:102B50003B4F309367042093660496CFF6E06F9F57
:102B6000B001112460557F4F46E050E00E942D30A7
:102B7000A2CFCF93382FE0916604F0916704E85616
:102B8000F44020916F06622F70E0CF010E94BC2FAD
:102B9000281B822F332361F066E00E940730C82F84
:102BA000C15010F4CF91089580E20E943915F8CFFA
:102BB0009F01280F311D2115324018F080E0E0E020
:102BC000F0E08E0F9F2F911D88599B4F90936704C3
:102BD00080936604E7CFCF93DF93EC01FE018491ED
:102BE000811103C0DF91CF9108950E94391521967C
:102BF000F5CF1F921FB61F9211248F939F93AF930F
:102C0000BF9380917106811113C080913C03909114
:102C10003D03A0913E03B0913F034196A11DB11D1C
:102C200080933C0390933D03A0933E03B0933F03F6
:102C3000BF91AF919F918F911F901FBE1F901895CC
:102C40002FB7F89480913C0390913D03A0913E03EF
:102C5000B0913F032FBF08950E942016209147078F
:102C600030914807232B222321F0809399069093DB
:102C70009A062091490730914A07232B222321F0FD
:102C8000809397069093980685E497E00E94DB0B6B
:102C900008959091470740914907662309F46CC055
:102CA00020914807922B20914A07922B942B99232D
:102CB00031F098E09093430791E0909342078D3C68
:102CC00041F40E94850B8195809348070E942C1641
:102CD0000895E2E3E80FE231C8F7F0E0E055FD4C7B
:102CE0000C9427300E94850BEFCF0E94850B8195B5
:102CF00080934707EBCF0E94850BFACF0E94A50B6C
:102D000080934907E3CF0E94A50B8195F9CF0E94DC
:102D1000A50B819580934A07D9CF0E94A50BFACFC6
:102D2000282F215D330BA90121E030E0B90102C059
:102D3000660F771F4A95E2F790914607962B90937E
:102D40004607815D01C0220F8A95EAF780914C0702
:102D5000822B80934C070E94221008958091440793
:102D6000816080934407B2CF809144078260F9CF9D
:102D7000809144078460F5CF8D3C09F52091480788
:102D800027FD0DC09923B1F12CEF3FEF41119ECFEC
:102D900090914A07911123C01092420720C01092CF
:102DA00048079111F1CF1092430711C010924807C4
:102DB0009923C9F341118ACF2DEF3FEFE9CF8E3C24
:102DC00099F42091480712168CF3992399F0482F13
:102DD000415D550B9A01909149079923C9F228301A
:102DE000310508F472C072CF8F3C49F497FFEDCFE4
:102DF00010924707909148079111E9CFD4CF803DB9
:102E000049F41916ACF39923A9F341115FCF2FEFC1
:102E10003FEFBECF893D71F414163CF0992351F376
:102E2000411154CF28E030E0B3CF109249079111FF
:102E3000F9CFE0CF8A3D71F447FF07C010924907F0
:102E40009923C1F229E030E0A3CF992399F24111EF
:102E50003DCFF8CF8B3D69F420914A0727FD1092B2
:102E60004A07992339F22AE030E0442309F490CF4D
:102E70002DCF8C3D79F420914A07121614F410924C
:102E80004A07992309F4B6CF2BE030E0442309F434
:102E90007FCF1CCF2FE2280F283030F5682F615DDF
:102EA000770B9B0161E070E0022E01C0660F0A946F
:102EB000EAF760955091460765236093460799238A
:102EC00009F498CF442309F463CF815D40914C0706
:102ED00021E030E0B90102C0660F771F8A95E2F762
:102EE000CB018095842335CF8D3D69F42091440733
:102EF0002E7F20934407992309F47CCF4111E6CE1D
:102F00002CE030E045CF8E3D69F4209144072D7FC1
:102F100020934407992309F46DCF4111D7CE2DE0BA
:102F200030E036CF8F3D09F050CF209144072B7F02
:102F300020934407992309F45DCF4111C7CE2EE0B9
:102F400030E026CFCF93C82F8823B1F18CEF8C0FC0
:102F5000813AA0F580917101882301F18091640785
:102F600087FF1CC0EC2FE695E695E695F0E0E05172
:102F7000FD4F828190E04C2F477021E030E002C08D
:102F8000220F331F4A95E2F782239323892B79F08E
:102F90008C2F0E946A0C0E940E1109C0EAEEF2E02A
:102FA0008191C817A9F322E0E03FF207C9F78C2FFF
:102FB0000E94360C0E940E11CF91089580E28C0F72
:102FC000883068F4C77081E090E001C0880FCA952E
:102FD000EAF7C0915C07C82BC0935C07EBCF8BE589
:102FE0008C0F833038F42C2F2452330BC9010E94EC
:102FF000EA0BE2CFE8E5EC0FEB3150F4F0E0EE0F36
:10300000FF1FE055FD4F808191810E94100CD4CFAD
:1030100083E38C0F833180F661E08C2F0E94491688
:10302000CBCF882381F19CEF980F913A28F40E942E
:103030006A0C0E940E11089590E2980F983050F497
:10304000877091E001C0990F8A95EAF7892F0E9455
:103050005706EFCF9BE5980F933028F480E090E07F
:103060000E94EA0B089598E5980F9B3128F480E0C0
:1030700090E00E94100C089593E3980F933118F498
:1030800060E00E944916089510925C0780917101DA
:10309000882339F18091640787FF23C0E2EFF2E0D3
:1030A0008EE1DF011D928A95E9F780E090E00E94B1
:1030B000EA0B80E090E00E94100C109266070E94DC
:1030C0000E1186E0E5E4F7E0DF011D928A95E9F74D
:1030D0001092430710924207109244070E942C1648
:1030E0000895EAEEF2E086E0DCCF0E9444182FEF6C
:1030F00084E39CE0215080409040E1F700C0000054
:1031000088E19AE00FB6F894A895809360000FBE0E
:1031100090936000FFCFAAE2B0E0E1E9F8E10C94FF
:10312000DF2F8BE293E0FC0101962091F1002083D8
:1031300023E083339207B9F780912C03893009F497
:1031400056C0C8F4823009F4B2C0833009F481C09B
:10315000813071F18091E80083FFE6C080912B03FC
:1031600090912C039A3008F0DFC0E92FF0E0EE5385
:10317000FD4C0C9427308A3009F488C08B3051F70D
:1031800080912B03813231F780912F03909130038E
:10319000892B01F78091E800877F8093E8000E94E7
:1031A000A10D80912D03809371010E944418D2CF0C
:1031B00080912B03813A71F68091E800877F80939C
:1031C000E80080912F0390913003892B61F060E03B
:1031D00080E090E070E00E94480D8091E8008B77DD
:1031E0008093E800B7CF68E083E393E0F3CF80916A
:1031F0002B03813209F0AECF80912F0390913003E1
:10320000029708F0A7CF8091E800877F8093E800BD
:103210008091E80082FF18C09091F3008091F20045
:10322000029731F48091F100813011F0863021F461
:103230008091F10080933B038091E8008B7780932D
:10324000E8000E94A10D86CF809173068111E0CF26
:1032500081CF80912B03813A09F07CCF80912F039D
:1032600090913003892B09F075CF8091E800877F1A
:103270008093E8008091E80080FFFCCF809171018D
:103280008093F1008091E8008E77D9CF80912B0355
:10329000813209F05FCF8091E800877F8093E8005A
:1032A0000E94A10D80912E038093270353CF80911C
:1032B0002B03813A09F04ECF8091E800877F8093FD
:1032C000E8008091E80080FFFCCF80912703D8CFF1
:1032D000803889F0823841F580912F038F708730D4
:1032E00018F58093E9008091EB0085FB882780F931
:1032F0001092E90006C08091280390917206911106
:1033000082609091E800977F9093E8008093F100AD
:103310001092F1008091E8008E7723C0811116C0D1
:1033200080912D03813011F18091E80083FF0AC064
:103330008091E800877F8093E8008091EB008062B5
:103340008093EB00AA96E3E00C94FB2F823061F7A8
:1033500080912D03882389F01092E9008091E80084
:10336000877F8093E8000E94A10DDECF81E093303B
:1033700009F080E080937206EFCF80912F038F7069
:103380002FEF280F263080F68093E9002091EB0084
:1033900020FFE2CF933031F48091EB008062809384
:1033A000EB00DACF9091EB0090619093EB0021E07D
:1033B00030E0A90102C0440F551F8A95E2F74093FF
:1033C000EA001092EA008091EB008860E8CF81115A
:1033D000ABCF10912D031F778091E3008078812B74
:1033E0008093E3008091E800877F8093E8000E944B
:1033F000A10D8091E80080FFFCCF8091E300806800
:103400008093E30083E0111101C082E08093730692
:103410008BCF8058823008F087CF40912D03509198
:103420002E034C3D83E0580799F583E08A838AE2B6
:1034300089834FB7F894DE01139620E03EE051E215
:10344000E32FF0E050935700849120FF03C0829552
:103450008F703F5F8F708A30C8F0895C90E08D93E9
:103460009D932F5F243161F74FBF8091E800877FE4
:103470008093E8006AE270E0CE0101960E94480D58
:103480008091E8008B778093E8004ECF805DE6CF97
:1034900020912F0330913003852F99278330910598
:1034A00009F160F48130910509F472C0029709F0C6
:1034B0003BCF8BE390E0EAEEF6E029C08132910544
:1034C00009F45AC0829709F02FCF2115310509F46C
:1034D00069C02130310509F027CF86EB90E0E0EF9D
:1034E000F5E015C0CA0199274130B1F1823091054C
:1034F00009F43AC0892B09F017CFE1E6F7E0E4912F
:103500008E2F90E0E1E6F7E0009709F40DCF2091CF
:10351000E800277F2093E8002091310330913203A7
:103520008217930708F49C0140E02115310509F04A
:103530003EC041113CC08091E80082FDA1CF809146
:103540007306882309F49CCF853009F499CF8091C4
:10355000E80083FFF0CF94CFE5E4F7E0E4918E2F0D
:1035600090E0E5E4F7E0D0CFE7E3F7E0E4918E2FD9
:1035700090E0E7E3F7E0C8CF2115310571F0213085
:10358000310509F0D1CE89E090E0E5E1F7E0BFCF69
:1035900082E190E0E5E2F7E0BACF89E090E0ECEF7D
:1035A000F6E0B5CF84E490E0E6EAF6E0B0CF8091B3
:1035B0007306882309F464CF853009F461CF8091C4
:1035C000E80083FD5DCF8091E80082FDB4CF80915B
:1035D000E80080FFAACF9091F3008091F2002115BE
:1035E000310519F08830910550F041E0089709F055
:1035F00040E08091E8008E778093E80096CF449178
:103600004093F1003196215031090196E8CF80387E
:1036100009F08ACE8091E800877F8093E80080914E
:1036200029038093F10076CE81117ECE10912D0377
:10363000123008F079CE8091E800877F8093E8000F
:10364000109329030E94A10D112381F084E080933F
:10365000730642E061EC81E00E94890E42E261EC77
:1036600082E00E94890E809173065ECE8091E30015
:1036700087FDECCF81E0EBCF9C014FB7F8948091B0
:103680003C0390913D03A0913E03B0913F034FBF97
:10369000821B930B0895ACE0B0E0E1E5FBE10C94F4
:1036A000DE2F4F83152F8B879C8780914B04909141
:1036B0004C040E943C1B0B9770F10E9420169093C3
:1036C0004C0480934B046091490470914A0484EF48
:1036D0000E940814082F609147047091480485EFF8
:1036E0000E9408141E7F188709878A8786E0FE01DA
:1036F0003796DE01119601900D928A95E1F72981A6
:103700003A814B815C816D817E8180E090E02C96D6
:10371000E4E00C94FA2F80E000E0E4CF2F923F9297
:103720005F926F927F928F929F92AF92BF92CF9251
:10373000DF92EF92FF920F931F93CF93DF9300D00E
:1037400000D000D0CDB7DEB780916A06882309F497
:103750008FC080916403909165030E943C1BC297C7
:1037600008F448C00E942016909365038093640378
:1037700088E694E090936704809366048091EC0659
:103780008823C1F18BE897E00E94EB1580916107D7
:10379000909162070E943705811182C084E897E00A
:1037A0000E94EB1581E00E94B9158CE797E00E941A
:1037B000EB1580916107909162070E943705813077
:1037C00009F473C0823009F473C0811104C086E724
:1037D00097E00E94EB158AE697E00E94EB150E94A5
:1037E000CA0B81FF07C085E697E00E94EB1581E0D8
:1037F0000E94B9158091640490916504892BA9F009
:1038000080916A06882389F08091680681110DC035
:103810000E940C15209164043091650480E061E001
:1038200070E02115310509F047C0809169068823B1
:10383000F9F00E94C40C69837A838B839C83809106
:103840006B0690916C06A0916D06B0916E06298171
:103850003A814B815C81281B390B4A0B5B0BDA01E7
:10386000C9018F3F9F4FAF4FBF4710F40E94FA141A
:103870000F900F900F900F900F900F90DF91CF91BE
:103880001F910F91FF90EF90DF90CF90BF90AF907E
:103890009F908F907F906F905F903F902F900895B2
:1038A0008FE797E00E94EB1580CF81E797E091CFFB
:1038B0008DE697E08ECF8F5F082F10E01B01082E5A
:1038C00002C0220C331C0A94E2F7A10142235323C5
:1038D000452B89F39091700690FD44C09801369570
:1038E000279536952795922F8295880F80763FE110
:1038F000380F8093020120930501309303019093C8
:10390000060124E630E047E050E060E071E088E73F
:103910000E94B72C892B09F088CFA80125E0440F1D
:10392000551F2A95E1F78091700680FD23C0485904
:103930005B4F04E610E020E230E060E488E70E949C
:103940004F2D892B09F071CF9101209530958091F1
:1039500064049091650428233923309365042093EF
:10396000640463CF880F880F880F37E0380F20E09A
:1039700093E0BFCFE4E4F3E080E2DF011D928A959B
:10398000E9F7EBE7F1E0FE83ED8307E711E08FE76E
:10399000C82E81E0D82E97E0592E77247394AD81FC
:1039A000BE818D91BE83AD83F80121918F01240FDB
:1039B000352F311D28593B4FE82FF0E0EC5BFC4FD1
:1039C00080E090E0652C681A872C082E01C0880CD6
:1039D0000A94EAF77901A12CD701BD907D01B820A6
:1039E000662D6A19677070E0BB2D062E01C0BB0FF3
:1039F0000A94EAF79B2E7195619571096770772794
:103A000001C0B6946A95EAF79B286081962A908255
:103A1000A39468E0A612E0CF019631968830910514
:103A200089F68D819E81C816D90609F0B8CF04E6C3
:103A300010E020E230E044E453E07FCF0F931F9387
:103A4000CF93DF93C62FD42F122F8823A9F0609332
:103A500051070E94201690931F0380931E03C77086
:103A600081E001C0880FCA95EAF70E946011DF91DA
:103A7000CF911F910F91089580915107681344C011
:103A800080911E0390911F030E943C1B883C91056E
:103A9000D8F5CD1315C0812F0E94A2178FE39CE9A2
:103AA0000197F1F700C00000812F0E941118D77014
:103AB00081E001C0880FDA95EAF70E946A11D7CF3A
:103AC000C77001E0802F01C0880FCA95EAF70E94F5
:103AD0006A1180E28D0F883050F48D2F877001C0FD
:103AE000000F8A95EAF7802F0E946011D4CF812FB2
:103AF0000E94A2178FE39CE90197F1F700C0000034
:103B0000812F0E941118B3CFC77081E001C0880FC8
:103B1000CA95EAF7D2CFA0E0B0E0E1E9FDE10C946C
:103B2000DA2F8C01FC018481882331F161E0C80126
:103B30000E94E608EC01FC01E851FC47E730F10582
:103B4000B8F5E453FD4C0C94273026E241EE61EECB
:103B5000F80185810E941E1D80916307877088236C
:103B600059F0F8018581882339F08091650782FF3B
:103B700003C082E00E941906CDB7DEB7E8E00C94DE
:103B8000F62F27E245EE65EEE3CF26E241EE60EE4A
:103B9000DFCF27E245EE64EEDBCF26E241EE62EEB8
:103BA000D7CF27E245EE66EED3CF28E241E0EBCF58
:103BB000F801858181110DC0C631FCE7DF0709F0EE
:103BC000F8C0809152078111F2C089E20E946A0C0C
:103BD000E9C010925107CE019057839708F0CFC0EB
:103BE00084E090E00E9464309093650780936407BE
:103BF000FE01E150F047E232F10520F4ED52FD4CB8
:103C00000C942730809164078160809364076091F1
:103C100064077091650784E090E00E9498300E94EC
:103C200044189ACF80916507886080936507EFCF2D
:103C3000809164078260E9CF809164078460E5CF5A
:103C4000809164078860E1CF809165078160EDCF46
:103C5000809165078260E9CF809164078061D5CF4C
:103C6000809164078062D1CF809164078064CDCF5A
:103C70000E944418809164078068C7CF80916407D0
:103C80008C60C3CF809165078360CFCF809164073C
:103C90008E7FBBCF80916507877FC7CF80916407F8
:103CA0008D7FB3CF809164078B7FAFCF8091640706
:103CB000877FABCF809165078E7FB7CF80916507F7
:103CC0008D7FB3CF809164078F7E9FCF80916407F3
:103CD0008F7D9BCF809164078F7B97CF0E94441884
:103CE000809164078F7791CF80916407837F8DCF18
:103CF000809165078C7F99CF8091640782FB99271B
:103D000090F921E0922790FB82F990FB83F97DCF17
:103D100080916507982F909591708E7F892B90FBED
:103D200081F983CF90916407892F8F7B96FF806400
:103D30006CCF0E94441890916407892F97FB87F9F4
:103D4000805863CF61E08EE090E00E947A305FCFD0
:103D500060E0F9CF90916407892F8F7E94FF806196
:103D600054CF90916407892F8E7F90FF81604DCF53
:103D700090916507892F877F93FF886056CFC63162
:103D80002CE7D20709F069C080915C078A7A91E03C
:103D9000811101C090E090935207882331F085E3B0
:103DA0000E94360C0E940E11D7CE89E2F9CF85E32E
:103DB0000DCF80915C078272FE01E052F847E53139
:103DC000F10508F05FC0EB50FD4C0C94273080915A
:103DD000540791E0892780935407109272018091D3
:103DE0005307816080935307B7CE4DE75EE069E7E4
:103DF0007EE00E94F50AB0CE49E75EE06DE77EE026
:103E0000F8CF4BE25EE061E27EE0F3CF41E25EE0BC
:103E10006BE27EE0EECF42E45EE065E37EE0E9CF78
:103E200045E35EE062E47EE0E4CF4CE55EE06FE413
:103E30007EE0DFCF4FE45EE06CE57EE0DACF48EB7A
:103E40005AE06AEA7AE0D5CF4AEA5AE068EB7AE0CB
:103E5000D0CF81E00E94690E7FCECA353CE7D30700
:103E600009F485C008F05CC0C1309CE7D90709F4AB
:103E70007CC0C330ECE7DE0709F471C0C115DC4734
:103E800009F460C0F8018581E080F180882309F49D
:103E900072C0C7010E94B208C82F682FC7010E94D4
:103EA000DC05B7018C2F0E945F060E949907D82F6E
:103EB000C92FF801D580C680C2942FE0C22280911C
:103EC00063078770882301F1FD2CDD20F1F0892F35
:103ED000807F803461F080E28D0F8830A8F0892FD8
:103EE000807E803221F4D23078F0CC2069F080914D
:103EF000650782FF09C082E00E941906809163076E
:103F00008770FF24F3948111F12CEC2FE295EF7070
:103F1000C03C08F09BC0F0E0E65FFC4C0C942730FE
:103F2000CB352CE7D20729F1CC35DC4709F0AACFF5
:103F30008091650782FB882780F991E089270E949C
:103F40000B10A0CF0E9444188FEF94E3ECE0815057
:103F50009040E040E1F700C000000E94340D6FEF98
:103F60007FEF80E090E00E9498300E94751881E019
:103F7000E6CF80E0E4CFC7010E94F605C82F91CFBD
:103F8000FC2FFF70EF2EC03118F0E29490EFE92281
:103F9000DD20B9F0EE2069F080E28D0F883010F05E
:103FA000D11109C080915C078E2980935C070E9423
:103FB0000E118D2F43C0809166078E29809366076E
:103FC000F6CF8D2F0E941118EE2009F43FC080E239
:103FD0008D0F883010F0D11104C08E2D0E9457062D
:103FE00006C0E094809166078E21809366070E9448
:103FF0000E112CC02C2F2F70E22EC07FC03219F072
:10400000E29480EFE822DD2349F0D13009F46BC05F
:10401000DD2009F477C0CC20C9F1CBCF80916507B2
:1040200082FD30C0DD2069F0EE2039F080915C0720
:104030008E2980935C070E940E1180E00E94A217D7
:1040400005C080E00E941118E110C7CFFF20A9F041
:104050008091630780FD11C0F801158286958695D1
:1040600086950E946505C8010E948B1D809163079B
:104070008695869586950E94750560E0C8010E9428
:10408000E6087ACDDD2099F0C11004C08E2D0E9483
:104090006011DCCF31E0C312D9CF80915D079E2D36
:1040A0009823E91699F28E2980935D07CFCFC1102E
:1040B000CDCF8E2D0E946A1190915D078E2D8923A0
:1040C000882329F08E2D8095892380935D07809128
:1040D0005E079E2D9823992309F4B8CFE094E82237
:1040E000E0925E07B3CFDD2029F085E08C1508F45F
:1040F000ADCFCCCF94E09C1508F4A8CF8E2D0E94B4
:104100006A11A4CFCC20D1F3D93369F4EFEFF7EEE5
:1041100023E0E150F0402040E1F700C000008D2F87
:104120000E94111893CF8FE39CE90197F1F7F5CF27
:104130008C2F869586958370882369F0813009F0ED
:1041400085CF8D2F9C2F9370D11002C080E090E01E
:104150000E94100C7BCF8D2F9C2F9370D11002C02A
:1041600080E090E00E94EA0B71CF6D2D8D2F0E94B0
:1041700049166CCF8C2F8370811142C0D1102FC093
:104180004D2F429546954770440F440F2D2F2F70A9
:1041900030E0042E02C0220F331F0A94E2F780E0C1
:1041A00090E0D4FF09C08FE090E002C0880F991F13
:1041B0004A95E2F780959095C695C695C370C23032
:1041C000B1F0C33089F040915F0750916007C13072
:1041D00049F0822B932B842395230E945B050E9438
:1041E000CA0B34CF242B352B822B932BF6CF822B6B
:1041F000932B20915F073091600782279327EDCFA3
:10420000DD2091F1C0FFEBCF4D2F429546954770D1
:10421000440F440F2D2F2F7030E0042E02C0220FC8
:10422000331F0A94E2F780E090E0D4FF09C08FE0EA
:1042300090E002C0880F991F4A95E2F7809590950B
:10424000C695C695C370C230C1F0C33099F0409195
:10425000610750916207C13059F0822B932B842360
:1042600095230E946005BBCF823008F4B8CFCCCF35
:10427000242B352B822B932BF4CF822B932B209145
:1042800061073091620782279327EBCFCF70DD2043
:1042900039F08C2F0E9465058D2F0E9460119FCFF1
:1042A0008D2F0E946A118C2F0E94750598CFD23FE6
:1042B000A1F178F4D03FC1F0D13F09F447C0DD202F
:1042C00009F46BC0CC2009F465C08D2F0E94A217A1
:1042D00086CFD33F49F1D43FA9F1D110F3CFC1101C
:1042E0006EC08C2F8F71E0CFDD20A1F094E09C1583
:1042F00008F475CFCF7181E090E0FC0102C0EE0FB1
:10430000FF1FCA95E2F780916107909162078E279F
:104310009F27A7CFF5E0CF16EBCF8C2F8F71D11051
:10432000C3CF0E9465055BCF80E090E0DD2009F4FB
:1043300098CFCF7181E090E002C0880F991FCA9595
:10434000E2F78FCF8091650782FD06C08C2F8F71B9
:10435000DD2009F4A9CFE5CFDD2089F0CF718C2FC6
:104360000E9465058091650782FF07C028E0C29F13
:10437000C00111248360809363078C2FD2CF81E02A
:104380000E94190631E03C1508F029CF82E00E9416
:10439000190625CF8C2F8F71C4CFCC2009F4A1CF63
:1043A000D93369F48FEF97EEE3E081509040E0401D
:1043B000E1F700C000008D2F0E94111810CF8FE38D
:1043C0009CE90197F1F7F5CF8091A707803178F448
:1043D0008091A607882359F0E0916807209167072C
:1043E0003091A2074091A10757E02E1301C0089514
:1043F0006E2F70E05E9FF0011124DF01A759B84FC6
:1044000014968C911497882361F111968C911197D1
:10441000831327C08C91841324C015968C91159713
:1044200081111FC012968D919C91A091A307B0910C
:10443000A4078A1B9B0B883C910598F48091A707E1
:104440008F7080618093A707E159F84F80818F704A
:104450008061808381EA97E00E948B1D0E940F0695
:104460000895FB013196E770C0CFADE0B0E0EBE31B
:10447000F2E20C94D52F8C0186E0F801DE0118964B
:1044800001900D928A95E1F7F801E080F580A28015
:10449000B380C48081EA882E87E0982E7090A507AB
:1044A000711020C0CC20D9F0FF2009F419C1C80137
:1044B0000E941509882309F413C187E0F801D4018B
:1044C00001900D928A95E1F7F1E0CF1206C080913C
:1044D000A1079091A2070E9406090E94E421FF24EF
:1044E000F39451C0D090A6078091A3079091A407A0
:1044F0009501281B390BDD2009F4BAC0283C310591
:1045000008F090C0CC2059F39091A207C18080910F
:10451000A707803108F058C0C91214C09091A107B4
:104520009E1110C0F1104AC08F7080618093A70760
:1045300081EA97E00E948B1D8091A707F80186838E
:10454000F12C21C0F1103AC040E06C2D8E2D0E945C
:104550001B0F40E06C2D8E2D0E941B0FF82E811139
:10456000EFCF888599850E940609292F22952F7003
:10457000903470F49F702230A0F09923B1F0F801CC
:104580009681903190F48F2D2D96EDE00C94F12FC3
:104590002A5F2F70223068F0C8010E948B1DFD2C0D
:1045A000F2CF992311F0882371F3805E883058F39D
:1045B000F3CF803F40F3815F8230F9CF8091A7072E
:1045C00081608093A707BCCFC91207C09091A10753
:1045D0009E1103C0FF2009F46CC0C8010E94150998
:1045E000882309F47DC0FF2009F47AC08091A707D1
:1045F000803278F02091A1073091A2073A83298375
:10460000BC82AB827D821E828F83CE0101960E9486
:104610008B1D87E0F801A1EAB7E001900D928A9521
:10462000E1F75BCF8091A707803150F481EA97E0F2
:104630000E948B1D87E0F40111928A95E9F780CFE3
:10464000CC2009F44CCF2091A20791812913C5CF2A
:104650009091A1079E11C1CFF110BFCF8683C801F1
:104660000E948B1D87E0F40111928A95E9F737CFFC
:10467000283C3105F8F6CC2009F431CFFF2081F138
:104680009091A2078181981321C08091A1078E117A
:104690001DC08091A70780FD10C0803170F0868317
:1046A000807F803F39F08681982F907F905F8F7058
:1046B000892B8683C8010E948B1D87E0F801A1EA3F
:1046C000B7E001900D928A95E1F709CFC8010E94E9
:1046D000150981119ECF8091A70781608093A7075C
:1046E000C8010E948B1DFBCEABE1B0E0EAE7F3E22C
:1046F0000C94DF2F4E8B5F8B688F798F8A8F9B8F07
:104700009111109266071D8A86E0FE017696DE0101
:104710001F9601900D928A95E1F78B89882329F0E5
:1047200061E0CE010F960E94E60887E0FE013F9609
:10473000DE01189601900D928A95E1F7CE01089658
:104740000E94352281112BC087E0FE013896DE01E0
:10475000119601900D928A95E1F72091670740919B
:1047600068078C858823D9F030E0C90101968770ED
:10477000992750E084179507E9F097E0929FD001C0
:10478000939FB00D1124A759B84FFE0131960190A7
:104790000D929A95E1F7809367070E940F0617E044
:1047A0008091680790916707891312C06B96E3E0C8
:1047B0000C94FB2F0E944418109267071092680710
:1047C00087E0E1EAF7E0DF011D928A95E9F7E7CF9C
:1047D000189FC00111248759984F0E9435228823C1
:1047E00029F38091680790E001968770992780935C
:1047F0006807D6CFA6E0B0E0E0E0F4E20C94DE2F4C
:104800000E9420168C018091F2069091F306801789
:10481000910779F019821A820E942016BC01498101
:104820005A8180E090E00E9474231093F306009375
:10483000F2062696E4E00C94FA2FACE0B0E0E3E256
:10484000F4E20C94DA2F80E00CEF93E0D92EFF24F1
:10485000F3942DEFE22E32E0C32E90918C0620913E
:104860008B06291709F45CC0E92FF0E0E357F94FF4
:104870002081122F1F779F5F937090938C068091F9
:104880008A068F5F80938A0627FD1CC01F830887D6
:104890000E942016BC0189879A87DB86FC864F819F
:1048A000588583E091E00E9474238FE39CE901978F
:1048B000F1F700C0000019830A830E942016282FF8
:1048C00083E01BC01F83E8860E942016BC018987F5
:1048D0009A87CB86FC864F81588582E091E00E94C2
:1048E00074238FE39CE90197F1F700C0000019835E
:1048F000EA820E942016282F82E0622F792F2B83D4
:104900009C838D831E8249815A8190E00E9474238A
:104910008FE39CE90197F1F700C0000081E09DCF93
:104920002C96E8E00C94F62FADE1B0E0EAE9F4E271
:104930000C94D52F1A821982FE01339688E0DF018C
:104940001D928A95E9F783E9A82E82E0B82E8E01A0
:104950000F5F1F4F4801EE24E394F12C2EE9C22E85
:1049600022E0D22EF50181915F018F3F09F441C011
:10497000F894E82FE295EF70F0E021A18F70A70185
:1049800002C0440F551F8A95E2F7CA01922F982B57
:1049900091A392A18095892382A3789400C0E8E92D
:1049A000F2E031E0712C21912F3F09F4AEC0A22F2B
:1049B000A295AF70A05EB0E08C9190E02F7002C025
:1049C000959587952A95E2F7817081119EC0832F76
:1049D000782A330FCE16DF0631F7F5013197808143
:1049E0008F3F11F00E943D0950EA5A95F1F7D80126
:1049F0007C920F5F1F4FB8E9AB16B2E0BB0609F01F
:104A0000B1CF4AE050E0B40188E594E00E9436302E
:104A10000091630410E00C58194F892B09F477C0FA
:104A20008AE0F401A8E5B4E001900D928A95E1F7DF
:104A300081E080931D030E94201690931C038093B5
:104A40001B038091EC06882309F4B9C01C861B86E1
:104A5000FE013D9683E0DF011D928A95E9F7809182
:104A600026038A3008F075C07E01BBE0EB0EF11C16
:104A700040E152E1B701C8010E94D10F67018823CC
:104A800009F48BC048E752E1B701C8010E94D10F79
:104A9000882309F482C049EA52E1B701C8010E94A3
:104AA000D10F882309F479C04DEF52E1B701C80155
:104AB0000E94D10F882309F470C047E852E1B70182
:104AC000C8010E94D10F882309F467C04EE353E167
:104AD000B701C8010E94D10F882309F45EC010926B
:104AE00026038091620490E045E050E0B6018C58C6
:104AF000994F0E94363021E020931A03892B09F048
:104B00003FC06D96EDE00C94F12F80E061CF809175
:104B10001D03882309F495CF80911B0390911C03FA
:104B20000E943C1B059708F48CCF45E050E068E5F7
:104B300074E0C8010E943630892B41F085E0E8E539
:104B4000F4E0D80101900D928A95E1F710921D03CF
:104B500078CF80911803909119030E943C1B843FE9
:104B6000914008F081CF80911A03882351F2FE0111
:104B70003B9685E0DF011D928A95E9F710921A03B2
:104B8000A0916204B0E0AC58B94F85E0FE013B96BD
:104B900001900D928A95E1F7B4CF809126038F3F63
:104BA00039F40E9420169093190380931803DBCFE9
:104BB0008F5F809326038A3008F493CFF2CFE09082
:104BC0006204F12CF701EC58F94F7F0185E0F80100
:104BD000A3ECB6E001900D928A95E1F765E070E0F4
:104BE00083EC96E00E945E0B8093C20685E0E8ECC1
:104BF000F6E0D70101900D928A95E1F788E0E9E8A7
:104C0000F6E0AEECB6E001900D928A95E1F768E02F
:104C100070E08EEC96E00E945E0B8093CD06C09013
:104C2000D606D090D706E090D806F090D9068091AD
:104C3000100390911103A0911203B0911303C816B1
:104C4000D906EA06FB06B1F0C0921003D092110318
:104C5000E0921203F09213030E94C40CC61AD70A02
:104C6000E80AF90AC092EE06D092EF06E092F0064A
:104C7000F092F10688E0EAEDF6E0A4E5B7E00190F5
:104C80000D928A95E1F78091E2060E94900A809148
:104C9000ED06811136CF8091140390911503A091F8
:104CA0001603B0911703BC01CD010E94140D6A8F49
:104CB0007B8F8C8F9D8F672B682B692B09F421CFFD
:104CC0000E94C40C60931403709315038093160321
:104CD0009093170389E0E3EEF6E0DE011B96019066
:104CE0000D928A95E1F7FE01749686E0DF011D9230
:104CF0008A95E9F74C895D896E897F89888D998DC0
:104D00000E944B1B2C873D874E875F87688B798B72
:104D100066E070E0CE010C960E945E0B8B8789E006
:104D2000FE013B96A3EEB6E033CFCDB7DEB72D97AD
:104D30000FB6F894DEBF0FBECDBF85B7806885BFC4
:104D400085B7806885BF84B7877F84BF0FB6F89426
:104D5000A895809160008861809360001092600047
:104D60000FBE80E890E00FB6F894809361009093B6
:104D700061000FBE8BE399E09093E7028093E60217
:104D80000E94F10D0E94C00E8091E2008460809329
:104D9000E200789480917306882399F08091E9006D
:104DA0001091EC001795112717958F70182B109202
:104DB000E9008091E80083FD0E948B181F7010931A
:104DC000E90082E084BD93E095BD9AEF97BD8093A2
:104DD0006E001092EE061092EF061092F0061092FE
:104DE000F1068091D80080618093D8002AE12A954D
:104DF000F1F700C08091D90080FF08C181E0809365
:104E0000EC068093ED0680930E010E94FD2DE9E8EB
:104E1000F6E088E0DF011D928A95E9F780910E01A6
:104E200091E089278093930680910E0190939606D6
:104E300080910E0180910E01811106C084EF809354
:104E40000D0185EF80930C0160E080E00E941E0B55
:104E500061E080E00E941E0BEFE8F1E03197F1F78E
:104E600000C0000010E080919606181708F4D9C021
:104E700080910E0180910E0190E0811101C095E0BA
:104E80009093630485E0891B8093620403E912E038
:104E900058E9E52E52E0F52ED8018D918D018F3F16
:104EA00011F00E943D09E016F106B1F708E912E0A1
:104EB000F80181918F018F3F11F00E943D09F2E0CE
:104EC0000E391F07A9F78AE0E4E7F6E0DF01282F93
:104ED0001D922A95E9F7E8E5F4E0DF011D928A9535
:104EE000E9F780E090E00E946430863E9E4F09F42E
:104EF00066C066EE7EEF80E090E00E94983060E051
:104F000082E090E00E947A3081E090E09093600728
:104F100080935F0761E083E090E00E947A3060E078
:104F200074E184E090E00E94983060E086E090E0D8
:104F30000E947A3060E087E090E00E947A3040E0A2
:104F400050E0BA0188E090E00E948C3060E084E29A
:104F500090E00E947A3060E087E190E00E947A3031
:104F600060E08CE090E00E947A3060E08DE090E0BC
:104F70000E947A3019821A821B821C821D821E8234
:104F80001F82188648E050E068E170E0CE0101968B
:104F90000E946A3040E050E0BA0180E290E00E9456
:104FA0008C3040E050E0BA018FE090E00E948C30FD
:104FB00040E050E0BA0183E190E00E948C3082E052
:104FC00090E00E945C3080937E0684E090E00E9436
:104FD000643090936507809364070E949424EFEFF8
:104FE000F6E721E0E150F0402040E1F700C000008A
:104FF0000E9494248091740680FF25C06FEF7FEF9C
:1050000080E090E00E9498300E94340D0E94F10DE3
:10501000109273061092EC061092ED0610920E019B
:10502000F6CE60E0812F0E94410B082F61E0812FB6
:105030000E94410BE12FF0E0EC56F94F880F802BD6
:1050400080831F5F10CF83E090E00E945C3090E08F
:105050000E945B050E94C60A81E08093530748E0E6
:1050600050E068E170E084E597E00E944C301092D7
:105070005307809154078430F8F485E080935407F7
:105080008091740190917501A091760180935507EC
:1050900090935607A09357078FE7809358078FEF99
:1050A0008093590748E050E068E170E084E597E0BC
:1050B0000E946A301092530783E08093700680E26A
:1050C00080936F060E94812C6BE070E085EA98E087
:1050D0000E94ED14882309F443C08091700665E0B6
:1050E00070E081FDBCC080EA98E00E94ED14882346
:1050F000B9F16DE070E08EE898E00E94ED1488232D
:1051000079F10E94C40C69877A878B879C87DC01C0
:10511000CB01805A9541AF4FBF4F80936B06909360
:105120006C06A0936D06B0936E06E8E6F4E080E0AE
:1051300092E0DF019C011D9221503040E1F7F09395
:105140006704E09366048FEF9FEF9093650480936C
:10515000640481E080936A06809369061092680671
:105160008091EC06811102C00E94002E8091ED0614
:10517000811102C00E94F5138FE091E09093150712
:10518000809314074424439422E0A22EB12CCE0134
:10519000019638E1832E912C40E4342E89879D8737
:1051A00080917306853061F480917306853009F42F
:1051B00059C00E9444180E94CA0B80E00E94900AC5
:1051C0000E9494248FE7E82E86E0F82E94E7C92EFB
:1051D00096E0D92ED601F70191918D9126E0E9381C
:1051E000F20709F496C09817B9F32090EC0610E086
:1051F000D6010D916D01F70151907F01501639F1E3
:105200005026712C66246394862D85218823B9F05D
:105210002220A9F079821A830E9420169C838B8316
:105220004D8291E0862D8023811101C090E09E8304
:1052300049815A816B817C818D810E947423739492
:10524000660CF6E07F12E0CFF701319700831F5F15
:105250001A3071F60E94E10CDD24D3945FC08BE913
:1052600098E043CF80917306843051F10E9470130F
:1052700081E00E94900A0E94FA140E944B10109242
:1052800071060FB6F894A895809260000FBE309218
:10529000600083B7817F846083BF83B7816083BFF1
:1052A0007894889583B78E7F83BF0FB6F894A895BE
:1052B00080916000886180936000109260000FBE52
:1052C00080917206882309F46FCF0E949424E4E74A
:1052D000F6E08191811105C036E0EE37F307C9F79A
:1052E00063CF80E189BD82E189BD09B400FEFDCFB5
:1052F0008091D8008F7D8093D8008091E0008260FB
:105300008093E0008091E00081FDFCCF0E94441872
:105310004BCF98136ACF0E94FA23D12C0E947013AE
:10532000F090EC06FF2019F00E941D24F82E8091C9
:10533000AF06882351F01092AF0680918B068093C0
:105340008C068091890680938A06E12C39C061E041
:105350008E2D0E94410B182F60E08E2D0E94410B74
:10536000110F812B0E2D10E0D801AC56B94FEC91E6
:105370009E2F9370891719F1EE0FEE0FE82BEC9327
:10538000809193068E0DEF70F0E0E256FD4F0F56C0
:10539000194FC080D8019C91C90EB1E060E0BC15E6
:1053A00024F0EFEFCE161CF461E00E94FC0A8C2D75
:1053B000CC0C990BB5010E941330D8018C93E39467
:1053C00080919606E81618F28091EC06882319F071
:1053D0000E941D24F82AFF2061F00E94E10C0E9427
:1053E0004B1081110E94E10C0E948E1B0E940C1533
:1053F00008C00E944B108111F5CF0E948E1BD11066
:10540000F5CF86E0E5E4F7E0A985BD8501900D9232
:105410008A95E1F7109247071092480710924907C2
:1054200010924A078B819C81892B882379F0809187
:10543000990690919A060E943C1B9C01809143071B
:10544000811143C02B30310508F045C08D819E810C
:10545000892B882379F080919706909198060E9475
:105460003C1B9C0180914207811170C02B3031059B
:1054700008F072C069857D8585E497E00E94970CED
:1054800081110CC08091470790914807892B90911A
:105490004907892B90914A07892B81110E942C166C
:1054A00086E0E985FD85A5E4B7E001900D928A9537
:1054B000E1F70E94CA0B90919B06891709F470CE00
:1054C00080939B060E94C40C6BCE2531310508F4F5
:1054D000BDCF8F3F19F08F5F809343071B8111234E
:1054E00059F00E94850B91E011160CF09FEF899FF7
:1054F000802D1124809347071C81112359F00E94AD
:10550000850B91E011160CF09FEF899F802D1124DF
:105510008093480780914707882309F497CF10911B
:105520004807112309F492CF0E94770B811101C023
:1055300081E080934707812F0E94770B882319F021
:105540008093480783CF4092480780CF21353105AB
:1055500008F490CF8F3F19F08F5F809342071D8131
:10556000112359F00E94A50B91E011160CF09FEF4A
:10557000899F802D1124809349071E81112359F0A2
:105580000E94A50B91E011160CF09FEF899F802DD2
:10559000112480934A0780914907882309F46ACF30
:1055A00010914A07112309F465CF0E94770B8111EE
:1055B00001C081E080934907812F0E94770B8823E7
:1055C00019F080934A0756CF40924A0753CF7894F8
:1055D0001F921FB61F9211248F939F93AF93BF9377
:1055E00080913C0390913D03A0913E03B0913F0315
:1055F0000196A11DB11D80933C0390933D03A093A0
:105600003E03B0933F03BF91AF919F918F911F9045
:105610001FBE1F9018951F920F920FB60F92112464
:105620002F933F934F935F936F937F938F939F93AA
:10563000AF93BF93EF93FF938091E10082FF09C086
:105640008091E20082FF05C08091E1008B7F809312
:10565000E1008091DA0080FF24C08091D80080FFB3
:1056600020C08091DA008E7F8093DA008091D9008B
:1056700080FF9BC080E189BD82E189BD09B400FE45
:10568000FDCF81E08093730680912A03811109C0C8
:105690000E94F10D0E94C00E8091E2008460809310
:1056A000E2008091E10080FF17C08091E20080FF5E
:1056B00013C08091E2008E7F8093E2008091E2002F
:1056C00080618093E2008091D80080628093D8004E
:1056D00019BC85E0809373068091E10084FF29C0A6
:1056E0008091E20084FF25C080E189BD82E189BD0F
:1056F00009B400FEFDCF8091D8008F7D8093D80043
:105700008091E1008F7E8093E1008091E2008F7EA6
:105710008093E2008091E20081608093E2008091BA
:105720002903882309F447C084E08093730680919D
:1057300073068091E10083FF27C08091E20083FF20
:1057400023C08091E100877F8093E10082E0809315
:105750007306109229038091E1008E7F8093E1000F
:105760008091E2008E7F8093E2008091E200806170
:105770008093E20042E060E080E00E94890E809128
:10578000F00088608093F000FF91EF91BF91AF919E
:105790009F918F917F916F915F914F913F912F9149
:1057A0000F900FBE0F901F90189519BC10927306A2
:1057B00010922A0376CF8091E30087FF02C083E036
:1057C000B4CF81E0B2CF1F920F920FB60F92112487
:1057D000FF920F931F932F933F934F935F936F937A
:1057E0007F938F939F93AF93BF93CF93DF93EF9369
:1057F000FF9309EE10E0F8018081C091EC00C7959D
:10580000CC27C7958F70FC2EF82A1082C0EFD0E00D
:105810008881877F888378940E948B18F801108292
:10582000888188608883CF2DCF70C083FF91EF91EE
:10583000DF91CF91BF91AF919F918F917F916F91A8
:105840005F914F913F912F911F910F91FF900F907A
:105850000FBE0F901F901895FF920F931F93CF9339
:10586000DF93182FEB011092BC0084EA8093BC00F8
:105870000E942016082FF92E8091BC0087FF28C0B7
:105880008091B900887F883029F08091B900887FA5
:105890008031A1F51093BB0084E88093BC000E9486
:1058A0002016182F092F8091BC0087FF1FC0209160
:1058B000B900287F80E090E0283199F081E090E005
:1058C000203411F480E090E091958195910909C010
:1058D000802F9F2D0E943C1BC817D90768F68EEFBA
:1058E0009FEFCDB7DEB7E5E00C94F92F812F902F15
:1058F0000E943C1BC817D907B0F6F1CF8FEF9FEF7E
:10590000F0CF1092B9008CE08093B80008950F9307
:105910001F93CF93DF93EB018093BB0084E88093C8
:10592000BC000E942016182F092F8091BC0087FF11
:1059300011C02091B900287F81E090E0283211F455
:1059400080E090E0919581959109DF91CF911F9131
:105950000F910895CF3FDC0741F3812F902F0E94D4
:105960003C1BC817D90708F78EEF9FEFEECFA0E0DA
:10597000B0E0EDEBFCE20C94D52F782E5B016A01D0
:1059800089010E9420164C010431110560F10F3F7E
:10599000100769F1C80164E170E00E94BC2FF62E87
:1059A000E72E6F2D7E2D872D0E942C2CEC0197FF6A
:1059B00009C00F3F1007A9F3C4010E943C1B081740
:1059C000190778F77501CA0CDB1CEC14FD0411F003
:1059D000D7FF10C084E98093BC00CE01CDB7DEB7FD
:1059E000EDE00C94F12FFF24F394E12CDACF85E065
:1059F000F82EFBCFB801F70181917F010E94872C1F
:105A0000EC01E3CFA0E0B0E0E8E0FDE20C94D52F9C
:105A1000782E5B016A0189010E9420164C01043135
:105A2000110560F10F3F100769F1C80164E170E0F2
:105A30000E94BC2FF62EE72E6F2D7E2D872D0E9403
:105A40002C2CEC0197FF09C00F3F1007A9F3C401EC
:105A50000E943C1B0817190778F77501CA0CDB1C5C
:105A6000EC14FD0411F0D7FF10C084E98093BC0052
:105A7000CE01CDB7DEB7EDE00C94F12FFF24F39407
:105A8000E12CDACF85E0F82EFBCFF7018491B80145
:105A90000E94872CEC01FFEFEF1AFF0AE1CFA0E094
:105AA000B0E0E5E5FDE20C94D42F682E962E5A0165
:105AB000690178010E942016782E892E0431110583
:105AC00030F10F3F100731F1C80164E170E00E942E
:105AD000BC2F162F072F612F702F862D0E942C2C84
