:100000000C948E050C94AB050C94AB050C94BC338E
:100010000C94AB050C94AB050C94AB050C94AB05A0
:100020000C94AB050C94AB050C9482300C945A31B3
:100030000C9496150C94AB050C94AB050C94AB0585
:100040000C94AB050C94AB050C94AB050C94AB0570
:100050000C94AB050C945E300C94AB050C94AB0582
:100060000C94AB050C94AB050C94AB050C94AB0550
:100070000C94AB050C94AB050C94AB050C94AB0540
:100080000C94AB050C94AB050C94AB050C94AB0530
:100090000C94AB050C94AB050C94AB050C94AB0520
:1000A0000C94AB050C94AB050C94AB05050109024F
:1000B000A10185020901A1000509190129081500FE
:1000C0002501950875018102050109300931158165
:1000D000257F95027508810609381581257F9501D0
:1000E00075088106050C0A38021581257F95017572
:1000F000088106C0C005010980A101850319012AF4
:10010000B700150126B700950175108100C0050CD8
:100110000901A101850419012AA002150126A002E6
:10012000950175108100C005010906A1018506052C
:100130000719E029E71500250195087501810205D9
:1001400007190029EF1500250195F07501810205B9
:10015000081901290595057501910295017503910D
:1001600001C00660FF0961A1010962150026FF00B8
:100170009520750881020963150026FF00952075FA
:10018000089102C005010906A101050719E029E748
:1001900015002501950875018102950175088101F9
:1001A0000507190029FF150026FF0095067508812F
:1001B000000508190129051500250195057501910E
:1001C00002950175039101C000AF00AE07087F08DA
:1001D00007003E5B4F5B3E003E6B4F6B3E001C3E9C
:1001E0007C3E1C00183C7E3C18001C577D571C00B0
:1001F0001C5E7F5E1C0000183C180000FFE7C3E790
:10020000FF00001824180000FFE7DBE7FF0030487C
:100210003A060E00262979292600407F05050700A9
:10022000407F05253F005A3CE73C5A007F3E1C1C9E
:100230000800081C1C3E7F0014227F2214005F5F10
:10024000005F5F0006097F017F00006689956A00F4
:1002500060606060600094A2FFA2940008047E04C5
:10026000080010207E20100008082A1C0800081C26
:100270002A0808001E10101010000C1E0C1E0C0086
:1002800030383E383000060E3E0E060000000000FA
:10029000000000005F000000000700070000147F5E
:1002A000147F1400242A7F2A12002313086462009A
:1002B000364956205000000807030000001C224168
:1002C00000000041221C00002A1C7F1C2A00080894
:1002D0003E08080000807030000008080808080088
:1002E0000000606000002010080402003E514945F3
:1002F0003E0000427F4000007249494946002141CA
:10030000494D33001814127F100027454545390028
:100310003C4A494931004121110907003649494900
:100320003600464949291E00000014000000004024
:1003300034000000000814224100141414141400A6
:100340000041221408000201590906003E415D598E
:100350004E007C1211127C007F49494936003E4113
:10036000414122007F4141413E007F4949494100CE
:100370007F09090901003E41415173007F080808C7
:100380007F0000417F4100002040413F01007F0885
:10039000142241007F40404040007F021C027F0049
:1003A0007F0408107F003E4141413E007F0909095A
:1003B00006003E4151215E007F0919294600264969
:1003C0004949320003017F0103003F4040403F00A4
:1003D0001F2040201F003F4038403F006314081496
:1003E00063000304780403006159494D4300007F12
:1003F00041414100020408102000004141417F00BA
:10040000040201020400404040404000000307088D
:1004100000002054547840007F2844443800384479
:1004200044442800384444287F0038545454180069
:1004300000087E09020018A4A49C78007F08040428
:10044000780000447D4000002040403D00007F10C7
:100450002844000000417F4000007C0478047800BC
:100460007C0804047800384444443800FC182424F0
:10047000180018242418FC007C08040408004854C0
:100480005454240004043F4424003C4040207C0099
:100490001C2040201C003C4030403C0044281028D8
:1004A00044004C9090907C004464544C44000008FC
:1004B00036410000000077000000004136080000CF
:1004C0000201020402003C2623263C00000000003A
:1004D0000000404040F0F8F8FF38FFF8F83FF8F827
:1004E000FF38FFF8F8F040404000000000000080B6
:1004F000C0C0C0800000C0C08000000080C0C0003C
:10050000C0C0000080C0C00000000000C0C0C0C06B
:10051000C000C0C00000000000000000000000009B
:1005200000000000000000000000000000000000CB
:1005300000000000000000000000000000000000BB
:100540000000000000000000000000C0F0F8FC3EC9
:100550001E06010000007F4141417F007F41414173
:100560007F000080C0E07E5B4F5BFEC00000C000EB
:10057000DCD7DEDEDED7DC00C000000000000000BB
:10058000000000000000000000000000000000006B
:100590000000494949FFFFFFFFE0DFBFBF00BFBFC9
:1005A000DFE0FFFFFFFF49494900000000001F3F57
:1005B0006060E0BF1F007F7F071E381E077F7F003F
:1005C0007F7F0E1F3B716000000000007F7F0C0CDE
:1005D0000C007E7E007F7E0303007F7E03037E7E11
:1005E00003037F7E000F3E703C063C703E0F0032DE
:1005F0007B49493F7E007F7E0303001E3F69696F90
:100600002600000000000000000000030F1F3F3C18
:100610007870600000007F4141417F007F4141418F
:100620007F00307B7F7830202030787F3B000300D4
:100630000F7F0F0F0F7F0F0003000000000000006E
:1006400000000000000000000000000000000000AA
:100650000000010101070F0F7F0F7F0F0F7E0F0FAB
:100660007F0F7F0F0F070101010000000000000055
:100670000000000101000000000000000000000078
:10068000000000000000000000000000000000006A
:10069000000000000000000000000000000000005A
:1006A000000000000000000000000000000000004A
:1006B000000000000000000000000000000000003A
:1006C000000000000000000000000000000000002A
:1006D000000000000000000000000000000000001A
:1006E000000000000000000000000000000000000A
:1006F00000000000000000000000000000000000FA
:1007000000000000000000000000000009025B0083
:10071000030100A0FA0904000001030101000921FE
:1007200011010001224400070581030800010904AA
:100730000100020300000009211101000122220032
:1007400007058203200001070503032000010904B7
:100750000200010300000009211101000122B6007E
:100760000705840320000112010002000000083286
:10077000FC87020100010200010C0353006F0066B8
:10078000006C00650000001A034A006F00730065EA
:100790000066004100640061006D00630069006B49
:1007A0000000000403090429001E001F002000218E
:1007B0000022002B0014001A00080015001700E3A7
:1007C0000004001600070009000A00E1001D001BDC
:1007D00000060019000500E000E200215222522C20
:1007E00000A8002A00270026002500240023002F4F
:1007F00000130012000C0018001C00340033000F1E
:10080000000E000D000B00E5003800370036001028
:10081000001100E400E600215222522800000029C5
:1008200000A800AA00A900000000002B004B004A0D
:100830000052004D000000E3004E00500051004FF8
:10084000000000E100597CD100D300D20066000115
:1008500000010001000100010001004C002E0061B8
:100860000060005F005400300026025E005D005C06
:10087000005500E70027025B005A0059005600E5CA
:100880000031008500630062005700010001000193
:100890000001000100010035003A003B003C003D32
:1008A000003E002B004900D100CD00D200D900E36A
:1008B000004600CF00CE00D000DA00E1000000DBEF
:1008C00000D300DC00000001000100010001000174
:1008D0000001002D0043004200410040003F003075
:1008E0000044004D0052004A004B00E70045004F15
:1008F00000510050004E00E5003100D200D300D17D
:10090000000000010001000100010001000100DC05
:1009100000DB00D900DA00A900AA004B004E00233A
:10092000782478257826780A0A00466E0A004E75E3
:100930006D0A00426173650A000A0A004D6F640A7D
:100940000051777274000A0A0000010101010101DF
:100950000101010202020202020202020303030376
:100960000303030304040404040404050505050546
:100970000606060606070707070708080808090904
:1009800009090A0A0A0B0B0B0C0C0C0D0D0D0E0EAF
:100990000E0F0F0F10101111111212131314141542
:1009A0001516161717181819191A1A1B1B1C1D1DB6
:1009B0001E1E1F202021222223242425262627280C
:1009C00029292A2B2C2D2D2E2F303132323334353C
:1009D000363738393A3B3C3D3E3F4041424344453F
:1009E000464748494A4C4D4E4F505153545556581E
:1009F000595A5B5D5E5F616264656668696B6C6DC8
:100A00006F7072737577787A7B7D7E80828385873D
:100A1000888A8C8E8F91939596989A9C9EA0A2A37B
:100A2000A5A7A9ABADAFB1B3B5B7BABCBEC0C2C480
:100A3000C6C9CBCDCFD1D4D6D8DBDDDFE2E4E7E940
:100A4000EBEEF0F3F5F8FAFDFF00DA0281FFD9F1E1
:100A5000DB20A4A62EAF00A0C0D30000A1C8D30005
:100A600000AED580A81F408D1420000000000000BB
:100A70000000000000000000000000000000000076
:100A80000000000000000000000000000000007EE8
:100A90000F00D4FFFFFFC700000078000000000037
:100AA0000000002A2B2800000000000000000000C9
:100AB00000000000000029000000002C1E3420214E
:100AC0002224342627252E362D3738271E1F202195
:100AD00022232425263333362E37381F04050607F4
:100AE00008090A0B0C0D0E0F10111213141516170E
:100AF00018191A1B1C1D2F3130232D35040506072C
:100B000008090A0B0C0D0E0F1011121314151617ED
:100B100018191A1B1C1D2F3130354C0011241FBE13
:100B2000CFEFDAE0DEBFCDBF12E0A0E0B1E0EEEB48
:100B3000FCE602C005900D92AC3DB107D9F727E065
:100B4000ACEDB2E001C01D92A638B207E1F70E94F9
:100B5000362A0C94E2350C940000982F82958F7001
:100B6000882311F0982F84E0292F2695269522239B
:100B700011F08E5F922F969591118F5F089580935B
:100B80003F07089580934007089521E030E001C0B9
:100B9000220F8A95EAF780914007822B0E94C205B6
:100BA000089521E030E0A90102C0440F551F8A9545
:100BB000E2F7CA0180959091400789230E94C205FF
:100BC00008959B01677091E001C0990F6A95EAF75B
:100BD00063E0369527956A95E1F7B901660F771FAF
:100BE000260F371FFA01E20FF31F40E050E0682F95
:100BF00070E08191DF0111979B01042E02C03695B0
:100C000027950A94E2F72170219528272923282780
:100C10002C934F5F5F4F4330510559F708959C0166
:100C2000A82FA77083E0369527958A95E1F7C9012B
:100C3000880F991F820F931FFB01E80FF91F40E0F7
:100C400050E080E0219130E00A2E02C036952795D1
:100C50000A94E2F721703327042E01C0220F0A9470
:100C6000EAF7822B4F5F5F4F4330510559F70895E4
:100C7000282F862F9A3070F4263058F4622F70E0B7
:100C800026E0929F600D711D112440EF56E00E94F6
:100C9000E10508959C5F9230E0F7622F70E04DEE21
:100CA00056E0F5CF292F9A3068F4863090F490E022
:100CB00060EF76E036E0239F800D911D11240E94A5
:100CC0000F0608952C5F223020F46DEE76E090E060
:100CD000F6CF80E008959091400721E030E0F901DF
:100CE00001C0EE0F8A95EAF7D90102C0AA0FBB1F17
:100CF0006A95E2F7EA2B01C0220F4A95EAF7892F9D
:100D00008E23E81305C0892F822B0E94C205089507
:100D10002095822F8923F9CF80914607909145072E
:100D2000981301C008958F5F8770FACF90914107A3
:100D30008095892380934107282F277021110DC0AA
:100D4000891759F09091430792FF07C086958695C1
:100D500086950E94D10510924107089580913C0725
:100D600090914407892B50913D075523C1F09091F4
:100D700059019923A9F09091420797FF11C09DE175
:100D800028EE32E040E0F90160812F5F3F4F6111B2
:100D90004F5F9150C0F7411110923D07852B089588
:100DA00095E020EE32E0EECF982F909580913C07B1
:100DB000892380933C070895803E9105D1F1C8F4C2
:100DC0008133910509F47FC048F48932910509F413
:100DD0006FC08A32910509F47DC008958933910569
:100DE000E1F082389105C9F08533910509F45BC0C3
:100DF0000895843E9105D1F148F4823E910531F188
:100E0000833E910541F181EE90E00895863E910583
:100E1000C1F1873E9105E1F10895209142072370C9
:100E2000211165C02091430723FF14C089E290E09F
:100E300008952091420720FD43C03091430730FFC1
:100E400009C024FF4EC080E090E008952091420741
:100E500022FDF7CF08952091420722FD45C0309131
:100E6000430730FD44C024FFF5CFEDCF2091430769
:100E700021FFF0CF8091420784FDE5CF87EE90E01F
:100E800008952091420723FFE5CF24FDDCCFF6CF64
:100E90002091420723FD2EC03091430731FFE3CF5D
:100EA00084EE90E008952091420725FFD3CFBECF76
:100EB0002091420725FD21C02091430723FFCACF7F
:100EC00089E390E008952091420726FFC3CF8AE28C
:100ED00090E008952091420726FFBCCF81E390E087
:100EE000089583EE90E0089582EE90E0089580EEFC
:100EF00090E0089586EE90E0089585E390E0AACF13
:100F00009091420792FF10C041E0282F24712430B5
:100F100009F040E031E0282F2871283009F030E056
:100F2000431711F02CE0822793FF10C041E0282FD7
:100F30002471243109F040E031E0282F2871283154
:100F400009F030E0431711F02CE08227309143077D
:100F500030FF10C051E0282F2171213009F050E0FE
:100F600041E0282F2871283009F040E0541711F093
:100F700029E0822731FF10C041E0282F2171213163
:100F800009F040E031E0282F2871283109F030E0E5
:100F9000431711F029E0822794FD877E08951F935F
:100FA000CF93DF930E94DC06EC01811522E59207C6
:100FB00008F053C0811540E5940708F0DDC0803E7D
:100FC0009105F8F48D3C910508F0AEC0883A910582
:100FD00080F4853A910508F099C08130910521F09F
:100FE0000497813A910550F4CE01DF91CF911F9182
:100FF0000895885A91094B9708F48BC0C0E0D0E05F
:10100000F3CF811550E49507F8F4C11580E2D807B5
:1010100008F0CBC0C83ED10538F3CE019A958115B2
:101020009F4160F78D2F0E948007182FCE019927CE
:101030000E94DC06212F30E0322F2227E901CC2745
:10104000DF71C82BD92BD0CF99270E94DC06CC2783
:10105000DF70C82BD92BD06AC7CF803842E5940700
:10106000C8F5803652E5950708F067C0C03482E5C0
:10107000D807B0F08C2F86958695877020E2829FE6
:10108000C0011124C37021E030E0A90102C0440F67
:10109000551FCA95E2F7EA01C82BD92BDC68A4CF0B
:1010A000C03252E5D50708F041C08C2F8695869551
:1010B00020E2829FC0011124C37021E030E0A90129
:1010C00002C0440F551FCA95E2F7EA01C82BD92B7D
:1010D000DD688ACF803C52E5950760F48F71C03A95
:1010E000D24508F03FC090E0982F8827EC01C46FEC
:1010F000D06A7ACF805C9245809708F07FCFDC2F52
:10110000CC27CC27DF71C06FD06A6ECFA497D06494
:101110006BCFC85AD0E0CC0FDD1FCA55DD4F099008
:10112000D881C02DD46460CFD0655ECFCF71D0E0C0
:10113000DC2FCC27C16FD06A57CF869586958770F4
:1011400020E2829FC0011124C37021E030E0A90198
:1011500002C0440F551FCA95E2F7EA01C82BD92BEC
:10116000DA6842CF0E948007C82FD0E0DC2FCC275E
:10117000CC27DF71D06238CF8F710E94800765E085
:10118000D695C7956A95E1F7CF70D0E0DC2FCC27D4
:10119000282F30E084FF05C054E0220F331F5A95FA
:1011A000E1F7C22BD32BD0691FCF8D2F8F710E94F7
:1011B0008007182FCE0199270E94DC06212F30E0EE
:1011C000322F222722273F71282B392BE901D2CF3A
:1011D00080E00895F894E82FE295EF70F0E041A1E7
:1011E0008F7021E030E0B90102C0660F771F8A9549
:1011F000E2F7CB01962F9095942391A392A1892B8E
:1012000082A37894089581E0809387060895909151
:101210004504982B909345040895FF920F931F93D4
:10122000CF93DF93182F062FF42EC0E0D0E02F2DA0
:10123000402F612FCE010E94F60A2196C834D105B5
:10124000B1F7CDB7DEB7E5E00C9414359FE0899F88
:10125000802D1124980F993408F098E42091BC0651
:10126000211104C0843228F484E20895953208F0F4
:1012700094E20895A0E0B0E0E0E4F9E00C94F234E8
:10128000C82F80910B0191E08C130CC02091340782
:10129000237030E040910A0150E091E024173507B7
:1012A00009F490E091709093090180913907909131
:1012B0000801981739F08093080140E060E080E071
:1012C0000E940D09CC2341F0A0900701C130E1F04C
:1012D000A394A09207013EC080910901882309F4DC
:1012E000CCC040E060E080E00E940D0980910701E1
:1012F0008F5F8093070182E080935A0180910901FA
:1013000081112BC083E027C08A2D0E942609982EC8
:10131000092F20913607E0913707F0E0E75BF64FA1
:10132000211120C0E491CE2F1E2FDE2FE92CF12CAD
:10133000E01608F48CC08091BC06882309F49AC09A
:1013400081E0043208F080E091E09A0D909307016B
:10135000811103C082E080935A01CDB7DEB7EBE084
:101360000C940E35C0903507D12C30E0B490CB2DC5
:1013700086E08C9D70018D9DF00C1124EFEFF0E064
:10138000C701BF010E94D734CC0CDD1C45E5469F48
:10139000C001479F900D1124C81AD90A8C2D880FBF
:1013A0008C0DDF01A21BB30BBA9EA001BB9E500D9A
:1013B0001124152F829FD001839FB00D1124AB2FD4
:1013C000BB276F01CA1ADB0AD601BA9E6001BB9E19
:1013D000D00C1124DD2DDF01A81BB109CD01829FA6
:1013E000D001839FB00D929FB00D1124AB2FBB276E
:1013F000CF018A1B9B0BDC01BA9EC001BB9E900DE6
:10140000112463307105C9F0ACEFEA16A3E0FA06C7
:1014100050F46130710509F489CF6230710589F0AB
:10142000DC2FC92F83CF6430710571F066307105F0
:10143000B9F3C52F1D2DDB2D79CFCD2DD52F1B2D2C
:1014400075CFD52F192F72CFD92FC52FF8CFF70110
:10145000EF5BFD4F8081909108018923882331F053
:10146000212F4C2F6D2FC7010E94F60ABFEFEB1AF8
:10147000FB0A5ECF81E0073465CF809107018F5F63
:10148000809307013FCFCF93C82F882391F080919D
:101490007E0681110EC00E943A0910920B018091C4
:1014A0003407837080930A010E94B20E83E0809318
:1014B0005A01C0937E06CF910895862F90913407EC
:1014C0009370992339F094609093340710925A01E5
:1014D0000E940709089561E081E00E945D0A089575
:1014E00090913407969596958FEF890F913009F476
:1014F00081E061E00E945D0A0895982F822F20917B
:1015000034072370222341F0909335076093360708
:10151000409337070E9407090895E4E3F7E08181CB
:1015200090E021E04381628108960E947D0A08953F
:10153000E4E3F7E0818121E0438162818850990BE7
:101540000E947D0A0895E4E3F7E0628120E1620FE2
:1015500008F46FEF818121E0438190E00E947D0AD1
:101560000895E4E3F7E0628120E1621B08F460E0A3
:10157000818121E0438190E00E947D0A0895E4E3A7
:10158000F7E0438120E1420F08F44FEF818121E031
:10159000628190E00E947D0A0895E4E3F7E04381D0
:1015A00020E1421B08F440E0818121E0628190E06B
:1015B0000E947D0A0895E4E3F7E0248130E1230FDF
:1015C00008F42FEF248381E00E9407090895E4E3E3
:1015D000F7E0248130E1231B08F420E0248381E03C
:1015E0000E9407090895109230040895FC0180912B
:1015F000BC06811123C0E432F1051CF1B497CF0180
:10160000880F991FDC01AE0FBF1FA85ABC4F11965F
:101610003C911197361307C03C91341304C01296C5
:101620003C91321771F031E030933004E80FF91F2C
:10163000E85AFC4F61834083228303C0E432F10502
:10164000F4F20895FA01882311F009950895FB0139
:10165000FCCF90916206292F30E0E0916306F0E024
:10166000A9014F5F5F4F43705527E417F50789F0D5
:10167000205A394F60FB87F9F90184839F5F93708B
:1016800090936206809160068F5F8093600681E090
:10169000089580E0089590E06623E9F0845F9E4F0E
:1016A000FC0180818F3FB1F0E82FE295EF70F0E010
:1016B00041A18F7021E030E0B90102C0660F771FB1
:1016C0008A95E2F7CB01962F9095942391A392A14E
:1016D000892B82A30895835F9E4FE2CF90E066231B
:1016E000A9F0845F9E4FFC0120812F3F91F0E22FF3
:1016F000E295EF70E05EF0E0808190E02F7002C034
:10170000959587952A95E2F781700895835F9E4F9E
:10171000EACF80E00895FC01680F791F8FEF91E315
:10172000E617F70709F408952191822728E030E0B1
:1017300087FF08C0880F89272150310921153105FD
:10174000B9F7EECF880FF8CF282F35EB2303C00170
:10175000112497FF04C080589109892F089580585B
:101760009F4FFBCF80910A0780FD14C081FD14C0FC
:1017700082FD16C080910907882381F08E3180F4A4
:1017800020E5829FC00111246EE170E00E942E3599
:10179000862F089584E1089588E2089588E00895E9
:1017A00080E5089580910A0780FD17C081FD17C06C
:1017B00082FD19C080910807882399F0883298F437
:1017C00028E0829FC001112468E270E00E942E355B
:1017D0006115710551F0862F089562E0FCCF64E039
:1017E000FACF61E0F8CF68E0F6CF81E0089580910C
:1017F000BB06882359F0E091E306F091E4063097A8
:1018000029F00190F081E02D0995089580E0089578
:10181000A3E0B0E0EEE0FCE00C94FB349C0180918E
:1018200034039091350382179307A1F03093350369
:1018300020933403E091E306F091E406309751F0F1
:1018400083E089833B832A830084F185E02DCE01E8
:10185000019609952396E2E00C941735A3E0B0E0D9
:10186000E4E3FCE00C94FB349C0180913203909102
:10187000330382179307A1F030933303209332038D
:10188000E091E306F091E406309751F084E089831B
:101890003B832A830084F185E02DCE0101960995D2
:1018A0002396E2E00C941735909159019923C1F0E9
:1018B0009091420797FF14C0E82FE695E695E695CC
:1018C000803FF8F4F0E0EA51FD4F877021E030E00E
:1018D00001C0220F8A95EAF78281822B82830895C4
:1018E000A0EEB2E0EFEF90E02D91821751F0EF3FC4
:1018F00019F4211101C0E92F9F5F9630A9F7EF3F3E
:1019000009F408950E2E000CFF0BE252FD4FE6CFB6
:10191000909159019923E1F09091420797FF18C0E7
:10192000E82FE695E695E695803FF0F4F0E0EA5181
:10193000FD4F877021E030E0A90102C0440F551F20
:101940008A95E2F7CA01809592818923828308955E
:10195000E0EEF2E09191891303C0DF0111971C9230
:1019600052E0E63EF507B1F70895A4E0B0E0EBEBF6
:10197000FCE00C94FB348FB7F89420912E03309147
:101980002F03409130035091310329833A834B83D5
:101990005C838FBF69817A818B819C812496E2E090
:1019A0000C941735A4E0B0E0E8EDFCE00C94FB34B7
:1019B0008091BB06882371F00E94B50C69837A83FD
:1019C0008B839C8369817A818B819C812496E2E060
:1019D0000C9417350E94B50C69837A838B839C83A2
:1019E0008091BD069091BE06A091BF06B091C00641
:1019F00029813A814B815C81280F391F4A1F5B1F67
:101A000029833A834B835C83DDCFA4E0B0E0EBE035
:101A1000FDE00C94F934462F572FBC012FB7F894F2
:101A200080912E0390912F03A0913003B091310348
:101A30002FBF8C019D01041B150B260B370BC90111
:101A4000B8012496E4E00C94153587E797E7909366
:101A500001088093000888E19AE00FB6F894A895F1
:101A6000809360000FBE90936000FFCF80912D03A4
:101A70000895FC019B018091230390912403861714
:101A8000970740F0672B29F48091E8008E778093C8
:101A9000E800C90140E0009741F4411106C080917F
:101AA000E80082FF2FC080E0089520917D06222368
:101AB000A9F12530A9F12091E80023FD2DC0209146
:101AC000E80022FDECCF2091E80020FFE4CF309128
:101AD000F3002091F200009719F02830310558F0FA
:101AE00041E02830310509F040E02091E8002E77F0
:101AF0002093E800D0CF41914093F10001972F5FF0
:101B00003F4FE9CF80917D06882341F0853041F039
:101B10008091E80083FFC3CF81E0089582E00895BB
:101B200083E0089580911D0387FF13C08091E80032
:101B300082FF06C08091E8008B778093E80004C0A4
:101B400080917D068111F2CF089580917D068823D2
:101B5000D9F38091E80080FFF8CF8091E8008E777C
:101B6000ECCF2091E4003091E50095E6A901809149
:101B7000EC008170882331F08091E80080FF06C07E
:101B800080E008952091E80022FD1BC080917D0631
:101B9000882391F0853091F08091EB0085FD10C095
:101BA0002091E4003091E5004217530701F3915072
:101BB0009111DCCF84E0089582E0089583E00895D8
:101BC00081E00895E8EDF0E080818E7F80831092BF
:101BD000E2001092DA001092E100A0EEB0E08C91E9
:101BE00081608C9380818F77808319BCA7EDB0E0F2
:101BF0008C918E7F8C9380818F7E808310921C03CA
:101C00000895982FE42FE2709093E900891308C09B
:101C1000762F242F50E0E11111C091E0980FF4CFFE
:101C20007091EC002091ED005091F00021FD06C074
:101C30009F5F973049F78093E90008953091EB005A
:101C40003E7F3093EB003091ED003D7F3093ED000F
:101C50003091EB0031603093EB007093EC002093F7
:101C6000ED005093F0002091EE0027FDE1CF0895A4
:101C7000A0E0B0E0EEE3FEE00C94F534C8EDD0E077
:101C800088818F7E8883E7EDF0E0808181608083AA
:101C900084E082BF81E080931C0388818E7F8883EB
:101CA00002EE10E0F80110821092DA0081EEC82EE8
:101CB000D12CF601108288818F7788838881806893
:101CC000888388818F7D888319BC10927D0610924D
:101CD0001B031092540610921A0390EEE92EF12C79
:101CE000F70180818B7F808388818160888342E0D7
:101CF00060E080E00E94010EF60180818E7F80838B
:101D0000F801808181608083808188608083F70111
:101D100080818E7F8083888180618883CDB7DEB7A4
:101D2000E8E00C941135E09146079091450727E0D3
:101D3000E91302C080E00895AE2FB0E02E9FF001BD
:101D40001124E95BF84F3181361306C03081381316
:101D500003C03581341304C0FD013196E770E8CF2C
:101D600081E0089580913004882341F1539A3BB17A
:101D7000377F2BB128604FB7F89488E593E0FC01DA
:101D80000196508168E02BB9000000C057FF3BB9B5
:101D9000550F000000C000C000C03BB900C06A95EC
:101DA00091F754E08033950751F74FBF8FE594E0EA
:101DB0000197F1F700C000001092300408950F93CE
:101DC0001F93CF93DF93EB018A0190917D069430AE
:101DD00079F58093E9008FEF9091E80095FD07C0B9
:101DE00095ED9A95F1F7000081508111F5CF809122
:101DF000E80085FF1DC00E94B10D811114C08091C3
:101E0000E80085FD06C08091E8008E778093E800A9
:101E1000F2CF88818093F10001501109011511055D
:101E200011F02196ECCF8091E8008E778093E80046
:101E3000DF91CF911F910F910895CF93DF93D82F0A
:101E4000C92F48E050E0682F792F81E00E94DF0E13
:101E500088E0ED2FFC2FA5E2B3E001900D928A956A
:101E6000E1F7DF91CF910895BC0140E250E084E0BA
:101E70000E94DF0E0895BC0146E050E084E00E941D
:101E8000DF0E0895BC0143E050E084E00E94DF0EC5
:101E90000895A0E0B0E0EFE4FFE00C94F334F82EF6
:101EA000E92EB62EA72E8A0180911803CC24C39464
:101EB000D12C8A3018F48AE0C82ED12CC1E0D0E0B1
:101EC0006B2D7A2D8F2D9E2DF8010995811116C04D
:101ED0002196CC16DD0694F0CC9FC001CD9F900DCD
:101EE000900D112420E030E045E34A95F1F7000021
:101EF0002F5F3F4F28173907B9F7E2CFCDB7DEB7CD
:101F0000EAE00C940F359091430792FB222720F9C9
:101F1000281779F080FB92F990934307609142076C
:101F20007091430784E090E00E94DC3582E00E94DB
:101F3000960608951F93CF93DF93962F122F632F4A
:101F40008430D8F49A30C8F44630B8F4C42FD0E0C6
:101F5000CC0FDD1F2CE0929FC00DD11D112498E7FE
:101F6000899FC00DD11D1124CE0189960E94BE35D6
:101F7000612FCE018A960E94BE35DF91CF911F91CD
:101F800008951F93CF93DF93962F122F632F8430E2
:101F9000D0F49230C0F428E0829FE001112424E0C4
:101FA000929FC0011124C80FD91FC75FDD4FCE011A
:101FB000442369F00E94BE3581E090E0612F8C0FD0
:101FC0009D1F0E94BE35DF91CF911F91089502960B
:101FD0000E94BE3583E090E0F1CF8F929F92BF9236
:101FE000CF92DF92EF92FF920F931F93CF93DF93E5
:101FF0000FE019E0E12CF12CC0E04701D0E01AC05D
:1020000021E030E0C33021F0F601859194919C01EC
:102010004B2D6D2F8C2F0E949A0FB39422E0C20E8D
:10202000D11C36E0B312ECCFDF5F86E0880E911C46
:10203000DA3049F0C401880F991F9C012955384FA7
:102040006901B12CDDCFC33089F521E030E041E0FA
:1020500060E083E00E94C10F21E030E040E060E0FA
:1020600083E00E94C10F21E030E041E061E083E0C5
:102070000E94C10F21E030E040E061E08C2F0E941F
:10208000C10FCF5F085F1F4F3CE3E30EF11CC4306C
:1020900009F0B3CFDF91CF911F910F91FF90EF9097
:1020A000DF90CF90BF909F908F900895F801259179
:1020B000349141E060E08C2F0E94C10FF80132960C
:1020C0002591349140E060E08C2F0E94C10FF8010F
:1020D00034962591349141E061E08C2F0E94C10F2C
:1020E000F8013696859194919C01C6CFCF93DF93EA
:1020F000C9E2D2E060E0CE010E94BE352196C11552
:1021000084E0D807B9F7DF91CF910895882381F053
:1021100064E285E290E00E94BE3565E086E290E0F0
:102120000E94BE3563E187E290E00E94BE350895CB
:102130006FEF85E290E00E94BE356FEF86E290E09F
:102140000E94BE356FEFEFCF80E00E94861060E006
:1021500088E290E00E94BE350E94ED0F0E9476104A
:1021600081E00E94861008950F931F93CF93DF9311
:10217000843030F56A3020F5463010F5C42FD0E0B9
:10218000CC0FDD1F2CE0629FC00DD11D112438E75C
:10219000839FC00DD11D1124CE0189960E94A035C8
:1021A000082F10E0102F0027CE018A960E94A0353C
:1021B0009801282BC901DF91CF911F910F910895AC
:1021C00080E090E0F8CF0F931F93CF93DF9384309C
:1021D00078F5623068F528E0829F8001112434E0B0
:1021E000639FB0011124060F171F075F1D4FC80121
:1021F0004423A1F00E94A035C82FD0E0DC2FCC27CB
:1022000081E090E0800F911F0E94A0359E01282B55
:10221000C901DF91CF911F910F91089502960E94FD
:10222000A035C82FD0E0DC2FCC2783E090E0EACFA8
:1022300080E090E0EECF7A3048F4663070F484307D
:1022400060F4462F672F0E94B41008957D3F41F43B
:10225000623018F441E0843050F080E090E008955E
:102260007C3FD9F76230C8F78430B8F740E00E946D
:10227000E3100895A0E0B0E0E0E4F1E10C94F6345E
:102280007C010091400780913F07082BC3E0D0E01C
:1022900010E0C8010C2E02C0959587950A94E2F7CC
:1022A00080FD09C02197A8F7D12C8D2DCDB7DEB7C1
:1022B000E7E00C941235DC2EB7018C2F0E941B1125
:1022C0000E94CF07019771F3F0CF0F931F93CF9325
:1022D000FC01858100811181882391F0662381F0C2
:1022E000C8010E943A11C82F682FC8010E94380601
:1022F000B8018C2F0E941B11CF911F910F9108954F
:10230000C8010E945206C82FF3CFCF93DF93D82F76
:10231000C92F0E943A116D2F7C2F0E941B110E9421
:10232000CF07DF91CF910895FC0184818823A1F02C
:10233000808191810E948511282F92959F709630FF
:1023400091F060F4925F9F70923030F481E0203F12
:1023500079F030F4283E30F080E004C09A5FF3CF8B
:10236000243FD1F7089581E0283E18F0213FF9CFAE
:102370000895089585E290E00E94A035843289F4A2
:1023800086E290E00E94A035853059F487E290E023
:102390000E94A03591E0833109F090E0892F81708F
:1023A000089580E0FCCF80915901882359F18091F4
:1023B000420787FF27C00E94AE068093E70240E2F3
:1023C00050E063EC76E086EE92E00E947A35892B4D
:1023D000C1F080E2E6EEF2E0A3ECB6E001900D92EF
:1023E0008A95E1F7E091E306F091E406309749F031
:1023F00086E08093E6020480F581E02D86EE92E08F
:10240000099508950E94AE068093DE0248E050E0F0
:1024100065EE76E08EED92E00E947A35892B89F3A5
:1024200088E0EEEDF2E0A5EEB6E001900D928A951F
:10243000E1F7E091E306F091E406309711F30280B2
:10244000F381E02D8EED92E0DBCF882339F090917F
:102450003C07892B80933C070E94D3110895882361
:1024600021F00E94D4060E94D3110895A0E0B0E0AC
:10247000ECE3F2E10C94F534FA0169017801C82F1C
:10248000880FDD0B3097B1F0DE0193E0AA0FBB1F80
:102490009A95E1F7A75EBE4F11968D919C91129788
:1024A0008656994F4C9150E0E417F50708F4AF01B8
:1024B0000E948735CE010E946234182F8823D1F004
:1024C000E114F104B9F083E0CC0FDD1F8A95E1F748
:1024D000FE01E75EFE4F438150E0E416F50608F486
:1024E000A701C75EDE4F6C817D816656794FC601BC
:1024F0000E948735812FCDB7DEB7E8E00C94113507
:10250000A5E0B0E0E6E8F2E10C94EF34762E6A0143
:102510004901580101E010E09E012F5F3F4F40E06C
:1025200050E060E070E00E943612182F8823B9F165
:10253000D6018D919D910D90BC91A02DBC01CD0136
:102540000E94050D6980643671058105910530F49E
:10255000B701C5010E948B0B861509F18701940113
:1025600040E050E060E070E0872D0E943612182FA6
:10257000B701C5010E948B0B861531F010E0812F49
:102580002596EEE00C940B3511701123C1F30E94D7
:10259000B50CF6016083718382839383F0CFA7012A
:1025A000B501C4010E948735EACFA5E0B0E0EBEDAC
:1025B000F2E10C94F5346B0185E0E82EF12C0BE987
:1025C00016E09E012F5F3F4F46E956E061E080E054
:1025D0000E948012882349F095E0FE013196A1E91E
:1025E000B6E001900D929A95E1F795E0E1E9F6E009
:1025F000D60101900D929A95E1F72596E8E00C94AA
:102600001135AAE0B0E0E7E0F3E10C94F434B82E21
:102610006D837E837A01B9016801A801C7010E9418
:102620007A358C01AD81BE818D919D910D90BC91CB
:10263000A02DBC01CD010E94050D643671058105F8
:10264000910518F40115110599F000E010E020E063
:1026500030E0A601B7018B2D0E943612882349F085
:102660000E94B50CED81FE81608371838283938328
:1026700081E02A96E9E00C9410350F931F93AC018A
:1026800005E010E020EA36E06DE876E082E00E94A6
:1026900001131F910F910895A9E0B0E0E2E5F3E185
:1026A0000C94F93488E0E4E3F7E0DE011196019040
:1026B0000D928A95E1F780917E06898709E010E006
:1026C00022EB36E0AE014F5F5F4F6FE776E087E0C9
:1026D0000E9401132996E4E00C941535A8E0B0E0BF
:1026E000E4E7F3E10C94F73488E0E82EF12C06EAF5
:1026F00016E09E012F5F3F4F49E856E064E083E01B
:102700000E948012182F8823C1F19091A506809114
:102710008806981791F1F12C9091A9068091A8064E
:10272000891729F1E92FF0E0E256F94F848587FBFC
:10273000662760F99F5F93709093A9069091A70612
:102740009F5F9093A7068F770E94290BF82E811127
:10275000E3CF00E010E020E030E040E050E060E057
:1027600070E085E00E9436121F2D182302C0F11080
:10277000F0CF8091A50680938806812F2896E6E009
:102780000C941335A8E0B0E0E8ECF3E10C94F934D4
:102790008091830690918406A0918506B09186066B
:1027A000BC01CD010E94050D11E064367105810563
:1027B000910520F10E94D20CDC01CB010296A11DF3
:1027C000B11D89839A83AB83BC8300E010E020E0D5
:1027D00030E044E050E0BE016F5F7F4F86E00E9432
:1027E0003612182F882351F00E94B50C609383068F
:1027F000709384068093850690938606812F289691
:10280000E4E00C94153548E050E068E170E084E3C2
:1028100097E00E94AE35109245040895A8E0B0E01C
:10282000E4E1F4E10C94FB340E94D20C282F609375
:102830003104709332048093330490933404809174
:102840007E0681111EC030913407832F8370882348
:1028500019F0832F8695869530915A013230E1F038
:1028600090F4311116C010920701609335047093F3
:102870003604209337049093380481E080935A0102
:1028800004C080E0E9CF333091F02896E2E00C9468
:1028900017350E943A09F9CF80930B0180913407D4
:1028A000837080930A010E94B20E83E0E7CF80918B
:1028B000450481110E9403148091350490913604DF
:1028C000A0913704B091380489839A83AB83BC8389
:1028D0008091BB06882389F069817A818B819C81F4
:1028E0000E94050D462F572FBC014031510561054F
:1028F000710558F210925A01C8CF0E94D20CAB0158
:10290000BC0189819A81AB81BC81481B590B6A0B40
:102910007B0BEBCFAB0124E630E0BC0188E70E94E3
:1029200079329C0181E0232B09F080E008958091A9
:102930004C06882369F080914B06882349F062E0B9
:1029400070E08AEC91E00E948A14811110924B068B
:102950000895A4E0B0E0EFEAF4E10C94FB34809138
:102960004C068823F9F00E94B50CDC01CB01805A9B
:102970009541AF4FBF4F80934D0690934E06A09365
:102980004F06B093500680914B0681110BC062E058
:1029900070E088EC91E00E948A14882319F081E0AD
:1029A00080934B062496E2E00C941735CF93DF9387
:1029B000682F81E06A3019F06D3031F480E00E94B8
:1029C0005615DF91CF910895809148049091490464
:1029D00026E0FC01A2E1B3E001900D922A95E1F717
:1029E000603E08F458C026E0FC0111922A95E9F7F0
:1029F000C0914804D091490446E050E0BE0182E114
:102A000093E00E947A359E012A543440892B41F18B
:102A1000C90145E0969587954A95E1F741E050E078
:102A2000BA0102C0660F771F8A95E2F7CB01609169
:102A3000460470914704862B972BB9016B5F7F4F3B
:102A4000E5E076956795EA95E1F702C0440F551FDA
:102A50006A95E2F7842B952B909347048093460464
:102A60002A5F3F4F40915106642F70E0C9010E94D8
:102A7000D734481B463010F4240F311D211572E065
:102A8000370710F020E030E0265B3B4F30934904DD
:102A90002093480496CFF6E06F9FB0011124645351
:102AA0007E4F46E050E00E947135A2CFCF93382F81
:102AB000E0914804F0914904EA54F4402091510611
:102AC000622F70E0CF010E94D734281B822F33235E
:102AD00061F066E00E942235C82FC15010F4CF91FA
:102AE000089580E20E94D614F8CF9F01280F311D6F
:102AF0002115324018F080E0E0E0F0E08E0F9F2FCB
:102B0000911D865B9B4F9093490480934804E7CFC7
:102B1000CF93DF93EC01FE018491811103C0DF911B
:102B2000CF9108950E94D6142196F5CF1F921FB61B
:102B30001F9211248F939F93AF93BF93809153065D
:102B4000811113C080912E0390912F03A091300327
:102B5000B09131034196A11DB11D80932E03909336
:102B60002F03A0933003B0933103BF91AF919F9196
:102B70008F911F901FBE1F9018952FB7F8948091CA
:102B80002E0390912F03A0913003B09131032FBFFA
:102B900008950E94BD1520910D0730910E07232B3B
:102BA000222321F0809370069093710620910F07E5
:102BB00030911007232B222321F080936E069093EF
:102BC0006F06E091E306F091E406309749F082E069
:102BD00080930B070680F781E02D8BE097E0099545
:102BE000089520910D079091100730910F076623EB
:102BF00009F45AC040910E07242B292B232B2223A2
:102C000031F098E09093090791E0909308078D3C8C
:102C100041F40E94B20B819580930E070E94C91562
:102C20000895E2E3E80FE231C8F7F0E0EC51FA4C26
:102C30000C9442350E94B20BEFCF0E94B20B8195EB
:102C400080930D07EBCF0E94B20BFACF0E94D20BFC
:102C500080930F07E3CF0E94D20B8195F9CF0E949A
:102C6000D20B819580931007D9CF0E94D20BFACF57
:102C7000815D990B21E030E001C0220F8A95EAF7CF
:102C800080910C07822B80930C07C8CF80910A0794
:102C9000816080930A07C2CF80910A078260F9CFD2
:102CA00080910A078460F5CF8D3C59F480910E071E
:102CB00087FF0DC010920E07222359F410920907C6
:102CC00008C08E3C81F480910E0718169CF32223D5
:102CD00081F080910F0790911007892B81119ECF71
:102CE000109208079BCF8F3C41F427FFF0CF109242
:102CF0000D0780910E078823E0CF803D19F412164E
:102D0000B4F3E5CF893D29F413160CF710920F07A1
:102D1000DECF8A3D19F437FFDACFF8CF8B3D29F4A7
:102D200097FFD5CF10921007D2CF8C3D19F419160A
:102D3000CCF3CDCF9FE2980F983090F4815D990B42
:102D400041E050E0BA0102C0660F771F8A95E2F7B2
:102D5000CB01809590910C07892380930C07B7CF06
:102D60008D3D31F480910A078E7F80930A07AFCFA3
:102D70008E3D21F480910A078D7FF7CF8F3D09F0BA
:102D8000A6CF80910A078B7FF0CFCF93C82F8823DF
:102D9000B1F18CEF8C0F813AA0F580915901882315
:102DA00001F18091420787FF1CC0EC2FE695E69564
:102DB000E695F0E0EA51FD4F828190E04C2F47709C
:102DC00021E030E002C0220F331F4A95E2F7822350
:102DD0009323892B79F08C2F0E94880C0E94D311A9
:102DE00009C0E0EEF2E08191C817A9F322E0E63EC7
:102DF000F207C9F78C2F0E94540C0E94D311CF9177
:102E0000089580E28C0F883068F4C77081E090E00C
:102E100001C0880FCA95EAF7C0913C07C82BC09340
:102E20003C07EBCF8BE58C0F833038F42C2F2452EA
:102E3000330BC9010E94080CE2CFE8E5EC0FEB313F
:102E400050F4F0E0EE0FFF1FEA55FD4F80819181B5
:102E50000E942E0CD4CF83E38C0F833180F661E087
:102E60008C2F0E94F115CBCF882381F19CEF980F16
:102E7000913A28F40E94880C0E94D311089590E2A0
:102E8000980F983050F4877091E001C0990F8A959F
:102E9000EAF7892F0E94D406EFCF9BE5980F933075
:102EA00028F480E090E00E94080C089598E5980FBF
:102EB0009B3128F480E090E00E942E0C089593E36B
:102EC000980F933118F460E00E94F11508951F9354
:102ED000CF93DF93182FEB010E94C516209739F48A
:102EE000812F0E943417DF91CF911F9108958FE9B0
:102EF0009FE00197F1F700C000002197EFCF1092FB
:102F00003C0780915901882339F18091420787FF5E
:102F100023C0E8EEF2E08EE1DF011D928A95E9F729
:102F200080E090E00E94080C80E090E00E942E0C6F
:102F3000109244070E94D31186E0EBE0F7E0DF0136
:102F40001D928A95E9F710920907109208071092CE
:102F50000A070E94C9150895E0EEF2E086E0DCCF92
:102F60000E947F172FEF84E39CE021508040904027
:102F7000E1F700C0000088E19AE00FB6F894A89548
:102F8000809360000FBE90936000FFCFAAE2B0E094
:102F9000ECECF7E10C94FA348DE193E0FC0101963E
:102FA0002091F100208323E085329207B9F78091C8
:102FB0001E03893009F456C0C8F4823009F4B3C046
:102FC000833009F482C0813071F18091E80083FF81
:102FD000E7C080911D0390911E039A3008F0E0C075
:102FE000E92FF0E0EA50FA4C0C9442358A3009F4AB
:102FF00089C08B3051F780911D03813231F7809168
:10300000210390912203892B01F78091E800877FAB
:103010008093E8000E94920D80911F0380935901D4
:103020000E947F17D2CF80911D03813A71F6809163
:10303000E800877F8093E80080912103909122032C
:10304000892B61F060E080E090E070E00E94390D33
:103050008091E8008B778093E800B7CF68E085E245
:1030600093E0F3CF80911D03813209F0AECF8091C0
:103070002103909122038D7F892B09F0A6CF8091A7
:10308000E800877F8093E8008091E80082FF18C005
:103090009091F3008091F200029731F48091F10059
:1030A000813011F0863021F48091F10080932D035E
:1030B0008091E8008B778093E8000E94920D85CF85
:1030C00080917D068111E0CF80CF80911D03813AF0
:1030D00009F07BCF8091210390912203892B09F085
:1030E00074CF8091E800877F8093E8008091E800AA
:1030F00080FFFCCF809159018093F1008091E8001E
:103100008E77D9CF80911D03813209F05ECF8091F7
:10311000E800877F8093E8000E94920D8091200351
:103120008093190352CF80911D03813A09F04DCF4E
:103130008091E800877F8093E8008091E80080FF1D
:10314000FCCF80911903D8CF803889F0823841F5BF
:10315000809121038F70873018F58093E90080916A
:10316000EB0085FB882780F91092E90006C080916A
:103170001A0390915406911182609091E800977F14
:103180009093E8008093F1001092F1008091E800A4
:103190008E7723C0811116C080911F03813011F1F9
:1031A0008091E80083FF0AC08091E800877F8093C8
:1031B000E8008091EB0080628093EB00AA96E3E048
:1031C0000C941635823061F780911F03882389F0B3
:1031D0001092E9008091E800877F8093E8000E94C8
:1031E000920DDECF81E0933009F080E080935406A9
:1031F000EFCF809121038F702FEF280F263080F6BC
:103200008093E9002091EB0020FFE2CF933031F46E
:103210008091EB0080628093EB00DACF9091EB001D
:1032200090619093EB0021E030E0A90102C0440FCF
:10323000551F8A95E2F74093EA001092EA008091C8
:10324000EB008860E8CF8111ABCF10911F031F778F
:103250008091E3008078812B8093E3008091E800E7
:10326000877F8093E8000E94920D8091E80080FFA4
:10327000FCCF8091E30080688093E30083E011112C
:1032800001C082E080937D068BCF8058823008F0A9
:1032900087CF40911F03509120034C3D83E0580796
:1032A00099F583E08A838AE289834FB7F894DE0137
:1032B000139620E03EE051E2E32FF0E050935700F8
:1032C000849120FF03C082958F703F5F8F708A309A
:1032D000C8F0895C90E08D939D932F5F243161F756
:1032E0004FBF8091E800877F8093E8006AE270E03A
:1032F000CE0101960E94390D8091E8008B77809372
:10330000E8004ECF805DE6CF8091210390912203AB
:10331000252F33272330310509F44AC078F52130B1
:10332000310509F479C08BE590E0ECE0F7E022305C
:10333000310509F035CF2091E800277F2093E80080
:1033400020912303309124038217930708F49C01F2
:1033500040E02115310509F064C0411162C080913F
:10336000E80082FDC9CF80917D06882329F285304F
:1033700019F28091E80083FFF2CFBECF21323105F0
:1033800009F43BC02232310509F00ACF83309105A0
:1033900008F006CFFC01EE0FFF1FEF59FE4F019022
:1033A000F081E02D825A9E4FDC018C9190E011C09B
:1033B000CA019927413089F082309105B1F0892BFB
:1033C00009F0EECEE3EAF7E0E4918E2F90E0E3EA35
:1033D000F7E0009709F4E4CEAECFE7E8F7E0E49138
:1033E0008E2F90E0E7E8F7E0F4CFE9E7F7E0E4912B
:1033F0008E2F90E0E9E7F7E0ECCF8330910508F0FD
:10340000CFCEFC01EE0FFF1FE959FE4F0190F08176
:10341000E02D89E090E08FCF82E190E0E7E6F7E0F1
:103420008ACF80917D06882309F466CF853009F420
:1034300063CF8091E80083FD5FCF8091E80082FD3B
:103440008ECF8091E80080FF84CF9091F30080912F
:10345000F2002115310519F08830910550F041E056
:10346000089709F040E08091E8008E778093E800AB
:1034700070CF44914093F10031962150310901966B
:10348000E8CF803809F08CCE8091E800877F809368
:10349000E80080911B038093F10078CE811180CEEB
:1034A00010911F03123008F07BCE8091E800877FD7
:1034B0008093E80010931B030E94920D1123D1F01A
:1034C00084E080937D0642E061EC81E00E94010E81
:1034D00042E261EC84E00E94010E42E261EC82E093
:1034E0000E94010E42E260EC83E00E94010E809196
:1034F0007D0656CE8091E30087FDE2CF81E0E1CFEB
:103500009C014FB7F89480912E0390912F03A091C6
:103510003003B09131034FBF821B930B08952F925C
:103520003F925F926F927F928F929F92AF92BF92E3
:10353000CF92DF92EF92FF920F931F93CF93DF937F
:1035400000D000D000D0CDB7DEB780914C068823E4
:1035500009F47FC080915603909157030E94801A0E
:10356000C297C8F10E94BD159093570380935603EC
:103570008AE494E090934904809348048091BB06C8
:10358000882349F186E499E00E94881580914007DC
:103590000E94AD05811175C081E499E00E948815F3
:1035A00081E00E94561589E399E00E948815809178
:1035B00040070E94AD05813009F468C0823009F4EB
:1035C00068C0811104C083E399E00E94881587E2F6
:1035D00099E00E9488158091460490914704892BB8
:1035E000A9F080914C06882389F080914A068111C8
:1035F0000DC00E94A914209146043091470480E038
:1036000061E070E02115310509F047C080914B065B
:103610008823F9F00E94B50C69837A838B839C839D
:1036200080914D0690914E06A0914F06B0915006A4
:1036300029813A814B815C81281B390B4A0B5B0B3A
:10364000DA01C9018F3F9F4FAF4FBF4710F40E946F
:1036500097140F900F900F900F900F900F90DF9195
:10366000CF911F910F91FF90EF90DF90CF90BF907F
:10367000AF909F908F907F906F905F903F902F9032
:1036800008958CE399E00E9488158DCF8EE299E031
:103690009CCF8AE299E099CF8F5F082F10E01B0141
:1036A000082E02C0220C331C0A94E2F7A101422327
:1036B0005323452B89F39091520690FD44C0980105
:1036C0003695279536952795922F8295880F807687
:1036D0003FE1380F809302012093050130930301ED
:1036E0009093060124E630E047E050E060E071E0AE
:1036F00088E70E942E32892B09F088CFA80125E0A7
:10370000440F551F2A95E1F78091520680FD23C092
:10371000465B5B4F04E610E020E230E060E488E7BF
:103720000E94C632892B09F071CF91012095309506
:10373000809146049091470428233923309347040D
:103740002093460463CF880F880F880F37E0380F27
:1037500020E093E0BFCFE6E3F3E080E2DF011D92DB
:103760008A95E9F7E1E7F1E0FE83ED830DE611E0EC
:1037700085E7C82E81E0D82E97E0592E77247394E0
:10378000AD81BE818D91BE83AD83F80121918F0102
:10379000240F352F311D265B3B4FE82FF0E0EA5C0C
:1037A000FC4F80E090E0652C681A872C082E01C041
:1037B000880C0A94EAF77901A12CD701BD907D010C
:1037C000B820662D6A19677070E0BB2D062E01C007
:1037D000BB0F0A94EAF79B2E71956195710967708A
:1037E000772701C0B6946A95EAF79B286081962AEC
:1037F0009082A39468E0A612E0CF019631968830BB
:10380000910589F68D819E81C816D90609F0B8CF39
:1038100004E610E020E230E046E353E07FCF0F9370
:103820001F93CF93DF93C62FD42F122F8823A9F095
:10383000609332070E94BD1590931103809310038B
:10384000C77081E001C0880FCA95EAF70E9425126F
:10385000DF91CF911F910F910895809132076813E6
:1038600036C080911003909111030E94801A883C09
:10387000910568F5CD130EC06AE070E0812F0E94BB
:103880006717D77081E001C0880FDA95EAF70E94C8
:103890002F12DECFC77001E0802F01C0880FCA95BC
:1038A000EAF70E942F1280E28D0F883050F48D2F9E
:1038B000877001C0000F8A95EAF7802F0E942512B9
:1038C000DBCF6AE070E0812F0E946717C1CFC7701D
:1038D00081E001C0880FCA95EAF7D9CFA1E1B0E035
:1038E000E4E7FCE10C94EB348A879B87AA85BB85CF
:1038F00014968C911497882309F41FC161E0CD01BF
:103900000E9465114C01EA85FB85A581815A92458B
:103910004F9708F07BC08401F0EA0F27F2E51F27DC
:10392000AA2309F49EC380913107882309F4E7C1D3
:1039300010923107480121E030E040E050E060E0C3
:1039400070E080E090E0082D0E944F35E091110773
:103950002E2BE09112073E2BE09113074E2BE091A6
:1039600014075E2BE09115076E2BE09116077E2B56
:10397000E09117078E2BE0911807E92B2093110790
:103980003093120740931307509314076093150761
:103990007093160780931707E0931807AA2309F47A
:1039A0006EC61092320781E037E783163CE7930634
:1039B00009F4CBC688E788168CE7980609F4C4C6D4
:1039C000BAE58B16BCE79B0609F4E4C608F0C5C649
:1039D000F1E08F16FCE79F0609F4DAC623E08216B1
:1039E0002CE7920609F4CEC681143CE7930609F051
:1039F00053C60E947F17AFEFB4E3ECE0A150B04094
:103A0000E040E1F700C000000E94250DAA2309F460
:103A10001DC32FEF8216910409F008F492C039E516
:103A200083163CE7930609F470C010923107C40175
:103A300097578038910508F03AC3182D103108F0D7
:103A40006AC08FEF93E00E94A035811164C029E223
:103A5000E22E22E0F22E1111D0C31A821982FE0149
:103A6000339686E0DF011D928A95E9F76701BFEF83
:103A7000CB1ADB0AC7010E94A03589831A828823EA
:103A800009F449C0813009F0EBC387010E5F1F4F75
:103A9000C6010E94A0358A838823E9F19FEF980F21
:103AA000933008F0B9C3E3E0EE0EF11CC8010E94A8
:103AB000A0358B83882379F11C828E010F5F1F4F05
:103AC000D8018C91882391F2813009F00CC41196B1
:103AD0008C911197813009F0C5C36801B2E0CB0E1B
:103AE000D11CF80182816AE070E0893311F460E54D
:103AF00070E00E9467178601EFE3FCE93197F1F768
:103B000000C000000F5F1F4FDBCF8091310791E0B5
:103B1000892780933107809141078770882369F056
:103B2000AA85BB8515968C91882339F0809143072F
:103B300082FF03C082E00E9496066196E2E10C9447
:103B4000073580913107882309F4D3C010923107DB
:103B500080EC8816910408F456C021E030E040E083
:103B600050E060E070E080E090E08401005C1109CA
:103B70000E944F35E09129072E2BE0912A073E2B1A
:103B8000E0912B074E2BE0912C075E2BE0912D0747
:103B90006E2BE0912E077E2BE0912F078E2BE0916C
:103BA0003007E92B2093290730932A0740932B07EE
:103BB00050932C0760932D0770932E0780932F0747
:103BC000E0933007AA2309F4AEC210923207C40171
:103BD0009057839708F42DC426E182162CE79206AD
:103BE00009F0E1CE80913C078A7A91E0811101C011
:103BF00090E0909333078111EBC489E20E94540C4A
:103C00000E94D31188CF90E889169104E0F58401D1
:103C1000005411090034110508F08DCE21E030E088
:103C200040E050E060E070E080E090E00E944F35BE
:103C3000E09119072E2BE0911A073E2BE0911B070C
:103C40004E2BE0911C075E2BE0911D076E2BE0913F
:103C50001E077E2BE0911F078E2BE0912007E92B9A
:103C60002093190730931A0740931B0750931C07A2
:103C700060931D0770931E0780931F07E093200732
:103C80001092320797CE21E030E040E050E060E053
:103C900070E080E090E08401005811090E944F35E7
:103CA000E09121072E2BE09122073E2BE091230784
:103CB0004E2BE09124075E2BE09125076E2BE091BF
:103CC00026077E2BE09127078E2BE0912807E92B12
:103CD0002093210730932207409323075093240712
:103CE000609325077093260780932707E0932807A2
:103CF000C7CFB0E48B16910408F066C08401209011
:103D00001107E0911207E987F0911307FC87B09142
:103D10001407BD87E0911507EE87F0911607FF871E
:103D2000B0911707B88BE0911807E98B21E030E0DC
:103D300040E050E060E070E080E090E00E944F35AD
:103D4000322E432E542E652E762EB72FF82FE92FC4
:103D5000A22CA222B984B322CC84C422DD84D52231
:103D6000EE84E622FF84F7220889082319891923A3
:103D70000E94683509F037C23094409450946094A2
:103D80007094B095F095E0953220A9854A22AC85D3
:103D90005A22AD856A22AE857A22AF85BA23A889D8
:103DA000FA23A989EA233092110740921207509210
:103DB00013076092140770921507B0931607F093DB
:103DC0001707E0931807A7CEF0E88F16910408F0C4
:103DD00068C020901907B0911A07B987E0911B07B6
:103DE000EC87F0911C07FD87B0911D07BE87E0911D
:103DF0001E07EF87F0911F07F88BB0912007B98B52
:103E000021E030E040E050E060E070E080E090E0F1
:103E10008401005411090E944F35322E432E542E36
:103E2000652E762EB72FF82FE92FA22CA222B98467
:103E3000B322CC84C422DD84D522EE84E622FF8422
:103E4000F72208890823198919230E94683509F087
:103E5000B9CE30944094509460947094B095F0959D
:103E6000E0953220A9854A22AC855A22AD856A2286
:103E7000AE857A22AF85BA23A889FA23A989EA23D5
:103E80003092190740921A0750921B0760921C0744
:103E900070921D07B0931E07F0931F07E093200751
:103EA0003ACEE0EC8E16910408F068C0209021070D
:103EB000F0912207F987B0912307BC87E09124078E
:103EC000ED87F0912507FE87B0912607BF87E09127
:103ED0002707E88BF0912807F98B21E030E040E0DC
:103EE00050E060E070E080E090E08401005811094B
:103EF0000E944F35322E432E542E652E762EB72F2C
:103F0000F82FE92FA22CA222B984B322CC84C42298
:103F1000DD84D522EE84E622FF84F7220889082377
:103F2000198919230E94683509F04CCE30944094C9
:103F3000509460947094B095F095E0953220A985E6
:103F40004A22AC855A22AD856A22AE857A22AF8597
:103F5000BA23A889FA23A989EA233092210740923B
:103F60002207509223076092240770922507B0938E
:103F70002607F0932707E0932807CDCD2090290747
:103F8000B0912A07B987E0912B07EC87F0912C07B5
:103F9000FD87B0912D07BE87E0912E07EF87F09146
:103FA0002F07F88BB0913007B98B21E030E040E06B
:103FB00050E060E070E080E090E08401005C110976
:103FC0000E944F35322E432E542E652E762EB72F5B
:103FD000F82FE92FA22CA222B984B322CC84C422C8
:103FE000DD84D522EE84E622FF84F72208890823A7
:103FF000198919230E94683509F0E4CD3094409462
:10400000509460947094B095F095E0953220A98515
:104010004A22AC855A22AD856A22AE857A22AF85C6
:10402000BA23A889FA23A989EA2330922907409262
:104030002A0750922B0760922C0770922D07B0939D
:104040002E07F0932F07E093300765CDBFEF8B1657
:10405000910411F008F0C9C0E0E48E16910490F5C7
:10406000840121E030E040E050E060E070E080E07A
:1040700090E00E944F35A0901107A222B090120745
:10408000B322C0901307C422D0901407D522E09029
:104090001507E622F0901607F7220091170708236C
:1040A0001091180719230E94683509F434CDF401E2
:1040B000E851FC47E730F10508F084CDE050FA4CB8
:1040C0000C944235F0E88F169104D8F521E030E0E9
:1040D00040E050E060E070E080E090E08401005457
:1040E00011090E944F3559016A017B018C01209111
:1040F00019072A2130911A073B2140911B074C21B7
:1041000050911C075D2160911D076E2170911E0763
:104110007F2180911F0790912007802391230E9487
:10412000683509F4F8CCF6E18F16FCE79F0609F034
:1041300053C28091330781114DC289E20E94880CDD
:104140005FCD20EC8216910440F521E030E040E0A4
:1041500050E060E070E080E090E0840100581109D8
:104160000E944F3559016A017B018C012091210782
:104170002A21309122073B21409123074C21509165
:1041800024075D21609125076E21709126077F210C
:104190008091270790912807C0CF21E030E040E0D0
:1041A00050E060E070E080E090E08401005C110984
:1041B0000E944F35A0902907A222B0902A07B3226F
:1041C000C0902B07C422D0902C07D522E0902D0759
:1041D000E622F0902E07F72200912F070823109176
:1041E000300719239CCFA11122CCF401E851FC47E0
:1041F000E730F10508F097CF61CFE11434E0F30622
:1042000009F489CCC7010E94A035D70111967D0120
:104210008111F3CF11501FCC8430C1F492E0E92E0C
:10422000F12CC8010F5F1F4F0E94A035E1E0F0E0C4
:10423000EC0FFD1FEE0DFF1D8083882309F46BCC6E
:104240008C3731F4FE01EE0DFF1D1282780135CC62
:10425000FFEFEF1AFF0A27E0E216F10411F75BCC3B
:1042600076012BCC823049F46801F2E0CF0ED11CEC
:1042700012968C910E94C5163ECC833049F4680199
:10428000B2E0CB0ED11CF80182810E94341733CCEE
:10429000843019F00F5F1F4F2FCC12962C910E5FB8
:1042A0001F4F80E090E06AE0A8014F5F5F4F20530E
:1042B000330B2A30310558F0009709F41DCCAFE9D3
:1042C000BFE01197F1F700C000000197F5CF689F9C
:1042D000F001699FF00D1124C9018E0F9F1FF80195
:1042E00021818A01E1CFE82FF0E0E556F54F849077
:1042F000282F26952695269530E0F901E557F54FAC
:10430000A4908770982EB12C082E02C0B594A79463
:104310000A94E2F7F1E0AF22BB24F901E558F54F2A
:10432000C490D12C02C0D594C7948A95E2F781E05D
:10433000C822DD24F901E559F54F7490A114B104A8
:1043400009F041C0CD2821F186EE0E94C516AFE3E9
:10435000BCE91197F1F700C000006AE070E0882D19
:104360000E946717EFE3FCE93197F1F700C0000006
:1043700086EE0E9434178FE39CE90197F1F700C0A5
:104380000000A114B10479F081EE0E94341705C039
:104390006AE070E0882D0E946717AFE3BCE91197CF
:1043A000F1F700C00000E72DF0E0092C02C0F59500
:1043B000E7950A94E2F7E0FFA5CB6AE070E08CE2B3
:1043C0000E94671799CB81EE0E94C516EFE3FCE9C6
:1043D0003197F1F700C00000CD2809F0B5CF6AE0B1
:1043E00070E0882D0E9467178FE39CE90197F1F731
:1043F00000C00000C9CF26E241EE61EE8A2F0E9484
:104400000F1C89CB27E245EE65EEF8CF26E241EEA0
:1044100060EEF4CF27E245EE64EEF0CF26E241EE07
:1044200062EEECCF27E245EE66EEE8CF28E241E00F
:10443000EBCF84E090E00E94A835909343078093EF
:104440004207F401E150F047E232F10520F4E95F60
:10445000F94C0C9442358091420781608093420769
:10446000609142077091430784E090E00E94DC3540
:104470000E947F1750CB8091430788608093430749
:10448000EFCF809142078260E9CF8091420784603C
:10449000E5CF809142078860E1CF8091430781603A
:1044A000EDCF809143078260E9CF80914207806120
:1044B000D5CF809142078062D1CF8091420780643E
:1044C000CDCF0E947F17809142078068C7CF80912F
:1044D00042078C60C3CF809143078360CFCF809128
:1044E00042078E7FBBCF80914307877FC7CF8091E4
:1044F00042078D7FB3CF809142078B7FAFCF8091F2
:104500004207877FABCF809143078E7FB7CF8091E3
:1045100043078D7FB3CF809142078F7E9FCF8091DD
:1045200042078F7D9BCF809142078F7B97CF0E9460
:104530007F17809142078F7791CF80914207837FC9
:104540008DCF809143078C7F99CF8091420782FB6A
:10455000992790F921E0922790FB82F990FB83F94B
:104560007DCF80914307982F909591708E7F892BF6
:1045700090FB81F983CF90914207892F8F7B96FF23
:1045800080646CCF0E947F1790914207892F97FB20
:1045900087F9805863CF61E08EE090E00E94BE35DD
:1045A0005FCF60E0F9CF90914207892F8F7E94FF13
:1045B000806154CF90914207892F8E7F90FF816058
:1045C0004DCF90914307892F877F93FF886056CF07
:1045D00085E314CB85E3B2CD80913C078272F40170
:1045E000E052F847E531F10508F049C0E75DF94CC4
:1045F0000C9442358091340791E0892780933407E9
:1046000010925A0181E00E94070985CA40E75AE0EA
:104610006BE67AE00E94220B7ECA4BE65AE060E726
:104620007AE0F8CF48E95AE06DE87AE0F3CF4DE858
:104630005AE068E97AE0EECF41EB5AE063EA7AE0CB
:10464000E9CF43EA5AE061EB7AE0E4CF4DEC5AE07F
:104650006FEB7AE0DFCF4FEB5AE06DEC7AE0DACF28
:1046600047EE5AE06BED7AE0D5CF4BED5AE067EEBE
:104670007AE0D0CF61E081E00E945D0A4CCA97E702
:1046800089169CE7990609F45BC082E0A8E78A16C0
:10469000ACE79A0609F455C0EA85FB858581E08080
:1046A000F180882309F47AC0C7010E943A11182FBB
:1046B000682FC7010E943806B701812F0E941B1185
:1046C0000E94CF07E82E192FAA85BB851596DC908E
:1046D00015971696CC90C2948FE0C822809141071E
:1046E0008770882309F1FD2CDD20F9F0892F807F68
:1046F000803469F080E28E0D8830B0F0892F807EA2
:10470000803229F4B1E0BE1578F4CC2069F08091B4
:10471000430782FF09C082E00E949606809141070C
:104720008770FF24F3948111F12CE12FE295EF7053
:10473000103C08F09AC0F0E0E25CF94C0C94423571
:1047400081E00E94D10503C082E00E94C50543E0DC
:1047500062E081E00E946B06DEC98BE588168CE77B
:104760009806D1F09CE589169CE7990609F094CF4C
:104770008091430782FB882780F991E089270E9476
:10478000830F8ACF6FEF7FEF80E090E00E94DC35EF
:104790000E94B01781E0F3CF80E0F1CFC7010E9403
:1047A0005206182F89CF012F0F70103110F002958B
:1047B000007FDD20B9F0002369F080E28E0D8830A3
:1047C00010F0E11009C080913C07802B80933C07DA
:1047D0000E94D3118E2D41C080914407802B80937D
:1047E0004407F6CF8E2D0E9434170023F1F180E2AA
:1047F0008E0D883010F0E11004C0802F0E94D40686
:1048000006C00095809144078023809344070E944E
:10481000D3112BC0012F0F70107F103211F00295B1
:10482000007FEE2051F0E1E0EE1609F46EC0DD20CD
:1048300009F47AC0CC20E1F1CDCF8091430782FD0D
:1048400033C0DD2069F0002339F080913C07802BD4
:1048500080933C070E94D31180E00E94C51605C0DA
:1048600080E00E9434170111C8CFFF20B9F0809179
:10487000410780FD13C0EA85FB85158286958695E4
:1048800086950E94C5058A859B850E946E1C809135
:1048900041078695869586950E94D10560E08A85B8
:1048A0009B850E94651149C9DD2099F0C11004C0A3
:1048B000802F0E942512D9CFF1E0CF12D6CF809160
:1048C0003D07902F9823091781F2802B80933D0795
:1048D000CCCFC110CACF802F0E942F1290913D07DC
:1048E000802F8923882329F0802F80958923809326
:1048F0003D0780913E07902F9823992309F4B5CF67
:104900000095082300933E07B0CFDD2029F025E075
:104910002C1508F4AACFCCCF34E03C1508F4A5CF71
:10492000802F0E942F12A1CFCC20D1F389E3E8126F
:104930000DC09FEFA7EEB3E09150A040B040E1F76B
:1049400000C000008E2D0E9434178FCFEFE3FCE9EA
:104950003197F1F7F5CF812F86958695837088235F
:1049600069F0813009F081CF8E2D912F9370D11095
:1049700002C080E090E00E942E0C77CF8E2D912F08
:104980009370D11002C080E090E00E94080C6DCFBF
:104990006D2D8E2D0E94F11568CF812F83708111AE
:1049A00037C0D1102AC04E2D429546954770440F0E
:1049B000440F2E2D2F70042E01C0220F0A94EAF707
:1049C0009E2D9071992341F08FE090E001C0880FF7
:1049D0004A95EAF7982F9095169516951370123010
:1049E00091F0892F822B133031F080913F071130E5
:1049F00039F0292B82230E94BF050E94F70B35CF87
:104A0000822B892BF8CF292B80913F078227F3CF68
:104A1000DD2069F110FFF1CF4E2D4295469547708C
:104A2000440F440F2E2D2F70042E01C0220F0A9424
:104A3000EAF79E2D9071992341F08FE090E001C03C
:104A4000880F4A95EAF7982F90951695169513704A
:104A5000123099F0892F822B133031F0809140076A
:104A6000113041F0292B82230E94C205C6CF82302B
:104A700020F2D2CF822B892BF7CF292B80914007B0
:104A80008227F2CF1F70DD2039F0812F0E94C505EB
:104A90008E2D0E942512B1CF8E2D0E942F12812FB4
:104AA0000E94D105AACFF2EFEF16A9F1FE1588F00A
:104AB00020EFE216D9F031EFE31609F443C0DD2010
:104AC00009F467C0CC2009F461C08E2D0E94C51680
:104AD00094CF83EFE81631F194EFE91679F1D11014
:104AE000F1CFC11069C0812F8F71DACFDD2081F045
:104AF000A4E0AC1508F481CF1F7181E090E0012E95
:104B000001C0880F0A94EAF7909140078927ACCF3B
:104B1000B5E0CB16EFCF812F8F71D110C1CF0E949E
:104B2000C5056BCF80E0DD2009F49ECF1F7181E0C9
:104B3000012E01C0880F0A94EAF796CF80914307AF
:104B400082FD06C0812F8F71DD2009F4A9CFE7CF48
:104B5000DD2089F01F71812F0E94C50580914307D8
:104B600082FF07C0E8E01E9FC0011124836080938C
:104B70004107812FD4CF81E00E949606F1E0FC1519
:104B800008F03BCF82E00E94960637CF812F8F71CD
:104B9000C6CFCC2009F4A7CF29E3E2120DC03FEF26
:104BA00087EE93E0315080409040E1F700C0000074
:104BB0008E2D0E94341721CFAFE3BCE91197F1F796
:104BC000F5CF80918507803178F480918407882320
:104BD00059F0E091460720914507309180074091B8
:104BE0007F0757E02E1301C008956E2F70E05E9F7F
:104BF000F0011124DF01A95BB84F14968C91149732
:104C0000882361F111968C911197831327C08C91A1
:104C1000841324C015968C91159781111FC012968C
:104C20008D919C91A0918107B09182078A1B9B0B6B
:104C3000883C910598F4809185078F7080618093FE
:104C40008507E35BF84F80818F70806180838FE7F9
:104C500097E00E946E1C0E948C060895FB0131961D
:104C6000E770C0CFADE0B0E0E8E3F6E20C94EF34DB
:104C70008C0186E0F801DE01189601900D928A956C
:104C8000E1F7F8017080F580A280B38084819FE70E
:104C9000892E97E0992E60908307611018C08823B1
:104CA00099F0FF2009F413C1C8010E9494118823D0
:104CB00009F40DC187E0F801AFE7B7E001900D926C
:104CC0008A95E1F70E94E125FF24F39453C0D09028
:104CD00084072091810730918207A501421B530B65
:104CE000DD2009F4C4C0483C510508F07AC088238F
:104CF00059F380918007C180E0908507FFE0FE15A1
:104D000008F459C0C81215C080917F07871111C0DF
:104D1000F1104BC08E2D8F708061809385078FE7D7
:104D200097E00E946E1C80918507F8018683F12C24
:104D300021C0F1103AC040E06C2D872D0E94930EE7
:104D400040E06C2D872D0E94930EF82E8111EFCF3D
:104D5000888599850E948511292F22952F7090347E
:104D600070F49F702230A0F09923B1F0F801968181
:104D7000903190F48F2D2D96EEE00C940B352A5F38
:104D80002F70223068F0C8010E946E1CFD2CF2CFFB
:104D9000992311F0882371F3805E883058F3F3CFA4
:104DA000803F40F3815F8230F9CF80918507816039
:104DB00080938507BCCFC8123CC080917F078711C4
:104DC00038C0F11036C0F801E682C8010E946E1C9E
:104DD00087E0F801AFE7B7E001900D928A95E1F71F
:104DE00073CFE0908507FFE0FE1550F08FE797E066
:104DF0000E946E1C87E0F40111928A95E9F797CF23
:104E0000882309F461CF90918007F801818198137C
:104E100010C080917F0787110CC0F1100AC0E68294
:104E2000C8010E946E1C87E0F40111928A95E9F78F
:104E30004BCFC8010E949411882309F448C0FF2079
:104E400009F445C080918507803208F433CF809102
:104E50007F07909180079A838983BC82AB826D82A1
:104E60001E82EF82CE0101960E946E1C23CF483C29
:104E7000510508F0BFCF882309F426CFFF2039F170
:104E8000909180078181981318C080917F078711C6
:104E900014C08091850780FD9BCF803108F498CFA6
:104EA0008683807F803F09F490CF8681982F907F02
:104EB000905F8F70892B868388CFC8010E949411E0
:104EC0008111F8CE80918507816080938507C801A4
:104ED0000E946E1CF9CEABE1B0E0E1E7F7E20C9482
:104EE000FA344E8B5F8B688F798F8A8F9B8F9111ED
:104EF000109244071D8A86E0FE017696DE011F9619
:104F000001900D928A95E1F78B89882329F061E061
:104F1000CE010F960E94651187E0FE013F96DE01EB
:104F2000189601900D928A95E1F7CE0108960E949D
:104F3000322681112BC087E0FE013896DE011196E2
:104F400001900D928A95E1F720914507409146071F
:104F50008C858823D9F030E0C901019687709927A4
:104F600050E084179507E9F097E0929FD001939F56
:104F7000B00D1124A95BB84FFE01319601900D923E
:104F80009A95E1F7809345070E948C0617E080917F
:104F9000460790914507891312C06B96E3E00C9485
:104FA00016350E947F17109245071092460787E03A
:104FB000EFE7F7E0DF011D928A95E9F7E7CF189F49
:104FC000C0011124895B984F0E943226882329F35F
:104FD0008091460790E00196877099278093460755
:104FE000D6CFA6E0B0E0E7EFF7E20C94F9340E94E8
:104FF000BD158C018091C1069091C2068017910762
:1050000079F019821A820E94BD15BC0149815A812A
:1050100080E090E00E946B271093C2060093C106C7
:105020002696E4E00C941535ACE0B0E0EAE1F8E255
:105030000C94F53480E00CEF93E0D92EFF24F39428
:105040002DEFE22E32E0C32E90916306209162068E
:10505000291709F45CC0E92FF0E0EC59F94F2081E1
:10506000122F1F779F5F9370909363068091610664
:105070008F5F8093610627FD1CC01F8308870E94F5
:10508000BD15BC0189879A87DB86FC864F815885D0
:1050900083E091E00E946B278FE39CE90197F1F791
:1050A00000C0000019830A830E94BD15282F83E0E9
:1050B0001BC01F83E8860E94BD15BC0189879A87A3
:1050C000CB86FC864F81588582E091E00E946B2759
:1050D0008FE39CE90197F1F700C000001983EA8291
:1050E0000E94BD15282F82E0622F792F2B839C838D
:1050F0008D831E8249815A8190E00E946B278FE345
:105100009CE90197F1F700C0000081E09DCF2C964B
:10511000E8E00C941135A3E1B0E0E1E9F8E20C9489
:10512000F0341A821982FE01339688E0DF011D9265
:105130008A95E9F789E8A82E82E0B82E8E010F5FE4
:105140001F4F4801EE24E394F12C24E9C22E22E003
:10515000D22EF50181915F018F3F09F441C0F8948F
:10516000E82FE295EF70F0E021A18F70A70102C057
:10517000440F551F8A95E2F7CA01922F982B91A3ED
:1051800092A18095892382A3789400C0EEE8F2E092
:1051900031E0712C21912F3F09F4A5C0A22FA295D7
:1051A000AF70A05EB0E08C9190E02F7002C095953A
:1051B00087952A95E2F78170811195C0832F782A0F
:1051C000330FCE16DF0631F7F501319780818F3F1F
:1051D00011F00E94EA0850EA5A95F1F7D8017C9242
:1051E0000F5F1F4FBEE8AB16B2E0BB0609F0B1CFB0
:1051F0004AE050E0B40189E394E00E947A350091DE
:10520000440410E00D58194F892B09F46EC08AE050
:10521000F401A9E3B4E001900D928A95E1F781E0F1
:1052200080930F030E94BD1590930E0380930D038E
:105230008091BB06882309F4B0C01C861B86FE0142
:105240003D9683E0DF011D928A95E9F7809118036E
:105250008A3008F06CC07E01BBE0EB0EF11C45ED1E
:1052600052E1B701C8010E94490F6701882309F480
:1052700082C04DE353E1B701C8010E94490F882362
:1052800009F479C04EE653E1B701C8010E94490F05
:10529000882309F470C042EC53E1B701C8010E94B1
:1052A000490F882309F467C04CE453E1B701C801F2
:1052B0000E94490F882309F45EC010921803809160
:1052C000430490E045E050E0B6018D58994F0E94AC
:1052D0007A3521E020930C03892B09F03FC06396B7
:1052E000EDE00C940C3580E06ACF80910F038823A9
:1052F00009F49ECF80910D0390910E030E94801AB5
:10530000059708F495CF45E050E069E374E0C801E3
:105310000E947A35892B41F085E0E9E3F4E0D80179
:1053200001900D928A95E1F710920F0381CF809141
:105330000A0390910B030E94801A843F914008F069
:105340008ACF80910C03882351F2FE013B9685E0C1
:10535000DF011D928A95E9F710920C03A091430496
:10536000B0E0AD58B94F85E0FE013B9601900D923B
:105370008A95E1F7B4CF809118038F3F39F40E94EA
:10538000BD1590930B0380930A03DBCF8F5F80934F
:1053900018038A3008F493CFF2CFE0904304F12C45
:1053A000F701ED58F94F7F0185E0F801ABE9B6E070
:1053B00001900D928A95E1F765E070E08BE996E047
:1053C0000E948B0B80939A0685E0E0EAF6E0D70115
:1053D00001900D928A95E1F788E0E0E6F6E0A6EA12
:1053E000B6E001900D928A95E1F768E070E086EAF8
:1053F00096E00E948B0B8093A506C090AE06D090DD
:10540000AF06E090B006F090B1068091060390914F
:105410000703A0910803B0910903C816D906EA064C
:10542000FB06B1F0C0920603D0920703E092080396
:10543000F09209030E94B50CC61AD70AE80AF90AC5
:10544000C092BD06D092BE06E092BF06F092C006A2
:1054500088E0E2EBF6E0A4E3B7E001900D928A95D4
:10546000E1F78091BA060E94430A39CFCDB7DEB783
:10547000A5970FB6F894DEBF0FBECDBF85B7806885
:1054800085BF85B7806885BF84B7877F84BF0FB627
:10549000F894A895809160008861809360001092D4
:1054A00060000FBE80E890E00FB6F8948093610032
:1054B000909361000FBE88EE98E09093DD02809398
:1054C000DC020E94E20D0E94380E8091E2008460AE
:1054D0008093E200789480917D06882399F08091F2
:1054E000E9001091EC001795112717958F70182B74
:1054F0001092E9008091E80083FD0E94C6171F709A
:105500001093E90082E084BD93E095BD9AEF97BDCA
:1055100080936E001092BD061092BE061092BF06D8
:105520001092C0060E94BA11811102C00E94A410FC
:105530008091D80080618093D8002AE12A95F1F704
:1055400000C08091D90080FD0EC10E94E20D109232
:105550007D061092BB061092BC0610920E01E0E68A
:10556000F6E088E0DF011D928A95E9F780910E014F
:1055700091E0892780936A0680910E0190936D06D1
:1055800080910E0180910E01811106C084EF8093FD
:105590000D0185EF80930C0160E080E00E944B0BD1
:1055A00061E080E00E944B0BEFE8F1E03197F1F70A
:1055B00000C0000010E080916D06181708F4DDC0EF
:1055C00080910E0180910E0190E0811101C095E063
:1055D0009093440485E0891B8093430409E812E01A
:1055E000D8018D918D018F3F11F00E94EA08B2E041
:1055F0000E381B07A9F70EE812E064E9E62E62E018
:10560000F62EF80181918F018F3F11F00E94EA0878
:10561000E016F106B1F78AE0E3E7F6E0DF01282FB4
:105620001D922A95E9F7E9E3F4E0DF011D928A95DE
:10563000E9F780E090E00E94A835863E9E4F21F475
:105640000E94BA11811168C066EE7EEF80E090E0A2
:105650000E94DC3560E082E090E00E94BE3581E08F
:1056600080933F0761E083E090E00E94BE3560E0F8
:1056700074E184E090E00E94DC3560E086E090E038
:105680000E94BE3560E087E090E00E94BE3540E0B9
:1056900050E0BA0188E090E00E94D03560E084E2FA
:1056A00090E00E94BE3560E087E190E00E94BE3548
:1056B00060E08CE090E00E94BE3560E08DE090E01C
:1056C0000E94BE3519821A821B821C821D821E8294
:1056D0001F82188648E050E068E170E0CE01019634
:1056E0000E94AE3540E050E0BA0180E290E00E94B6
:1056F000D03580E00E9486100E94A41040E050E067
:10570000BA018FE090E00E94D03540E050E0BA014D
:1057100083E190E00E94D03582E090E00E94A035C5
:105720008093550684E090E00E94A835909343074B
:10573000809342070E948B28EFEFF6E721E0E150CB
:10574000F0402040E1F700C000000E948B288091CB
:10575000730680FF24C06FEF7FEF80E090E00E942F
:10576000DC350E94250D81E08093BB068093BC064A
:1057700080930E010E947433F2CE60E0812F0E946C
:105780006E0B082F61E0812F0E946E0BE12FF0E07D
:10579000E559F94F880F802B80831F5F0CCF83E082
:1057A00090E00E94A0350E94BF050E94F30A81E0AC
:1057B0008093450448E050E068E170E084E397E0BE
:1057C0000E94903510924504809134078430B8F4DB
:1057D00085E08093340780915B0190915C01A091FA
:1057E0005D018093350790933607A09337078FE7C5
:1057F000809338078FEF809339070E94031483E06A
:105800008093520680E2809351060E94F8316BE04B
:1058100070E080E69AE00E948A14882309F443C06D
:105820008091520665E070E081FDB8C08BE59AE09A
:105830000E948A148823B9F16DE070E089E49AE04F
:105840000E948A14882379F10E94B50C69A37AA377
:105850008BA39CA3DC01CB01805A9541AF4FBF4F76
:1058600080934D0690934E06A0934F06B09350063A
:10587000EAE4F4E080E092E0DF019C011D92215017
:105880003040E1F7F0934904E09348048FEF9FEF35
:10589000909347048093460481E080934C06809364
:1058A0004B0610924A068091BB06811102C00E94ED
:1058B00077338FE091E09093E4068093E30628E14C
:1058C000622E712C3DE7E32E36E0F32E40E6C42E27
:1058D00046E0D42E52E0452E512C80917D06853035
:1058E00061F480917D06853009F45BC00E947F17CA
:1058F0000E94F70B80E00E94430A0E948B2806E575
:1059000016E093E7A92E96E0B92ED501F801919102
:105910008D91CE16DF0609F499C09817C1F38091D6
:10592000BB068DA3912CD5018D905D01F80181916D
:105930008F01881551F1882589A3312C22242394C5
:1059400089A182218823C9F0FDA1FF23B1F039820A
:105950009A820E94BD159C838B8321E02D8391E068
:10596000882D8221811101C090E09E8349815A8156
:105970006B817C818D810E946B273394220C36E0F1
:105980003312DECFF8013197808293948AE0981227
:10599000CACF0E94D20C992493945DC086E59AE008
:1059A00047CF80917D06843049F10E940E1481E03A
:1059B0000E94430A0E9497141092530630E40FB6D7
:1059C000F894A895609260000FBE3093600083B792
:1059D000817F846083BF83B7816083BF789488951B
:1059E00083B78E7F83BF0FB6F894A895809160002F
:1059F000886180936000109260000FBE8091540611
:105A0000882309F46ECF0E948B28E3E7F6E08191AA
:105A1000811104C0EE16FF06D1F763CF80E189BD86
:105A200082E189BD09B400FEFDCF8091D8008F7D51
:105A30008093D8008091E00082608093E0008091A4
:105A4000E00081FDFCCF0E947F174BCF981367CFFA
:105A50000E94F127912C0E940E14B090BB06BB202F
:105A600019F00E941428B82E80918706882351F0DF
:105A7000109287068091620680936306809160068B
:105A800080936106A12C39C061E08A2D0E946E0BC3
:105A9000182F60E08A2D0E946E0B110F812B0A2DAA
:105AA00010E0D801A559B94FEC919E2F937089173A
:105AB00019F1EE0FEE0FE82BEC9380916A068A0D38
:105AC000EF70F0E0EC56FD4F0859194F8080D80177
:105AD0009C91890EB1E060E0B81524F0EFEF8E16CE
