:100000000C9493050C94B0050C94B0050C94393005
:100010000C94B0050C94B0050C94B0050C94B0058C
:100020000C94B0050C94B0050C94FF2C0C94D72DB7
:100030000C949B150C94B0050C94B0050C94B00571
:100040000C94B0050C94B0050C94B0050C94B0055C
:100050000C94B0050C94DB2C0C94B0050C94B005FA
:100060000C94B0050C94B0050C94B0050C94B0053C
:100070000C94B0050C94B0050C94B0050C94B0052C
:100080000C94B0050C94B0050C94B0050C94B0051C
:100090000C94B0050C94B0050C94B0050C94B0050C
:1000A0000C94B0050C94B0050C94B0050501090240
:1000B000A10185020901A1000509190129081500FE
:1000C0002501950875018102050109300931158165
:1000D000257F95027508810609381581257F9501D0
:1000E00075088106050C0A38021581257F95017572
:1000F000088106C0C005010980A101850319012AF4
:10010000B700150126B700950175108100C0050CD8
:100110000901A101850419012AA002150126A002E6
:10012000950175108100C005010906A1018506052C
:100130000719E029E71500250195087501810205D9
:1001400007190029EF1500250195F07501810205B9
:10015000081901290595057501910295017503910D
:1001600001C00660FF0961A1010962150026FF00B8
:100170009520750881020963150026FF00952075FA
:10018000089102C005010906A101050719E029E748
:1001900015002501950875018102950175088101F9
:1001A0000507190029FF150026FF0095067508812F
:1001B000000508190129051500250195057501910E
:1001C00002950175039101C000AF00AE07087F08DA
:1001D00007003E5B4F5B3E003E6B4F6B3E001C3E9C
:1001E0007C3E1C00183C7E3C18001C577D571C00B0
:1001F0001C5E7F5E1C0000183C180000FFE7C3E790
:10020000FF00001824180000FFE7DBE7FF0030487C
:100210003A060E00262979292600407F05050700A9
:10022000407F05253F005A3CE73C5A007F3E1C1C9E
:100230000800081C1C3E7F0014227F2214005F5F10
:10024000005F5F0006097F017F00006689956A00F4
:1002500060606060600094A2FFA2940008047E04C5
:10026000080010207E20100008082A1C0800081C26
:100270002A0808001E10101010000C1E0C1E0C0086
:1002800030383E383000060E3E0E060000000000FA
:10029000000000005F000000000700070000147F5E
:1002A000147F1400242A7F2A12002313086462009A
:1002B000364956205000000807030000001C224168
:1002C00000000041221C00002A1C7F1C2A00080894
:1002D0003E08080000807030000008080808080088
:1002E0000000606000002010080402003E514945F3
:1002F0003E0000427F4000007249494946002141CA
:10030000494D33001814127F100027454545390028
:100310003C4A494931004121110907003649494900
:100320003600464949291E00000014000000004024
:1003300034000000000814224100141414141400A6
:100340000041221408000201590906003E415D598E
:100350004E007C1211127C007F49494936003E4113
:10036000414122007F4141413E007F4949494100CE
:100370007F09090901003E41415173007F080808C7
:100380007F0000417F4100002040413F01007F0885
:10039000142241007F40404040007F021C027F0049
:1003A0007F0408107F003E4141413E007F0909095A
:1003B00006003E4151215E007F0919294600264969
:1003C0004949320003017F0103003F4040403F00A4
:1003D0001F2040201F003F4038403F006314081496
:1003E00063000304780403006159494D4300007F12
:1003F00041414100020408102000004141417F00BA
:10040000040201020400404040404000000307088D
:1004100000002054547840007F2844443800384479
:1004200044442800384444287F0038545454180069
:1004300000087E09020018A4A49C78007F08040428
:10044000780000447D4000002040403D00007F10C7
:100450002844000000417F4000007C0478047800BC
:100460007C0804047800384444443800FC182424F0
:10047000180018242418FC007C08040408004854C0
:100480005454240004043F4424003C4040207C0099
:100490001C2040201C003C4030403C0044281028D8
:1004A00044004C9090907C004464544C44000008FC
:1004B00036410000000077000000004136080000CF
:1004C0000201020402003C2623263C00000000003A
:1004D0000000404040F0F8F8FF38FFF8F83FF8F827
:1004E000FF38FFF8F8F040404000000000000080B6
:1004F000C0C0C0800000C0C08000000080C0C0003C
:10050000C0C0000080C0C00000000000C0C0C0C06B
:10051000C000C0C00000000000000000000000009B
:1005200000000000000000000000000000000000CB
:1005300000000000000000000000000000000000BB
:100540000000000000000000000000C0F0F8FC3EC9
:100550001E06010000007F4141417F007F41414173
:100560007F000080C0E07E5B4F5BFEC00000C000EB
:10057000DCD7DEDEDED7DC00C000000000000000BB
:10058000000000000000000000000000000000006B
:100590000000494949FFFFFFFFE0DFBFBF00BFBFC9
:1005A000DFE0FFFFFFFF49494900000000001F3F57
:1005B0006060E0BF1F007F7F071E381E077F7F003F
:1005C0007F7F0E1F3B716000000000007F7F0C0CDE
:1005D0000C007E7E007F7E0303007F7E03037E7E11
:1005E00003037F7E000F3E703C063C703E0F0032DE
:1005F0007B49493F7E007F7E0303001E3F69696F90
:100600002600000000000000000000030F1F3F3C18
:100610007870600000007F4141417F007F4141418F
:100620007F00307B7F7830202030787F3B000300D4
:100630000F7F0F0F0F7F0F0003000000000000006E
:1006400000000000000000000000000000000000AA
:100650000000010101070F0F7F0F7F0F0F7E0F0FAB
:100660007F0F7F0F0F070101010000000000000055
:100670000000000101000000000000000000000078
:10068000000000000000000000000000000000006A
:10069000000000000000000000000000000000005A
:1006A000000000000000000000000000000000004A
:1006B000000000000000000000000000000000003A
:1006C000000000000000000000000000000000002A
:1006D000000000000000000000000000000000001A
:1006E000000000000000000000000000000000000A
:1006F00000000000000000000000000000000000FA
:1007000000000000000000000000000009025B0083
:10071000030100A0FA0904000001030101000921FE
:1007200011010001224400070581030800010904AA
:100730000100020300000009211101000122220032
:1007400007058203200001070503032000010904B7
:100750000200010300000009211101000122B6007E
:100760000705840320000112010002000000083286
:10077000FC87020100010200010C0353006F0066B8
:10078000006C00650000001A034A006F00730065EA
:100790000066004100640061006D00630069006B49
:1007A0000000000403090429001E001F002000218E
:1007B0000022002B0014001A00080015001700E3A7
:1007C0000004001600070009000A00E1001D001BDC
:1007D00000060019000500E000E200215222522C20
:1007E00000A8002A00270026002500240023002F4F
:1007F00000130012000C0018001C00340033000F1E
:10080000000E000D000B00E5003800370036001028
:10081000001100E400E600215222522800000029C5
:1008200000A800AA00A900000000002B0000004A58
:100830000052004D004B00E3000000500051004FFB
:10084000004E00E1003900D100D300D20066000163
:1008500000010001000100010001004C002E0061B8
:100860000060005F005400300026025E005D005C06
:10087000005500E70027025B005A0059005600E5CA
:100880000031008500630062005700010001000193
:100890000001000100010035003A003B003C003D32
:1008A000003E002B004900D100CD00D200D900E36A
:1008B000004600CF00CE00D000DA00E1000000DBEF
:1008C00000D300DC00000001000100010001000174
:1008D0000001002D0043004200410040003F003075
:1008E0000044004D0052004A004B00E70045004F15
:1008F00000510050004E00E5003100D200D300D17D
:10090000000000010001000100010001000100DC05
:1009100000DB00D900DA00A900AA004B004E00233A
:1009200078247825782678202020202000436170C4
:1009300073000A0A00466E0A004E756D0A00426195
:1009400073650A000A0A004D6F640A0051777274D9
:10095000000A0A0000010101010101010101020276
:10096000020202020202020303030303030303045D
:100970000404040404040505050505060606060628
:10098000070707070708080808090909090A0A0AE2
:100990000B0B0B0C0C0C0D0D0D0E0E0E0F0F0F1084
:1009A000101111111212131314141515161617170E
:1009B000181819191A1A1B1B1C1D1D1E1E1F20207A
:1009C000212222232424252626272829292A2B2CC4
:1009D0002D2D2E2F30313232333435363738393AE7
:1009E0003B3C3D3E3F404142434445464748494ADF
:1009F0004C4D4E4F50515354555658595A5B5D5EAD
:100A00005F616264656668696B6C6D6F7072737547
:100A100077787A7B7D7E8082838587888A8C8E8FAB
:100A200091939596989A9C9EA0A2A3A5A7A9ABADD9
:100A3000AFB1B3B5B7BABCBEC0C2C4C6C9CBCDCFC7
:100A4000D1D4D6D8DBDDDFE2E4E7E9EBEEF0F3F575
:100A5000F8FAFDFF00DA0281FFD9F1DB20A4A62E0F
:100A6000AF00A0C0D30000A1C8D30000AED580A8BD
:100A70001F408D1420000000000000000000000056
:100A80000000000000000000000000000000000066
:100A9000000000000000000000007E0F00D4FFFFF7
:100AA000FFC70000007800000000000000002A2BB3
:100AB000280000000000000000000000000000000E
:100AC0000029000000002C1E342021222434262777
:100AD000252E362D3738271E1F2021222324252698
:100AE0003333362E37381F0405060708090A0B0C66
:100AF0000D0E0F101112131415161718191A1B1CAE
:100B00001D2F3130232D350405060708090A0B0C6B
:100B10000D0E0F101112131415161718191A1B1C8D
:100B20001D2F3130354C11241FBECFEFDAE0DEBF70
:100B3000CDBF12E0A0E0B1E0E4E7F5E602C0059029
:100B40000D92AC3DB107D9F727E0ACEDB2E001C0A2
:100B50001D92A536B207E1F70E94B3260C943D32F0
:100B60000C940000982F82958F70882311F0982F95
:100B700084E0292F26952695222311F08E5F922F4F
:100B8000969591118F5F089580931E070895809325
:100B90001F07089521E030E001C0220F8A95EAF78F
:100BA00080911F07822B0E94C705089521E030E045
:100BB000A90102C0440F551F8A95E2F7CA0180952A
:100BC00090911F0789230E94C70508959B016770B4
:100BD00091E001C0990F6A95EAF763E03695279591
:100BE0006A95E1F7B901660F771F260F371FFA01E3
:100BF000E20FF31F40E050E0682F70E08191DF01C9
:100C000011979B01042E02C0369527950A94E2F7AE
:100C1000217021952827292328272C934F5F5F4F88
:100C20004330510559F708959C01A82FA77083E020
:100C3000369527958A95E1F7C901880F991F820F8C
:100C4000931FFB01E80FF91F40E050E080E0219185
:100C500030E00A2E02C0369527950A94E2F72170FB
:100C60003327042E01C0220F0A94EAF7822B4F5F2C
:100C70005F4F4330510559F70895282F862F9A303A
:100C800070F4263058F4622F70E026E0929F600DD9
:100C9000711D112440EF56E00E94E60508959C5F07
:100CA0009230E0F7622F70E04DEE56E0F5CF292F3D
:100CB0009A3068F4863090F490E060EF76E036E0A9
:100CC000239F800D911D11240E94140608952C5F0E
:100CD000223020F46DEE76E090E0F6CF80E00895CB
:100CE00090911F0721E030E0F90101C0EE0F8A95D5
:100CF000EAF7D90102C0AA0FBB1F6A95E2F7EA2BF7
:100D000001C0220F4A95EAF7892F8E23E81305C008
:100D1000892F822B0E94C70508952095822F892351
:100D2000F9CF8091250790912407981301C0089569
:100D30008F5F8770FACF90912007809589238093E9
:100D40002007282F277021110DC0891759F0909185
:100D5000220792FF07C08695869586950E94D60544
:100D600010922007089580911B0790912307892BEB
:100D700050911C075523C1F0909159019923A9F076
:100D80009091210797FF11C09DE128EE32E040E0ED
:100D9000F90160812F5F3F4F61114F5F9150C0F7A4
:100DA000411110921C07852B089595E020EE32E04A
:100DB000EECF982F909580911B07892380931B0776
:100DC0000895803E9105D1F1C8F48133910509F46D
:100DD0007FC048F48932910509F46FC08A329105C9
:100DE00009F47DC0089589339105E1F082389105B9
:100DF000C9F08533910509F45BC00895843E9105DF
:100E0000D1F148F4823E910531F1833E910541F1E3
:100E100081EE90E00895863E9105C1F1873E9105EF
:100E2000E1F10895209121072370211165C02091DF
:100E3000220723FF14C089E290E008952091210742
:100E400020FD43C03091220730FF09C024FF4EC06F
:100E500080E090E008952091210722FDF7CF0895CA
:100E60002091210722FD45C03091220730FD44C06A
:100E700024FFF5CFEDCF2091220721FFF0CF809105
:100E8000210784FDE5CF87EE90E0089520912107AA
:100E900023FFE5CF24FDDCCFF6CF2091210723FDF2
:100EA0002EC03091220731FFE3CF84EE90E0089509
:100EB0002091210725FFD3CFBECF2091210725FD0B
:100EC00021C02091220723FFCACF89E390E0089533
:100ED0002091210726FFC3CF8AE290E00895209158
:100EE000210726FFBCCF81E390E0089583EE90E0D8
:100EF000089582EE90E0089580EE90E0089586EEE9
:100F000090E0089585E390E0AACF9091210792FFA9
:100F100010C041E0282F2471243009F040E031E076
:100F2000282F2871283009F030E0431711F02CE009
:100F3000822793FF10C041E0282F2471243109F04B
:100F400040E031E0282F2871283109F030E04317C4
:100F500011F02CE082273091220730FF10C051E0C1
:100F6000282F2171213009F050E041E0282F28710D
:100F7000283009F040E0541711F029E0822731FFB2
:100F800010C041E0282F2171213109F040E031E00B
:100F9000282F2871283109F030E0431711F029E09B
:100FA000822794FD877E08951F93CF93DF930E943D
:100FB000E106EC01811522E5920708F053C0811586
:100FC00040E5940708F0DDC0803E9105F8F48D3CC3
:100FD000910508F0AEC0883A910580F4853A9105F4
:100FE00008F099C08130910521F00497813A91056C
:100FF00050F4CE01DF91CF911F910895885A910945
:101000004B9708F48BC0C0E0D0E0F3CF811550E4DB
:101010009507F8F4C11580E2D80708F0CBC0C83EA8
:10102000D10538F3CE019A9581159F4160F78D2F38
:101030000E948507182FCE0199270E94E106212FD3
:1010400030E0322F2227E901CC27DF71C82BD92BC2
:10105000D0CF99270E94E106CC27DF70C82BD92B6F
:10106000D06AC7CF803842E59407C8F5803652E58C
:10107000950708F067C0C03482E5D807B0F08C2F20
:1010800086958695877020E2829FC0011124C370E7
:1010900021E030E0A90102C0440F551FCA95E2F7D4
:1010A000EA01C82BD92BDC68A4CFC03252E5D507A2
:1010B00008F041C08C2F8695869520E2829FC00162
:1010C0001124C37021E030E0A90102C0440F551F74
:1010D000CA95E2F7EA01C82BD92BDD688ACF803C9C
:1010E00052E5950760F48F71C03AD24508F03FC0D1
:1010F00090E0982F8827EC01C46FD06A7ACF805C8B
:101100009245809708F07FCFDC2FCC27CC27DF716A
:10111000C06FD06A6ECFA497D0646BCFC85AD0E0AE
:10112000CC0FDD1FCA55DD4F0990D881C02DD46486
:1011300060CFD0655ECFCF71D0E0DC2FCC27C16F00
:10114000D06A57CF86958695877020E2829FC0012E
:101150001124C37021E030E0A90102C0440F551FE3
:10116000CA95E2F7EA01C82BD92BDA6842CF0E9470
:101170008507C82FD0E0DC2FCC27CC27DF71D062C9
:1011800038CF8F710E94850765E0D695C7956A951F
:10119000E1F7CF70D0E0DC2FCC27282F30E084FFA0
:1011A00005C054E0220F331F5A95E1F7C22BD32B11
:1011B000D0691FCF8D2F8F710E948507182FCE0108
:1011C00099270E94E106212F30E0322F2227222783
:1011D0003F71282B392BE901D2CF80E00895F89494
:1011E000E82FE295EF70F0E041A18F7021E030E050
:1011F000B90102C0660F771F8A95E2F7CB01962FDF
:101200009095942391A392A1892B82A37894089519
:1012100081E080938706089590914504982B9093E0
:1012200045040895FF920F931F93CF93DF93182FD8
:10123000062FF42EC0E0D0E02F2D402F612FCE01DD
:101240000E94FB0A2196C834D105B1F7CDB7DEB7AD
:10125000E5E00C9491319FE0899F802D1124980F37
:10126000993408F098E42091BC06211104C084321E
:1012700028F484E20895953208F094E20895A0E0FD
:10128000B0E0E5E4F9E00C946F31C82F80910B01D8
:1012900091E08C130CC020911307237030E0409133
:1012A0000A0150E091E02417350709F490E09170AD
:1012B000909309018091180790910801981739F0CF
:1012C0008093080140E060E080E00E941209CC2396
:1012D00041F0A0900701C130E1F0A394A092070172
:1012E0003EC080910901882309F4CCC040E060E051
:1012F00080E00E941209809107018F5F80930701AF
:1013000082E080935A018091090181112BC083E012
:1013100027C08A2D0E942B09982E092F209115078E
:10132000E0911607F0E0EC5AF64F211120C0E4914D
:10133000CE2F1E2FDE2FE92CF12CE01608F48CC0E6
:101340008091BC06882309F49AC081E0043208F039
:1013500080E091E09A0D90930701811103C082E033
:1013600080935A01CDB7DEB7EBE00C948B31C0907F
:101370001407D12C30E0B490CB2D86E08C9D700109
:101380008D9DF00C1124EFEFF0E0C701BF010E942A
:101390005431CC0CDD1C45E5469FC001479F900DA4
:1013A0001124C81AD90A8C2D880F8C0DDF01A21BBD
:1013B000B30BBA9EA001BB9E500D1124152F829F26
:1013C000D001839FB00D1124AB2FBB276F01CA1A28
:1013D000DB0AD601BA9E6001BB9ED00C1124DD2D24
:1013E000DF01A81BB109CD01829FD001839FB00D01
:1013F000929FB00D1124AB2FBB27CF018A1B9B0BF3
:10140000DC01BA9EC001BB9E900D112463307105B2
:10141000C9F0ACEFEA16A3E0FA0650F461307105AA
:1014200009F489CF6230710589F0DC2FC92F83CF91
:101430006430710571F066307105B9F3C52F1D2D4B
:10144000DB2D79CFCD2DD52F1B2D75CFD52F192F76
:1014500072CFD92FC52FF8CFF701EF5BFD4F8081F9
:10146000909108018923882331F0212F4C2F6D2F73
:10147000C7010E94FB0ABFEFEB1AFB0A5ECF81E0B7
:10148000073465CF809107018F5F809307013FCFBD
:10149000CF93C82F882391F080917E0681110EC0D2
:1014A0000E943F0910920B01809113078370809373
:1014B0000A010E94B70E83E080935A01C0937E0612
:1014C000CF910895862F909113079370992339F047
:1014D00094609093130710925A010E940C0908958A
:1014E00061E081E00E94620A089590911307969549
:1014F00096958FEF890F913009F481E061E00E94A9
:10150000620A0895982F822F2091130723702223B7
:1015100041F09093140760931507409316070E94BB
:101520000C090895E3E1F7E0818190E021E0438137
:10153000628108960E94820A0895E3E1F7E08181C2
:1015400021E0438162818850990B0E94820A0895AC
:10155000E3E1F7E0628120E1620F08F46FEF81813F
:1015600021E0438190E00E94820A0895E3E1F7E0E0
:10157000628120E1621B08F460E0818121E0438107
:1015800090E00E94820A0895E3E1F7E0438120E1C0
:10159000420F08F44FEF818121E0628190E00E94C8
:1015A000820A0895E3E1F7E0438120E1421B08F459
:1015B00040E0818121E0628190E00E94820A0895EA
:1015C000E3E1F7E0248130E1230F08F42FEF2483D7
:1015D00081E00E940C090895E3E1F7E0248130E105
:1015E000231B08F420E0248381E00E940C09089565
:1015F000109230040895FC018091BC06811123C033
:10160000E432F1051CF1B497CF01880F991FDC017A
:10161000AE0FBF1FA85ABC4F11963C9111973613BD
:1016200007C03C91341304C012963C91321771F0FC
:1016300031E030933004E80FF91FE85AFC4F618322
:101640004083228303C0E432F105F4F20895FA01E5
:10165000882311F009950895FB01FCCF9091620653
:10166000292F30E0E0916306F0E0A9014F5F5F4F62
:1016700043705527E417F50789F0205A394F60FB6E
:1016800087F9F90184839F5F93709093620680913C
:1016900060068F5F8093600681E0089580E0089582
:1016A00090E06623E9F0845F9E4FFC0180818F3FCC
:1016B000B1F0E82FE295EF70F0E041A18F7021E0EA
:1016C00030E0B90102C0660F771F8A95E2F7CB01BF
:1016D000962F9095942391A392A1892B82A308958C
:1016E000835F9E4FE2CF90E06623A9F0845F9E4F18
:1016F000FC0120812F3F91F0E22FE295EF70E05E38
:10170000F0E0808190E02F7002C0959587952A9532
:10171000E2F781700895835F9E4FEACF80E00895DD
:10172000FC01680F791F8FEF91E3E617F70709F4C3
:1017300008952191822728E030E087FF08C0880FB4
:1017400089272150310921153105B9F7EECF880FCE
:10175000F8CF282F35EB2303C001112497FF04C0D5
:1017600080589109892F089580589F4FFBCF809111
:101770000A0780FD14C081FD14C082FD16C080914F
:101780000907882381F08E3180F420E5829FC00113
:1017900011246EE170E00E94AB31862F089584E140
:1017A000089588E2089588E0089580E5089580917D
:1017B0000A0780FD17C081FD17C082FD19C0809106
:1017C0000807882399F0883298F428E0829FC001A6
:1017D000112468E270E00E94AB316115710551F08F
:1017E000862F089562E0FCCF64E0FACF61E0F8CF85
:1017F00068E0F6CF81E008958091BB06882359F018
:10180000E091E306F091E406309729F00190F08131
:10181000E02D0995089580E00895A3E0B0E0E3E1AC
:10182000FCE00C9478319C01809134039091350355
:1018300082179307A1F03093350320933403E0918E
:10184000E306F091E406309751F083E089833B830F
:101850002A830084F185E02DCE0101960995239617
:10186000E2E00C949431A3E0B0E0E9E3FCE00C94F6
:1018700078319C0180913203909133038217930752
:10188000A1F03093330320933203E091E306F0910B
:10189000E406309751F084E089833B832A830084F7
:1018A000F185E02DCE01019609952396E2E00C9496
:1018B0009431909159019923C1F09091210797FF9C
:1018C00014C0E82FE695E695E695803FF8F4F0E041
:1018D000EA51FD4F877021E030E001C0220F8A9568
:1018E000EAF78281822B82830895A0EEB2E0EFEFC7
:1018F00090E02D91821751F0EF3F19F4211101C0B2
:10190000E92F9F5F9630A9F7EF3F09F408950E2E57
:10191000000CFF0BE252FD4FE6CF90915901992345
:10192000E1F09091210797FF18C0E82FE695E69522
:10193000E695803FF0F4F0E0EA51FD4F877021E03A
:1019400030E0A90102C0440F551F8A95E2F7CA0191
:1019500080959281892382830895E0EEF2E091914F
:10196000891303C0DF0111971C9252E0E63EF50790
:10197000B1F70895A4E0B0E0E0ECFCE00C9478311D
:101980008FB7F89420912E0330912F0340913003AC
:101990005091310329833A834B835C838FBF6981E4
:1019A0007A818B819C812496E2E00C949431A4E0AE
:1019B000B0E0EDEDFCE00C9478318091BB0688231B
:1019C00071F00E94BA0C69837A838B839C8369814E
:1019D0007A818B819C812496E2E00C9494310E9460
:1019E000BA0C69837A838B839C838091BD06909126
:1019F000BE06A091BF06B091C00629813A814B81F5
:101A00005C81280F391F4A1F5B1F29833A834B8350
:101A10005C83DDCFA4E0B0E0E0E1FDE00C94763142
:101A2000462F572FBC012FB7F89480912E03909129
:101A30002F03A0913003B09131032FBF8C019D0182
:101A4000041B150B260B370BC901B8012496E4E0E3
:101A50000C94923187E797E79093010880930008F0
:101A600088E19AE00FB6F894A895809360000FBEC5
:101A700090936000FFCF80912D030895FC019B019E
:101A800080912303909124038617970740F0672BDA
:101A900029F48091E8008E778093E800C90140E046
:101AA000009741F4411106C08091E80082FF2FC0E9
:101AB00080E0089520917D062223A9F12530A9F127
:101AC0002091E80023FD2DC02091E80022FDECCFFD
:101AD0002091E80020FFE4CF3091F3002091F20044
:101AE000009719F02830310558F041E028303105D1
:101AF00009F040E02091E8002E772093E800D0CF55
:101B000041914093F10001972F5F3F4FE9CF8091C2
:101B10007D06882341F0853041F08091E80083FF05
:101B2000C3CF81E0089582E0089583E00895809115
:101B30001D0387FF13C08091E80082FF06C08091DB
:101B4000E8008B778093E80004C080917D068111C6
:101B5000F2CF089580917D068823D9F38091E80023
:101B600080FFF8CF8091E8008E77ECCF2091E400E1
:101B70003091E50095E6A9018091EC008170882301
:101B800031F08091E80080FF06C080E00895209148
:101B9000E80022FD1BC080917D06882391F08530EE
:101BA00091F08091EB0085FD10C02091E400309110
:101BB000E5004217530701F391509111DCCF84E007
:101BC000089582E0089583E0089581E00895E8EDA6
:101BD000F0E080818E7F80831092E2001092DA0024
:101BE0001092E100A0EEB0E08C9181608C93808136
:101BF0008F77808319BCA7EDB0E08C918E7F8C939A
:101C000080818F7E808310921C030895982FE42F8B
:101C1000E2709093E900891308C0762F242F50E0DA
:101C2000E11111C091E0980FF4CF7091EC00209178
:101C3000ED005091F00021FD06C09F5F973049F7FD
:101C40008093E90008953091EB003E7F3093EB00E4
:101C50003091ED003D7F3093ED003091EB0031602D
:101C60003093EB007093EC002093ED005093F00064
:101C70002091EE0027FDE1CF0895A0E0B0E0E3E47D
:101C8000FEE00C947231C8EDD0E088818F7E8883AD
:101C9000E7EDF0E080818160808384E082BF81E0B5
:101CA00080931C0388818E7F888302EE10E0F80108
:101CB00010821092DA0081EEC82ED12CF60110822B
:101CC00088818F77888388818068888388818F7DE9
:101CD000888319BC10927D0610921B031092540643
:101CE00010921A0390EEE92EF12CF70180818B7F80
:101CF000808388818160888342E060E080E00E9488
:101D0000060EF60180818E7F8083F80180818160DC
:101D10008083808188608083F70180818E7F8083CB
:101D2000888180618883CDB7DEB7E8E00C948E317E
:101D3000E09125079091240727E0E91302C080E095
:101D40000895AE2FB0E02E9FF0011124EA5DF84F08
:101D50003181361306C03081381303C03581341306
:101D600004C0FD013196E770E8CF81E008958091CD
:101D70003004882341F1539A3BB1377F2BB128605F
:101D80004FB7F89488E593E0FC010196508168E034
:101D90002BB9000000C057FF3BB9550F000000C031
:101DA00000C000C03BB900C06A9591F754E0803391
:101DB000950751F74FBF8FE594E00197F1F700C009
:101DC00000001092300408950F931F93CF93DF9378
:101DD000EB018A0190917D06943079F58093E900BA
:101DE0008FEF9091E80095FD07C095ED9A95F1F77A
:101DF000000081508111F5CF8091E80085FF1DC062
:101E00000E94B60D811114C08091E80085FD06C0C6
:101E10008091E8008E778093E800F2CF88818093EC
:101E2000F100015011090115110511F02196ECCFB7
:101E30008091E8008E778093E800DF91CF911F9129
:101E40000F910895CF93DF93D82FC92F48E050E02A
:101E5000682F792F81E00E94E40E88E0ED2FFC2F9F
:101E6000A5E2B3E001900D928A95E1F7DF91CF9161
:101E70000895BC0140E250E084E00E94E40E089521
:101E8000BC0146E050E084E00E94E40E0895BC01ED
:101E900043E050E084E00E94E40E0895A0E0B0E04A
:101EA000E4E5FFE00C947031F82EE92EB62EA72E53
:101EB0008A0180911803CC24C394D12C8A3018F461
:101EC0008AE0C82ED12CC1E0D0E06B2D7A2D8F2D69
:101ED0009E2DF8010995811116C02196CC16DD06BC
:101EE00094F0CC9FC001CD9F900D900D112420E067
:101EF00030E045E34A95F1F700002F5F3F4F281788
:101F00003907B9F7E2CFCDB7DEB7EAE00C948C31F0
:101F10009091220792FB222720F9281779F080FB65
:101F200092F990932207609121077091220784E033
:101F300090E00E94373282E00E949B0608951F9332
:101F4000CF93DF93962F122F632F8430D8F49A30DB
:101F5000C8F44630B8F4C42FD0E0CC0FDD1F2CE01D
:101F6000929FC00DD11D112498E7899FC00DD11DEE
:101F70001124CE0189960E941932612FCE018A96D2
:101F80000E941932DF91CF911F9108951F93CF9333
:101F9000DF93962F122F632F8430D0F49230C0F449
:101FA00028E0829FE001112424E0929FC0011124C7
:101FB000C80FD91FC75FDD4FCE01442369F00E94CF
:101FC000193281E090E0612F8C0F9D1F0E94193221
:101FD000DF91CF911F91089502960E94193283E0FC
:101FE00090E0F1CF8F929F92BF92CF92DF92EF92CB
:101FF000FF920F931F93CF93DF930FE019E0E12C33
:10200000F12CC0E04701D0E01AC021E030E0C3303D
:1020100021F0F601859194919C014B2D6D2F8C2F11
:102020000E949F0FB39422E0C20ED11C36E0B3127F
:10203000ECCFDF5F86E0880E911CDA3049F0C401F6
:10204000880F991F9C012955384F6901B12CDDCFAC
:10205000C33089F521E030E041E060E083E00E9498
:10206000C60F21E030E040E060E083E00E94C60F50
:1020700021E030E041E061E083E00E94C60F21E012
:1020800030E040E061E08C2F0E94C60FCF5F085F18
:102090001F4F3CE3E30EF11CC43009F0B3CFDF91D6
:1020A000CF911F910F91FF90EF90DF90CF90BF9055
:1020B0009F908F900895F8012591349141E060E060
:1020C0008C2F0E94C60FF80132962591349140E082
:1020D00060E08C2F0E94C60FF80134962591349150
:1020E00041E061E08C2F0E94C60FF8013696859181
:1020F00094919C01C6CFCF93DF93C9E2D2E060E018
:10210000CE010E9419322196C11584E0D807B9F793
:10211000DF91CF910895882381F064E285E290E019
:102120000E94193265E086E290E00E94193265E172
:1021300087E290E00E94193208956FEF85E290E007
:102140000E9419326FEF86E290E00E9419326FEF21
:10215000EFCF80E00E948B1060E088E290E00E9468
:1021600019320E94F20F0E947B1081E00E948B10B6
:1021700008950F931F93CF93DF93843030F56A3027
:1021800020F5463010F5C42FD0E0CC0FDD1F2CE039
:10219000629FC00DD11D112438E7839FC00DD11D52
:1021A0001124CE0189960E94FB31082F10E0102FD8
:1021B0000027CE018A960E94FB319801282BC90185
:1021C000DF91CF911F910F91089580E090E0F8CFBB
:1021D0000F931F93CF93DF93843078F5623068F5C7
:1021E00028E0829F8001112434E0639FB001112414
:1021F000060F171F075F1D4FC8014423A1F00E945F
:10220000FB31C82FD0E0DC2FCC2781E090E0800F9D
:10221000911F0E94FB319E01282BC901DF91CF91B4
:102220001F910F91089502960E94FB31C82FD0E0B4
:10223000DC2FCC2783E090E0EACF80E090E0EECF87
:102240007A3048F4663070F4843060F4462F672F9B
:102250000E94B91008957D3F41F4623018F441E0C6
:10226000843050F080E090E008957C3FD9F76230F0
:10227000C8F78430B8F740E00E94E8100895A0E065
:10228000B0E0E5E4F1E10C9473317C0100911F07AB
:1022900080911E07082BC3E0D0E010E0C8010C2E8F
:1022A00002C0959587950A94E2F780FD09C02197B1
:1022B000A8F7D12C8D2DCDB7DEB7E7E00C948F3188
:1022C000DC2EB7018C2F0E9420110E94D4070197A9
:1022D00071F3F0CF0F931F93CF93FC0185810081A1
:1022E0001181882391F0662381F0C8010E943F117B
:1022F000C82F682FC8010E943D06B8018C2F0E948C
:102300002011CF911F910F910895C8010E94570687
:10231000C82FF3CFCF93DF93D82FC92F0E943F113F
:102320006D2F7C2F0E9420110E94D407DF91CF9146
:102330000895FC0184818823A1F0808191810E940D
:102340008A11282F92959F70963091F060F4925FD9
:102350009F70923030F481E0203F79F030F4283ED5
:1023600030F080E004C09A5FF3CF243FD1F70895A6
:1023700081E0283E18F0213FF9CF0895089585E2C5
:1023800090E00E94FB31843289F486E290E00E9462
:10239000FB31853059F487E290E00E94FB3191E0F7
:1023A000853109F090E0892F8170089580E0FCCF9D
:1023B00080915901882359F18091210787FF27C017
:1023C0000E94B3068093E70240E250E063EC76E0BF
:1023D00086EE92E00E94D531892BC1F080E2E6EED4
:1023E000F2E0A3ECB6E001900D928A95E1F7E0915E
:1023F000E306F091E406309749F086E08093E60228
:102400000480F581E02D86EE92E0099508950E9402
:10241000B3068093DE0248E050E065EE76E08EED94
:1024200092E00E94D531892B89F388E0EEEDF2E04D
:10243000A5EEB6E001900D928A95E1F7E091E306F2
:10244000F091E406309711F30280F381E02D8EEDD8
:1024500092E0DBCF882339F090911B07892B809382
:102460001B070E94D8110895882321F00E94D906E5
:102470000E94D8110895A0E0B0E0E1E4F2E10C94EC
:102480007231FA0169017801C82F880FDD0B30978E
:10249000B1F0DE0193E0AA0FBB1F9A95E1F7A75EAA
:1024A000BE4F11968D919C9112978656994F4C91E3
:1024B00050E0E417F50708F4AF010E94E231CE01C5
:1024C0000E94DF30182F8823D1F0E114F104B9F015
:1024D00083E0CC0FDD1F8A95E1F7FE01E75EFE4F3A
:1024E000438150E0E416F50608F4A701C75EDE4F0D
:1024F0006C817D816656794FC6010E94E231812F41
:10250000CDB7DEB7E8E00C948E31A5E0B0E0EBE8A3
:10251000F2E10C946C31762E6A014901580101E018
:1025200010E09E012F5F3F4F40E050E060E070E020
:102530000E943B12182F8823B9F1D6018D919D91ED
:102540000D90BC91A02DBC01CD010E940A0D6980A7
:10255000643671058105910530F4B701C5010E940B
:10256000900B861509F18701940140E050E060E08E
:1025700070E0872D0E943B12182FB701C5010E9401
:10258000900B861531F010E0812F2596EEE00C942B
:10259000883111701123C1F30E94BA0CF6016083D7
:1025A000718382839383F0CFA701B501C4010E9498
:1025B000E231EACFA5E0B0E0E0EEF2E10C94723156
:1025C0006B0185E0E82EF12C0BE916E09E012F5FF0
:1025D0003F4F46E956E061E080E00E948512882383
:1025E00049F095E0FE013196A1E9B6E001900D9227
:1025F0009A95E1F795E0E1E9F6E0D60101900D92B8
:102600009A95E1F72596E8E00C948E31AAE0B0E0C7
:10261000ECE0F3E10C947131B82E6D837E837A0186
:10262000B9016801A801C7010E94D5318C01AD81B3
:10263000BE818D919D910D90BC91A02DBC01CD01CD
:102640000E940A0D643671058105910518F4011583
:10265000110599F000E010E020E030E0A601B7019C
:102660008B2D0E943B12882349F00E94BA0CED8109
:10267000FE81608371838283938381E02A96E9E0FF
:102680000C948D310F931F93AC0105E010E020EA0C
:1026900036E06DE876E082E00E9406131F910F910C
:1026A0000895A9E0B0E0E7E5F3E10C94763188E025
:1026B000E3E1F7E0DE01119601900D928A95E1F7D2
:1026C00080917E06898709E010E022EB36E0AE01BA
:1026D0004F5F5F4F6FE776E087E00E940613299611
:1026E000E4E00C949231A8E0B0E0E9E7F3E10C9467
:1026F000743188E0E82EF12C06EA16E09E012F5F87
:102700003F4F49E856E064E083E00E948512182FAD
:102710008823C1F19091A50680918806981791F1C0
:10272000F12C9091A9068091A806891729F1E92F2B
:10273000F0E0E256F94F848587FB662760F99F5FDA
:1027400093709093A9069091A7069F5F9093A70618
:102750008F770E942E0BF82E8111E3CF00E010E05E
:1027600020E030E040E050E060E070E085E00E9472
:102770003B121F2D182302C0F110F0CF8091A50647
:1027800080938806812F2896E6E00C949031A8E08B
:10279000B0E0EDECF3E10C947631809183069091FA
:1027A0008406A0918506B0918606BC01CD010E94E9
:1027B0000A0D11E0643671058105910520F10E9432
:1027C000D70CDC01CB010296A11DB11D89839A8330
:1027D000AB83BC8300E010E020E030E044E050E058
:1027E000BE016F5F7F4F86E00E943B12182F882347
:1027F00051F00E94BA0C6093830670938406809314
:10280000850690938606812F2896E4E00C949231F9
:1028100048E050E068E170E083E197E00E9409320F
:10282000109245040895A8E0B0E0E9E1F4E10C94C9
:1028300078310E94D70C282F6093310470933204B2
:10284000809333049093340480917E0681111EC0DE
:1028500030911307832F8370882319F0832F869577
:10286000869530915A013230E1F090F4311116C062
:102870001092070160933504709336042093370457
:102880009093380481E080935A0104C080E0E9CF3E
:10289000333091F02896E2E00C9494310E943F0985
:1028A000F9CF80930B0180911307837080930A0105
:1028B0000E94B70E83E0E7CF8091450481110E940A
:1028C00008148091350490913604A0913704B0919A
:1028D000380489839A83AB83BC838091BB068823A9
:1028E00089F069817A818B819C810E940A0D462F33
:1028F000572FBC01403151056105710558F2109206
:102900005A01C8CF0E94D70CAB01BC0189819A81C2
:10291000AB81BC81481B590B6A0B7B0BEBCFAB0126
:1029200024E630E0BC0188E70E94F62E9C0181E09D
:10293000232B09F080E0089580914C06882369F0EC
:1029400080914B06882349F062E070E08AEC91E0C8
:102950000E948F14811110924B060895A4E0B0E0FC
:10296000E4EBF4E10C94783180914C068823F9F083
:102970000E94BA0CDC01CB01805A9541AF4FBF4F8A
:1029800080934D0690934E06A0934F06B093500649
:1029900080914B0681110BC062E070E088EC91E001
:1029A0000E948F14882319F081E080934B062496AF
:1029B000E2E00C949431CF93DF93682F81E06A308A
:1029C00019F06D3031F480E00E945B15DF91CF91FA
:1029D0000895809148049091490426E0FC01A2E109
:1029E000B3E001900D922A95E1F7603E08F458C0DB
:1029F00026E0FC0111922A95E9F7C0914804D09194
:102A0000490446E050E0BE0182E193E00E94D531E6
:102A10009E012A543440892B41F1C90145E0969525
:102A200087954A95E1F741E050E0BA0102C0660F90
:102A3000771F8A95E2F7CB016091460470914704B5
:102A4000862B972BB9016B5F7F4FE5E076956795F5
:102A5000EA95E1F702C0440F551F6A95E2F7842B0F
:102A6000952B90934704809346042A5F3F4F4091F3
:102A70005106642F70E0C9010E945431481B463052
:102A800010F4240F311D211572E0370710F020E0FB
:102A900030E0265B3B4F309349042093480496CFA7
:102AA000F6E06F9FB001112464537E4F46E050E082
:102AB0000E94CC31A2CFCF93382FE0914804F091FF
:102AC0004904EA54F44020915106622F70E0CF018E
:102AD0000E945431281B822F332361F066E00E944C
:102AE0009F31C82FC15010F4CF91089580E20E9409
:102AF000DB14F8CF9F01280F311D2115324018F04B
:102B000080E0E0E0F0E08E0F9F2F911D865B9B4FF1
:102B10009093490480934804E7CFCF93DF93EC016F
:102B2000FE018491811103C0DF91CF9108950E942D
:102B3000DB142196F5CF1F921FB61F9211248F939D
:102B40009F93AF93BF9380915306811113C08091DF
:102B50002E0390912F03A0913003B0913103419641
:102B6000A11DB11D80932E0390932F03A0933003DA
:102B7000B0933103BF91AF919F918F911F901FBE72
:102B80001F9018952FB7F89480912E0390912F03E2
:102B9000A0913003B09131032FBF08950E94C21558
:102BA00020910D0730910E07232B222321F08093D3
:102BB00070069093710620910F0730911007232B18
:102BC000222321F080936E0690936F06E091E30636
:102BD000F091E406309749F082E080930B0706807D
:102BE000F781E02D8BE097E00995089520910D077E
:102BF0009091100730910F07662309F45AC0409155
:102C00000E07242B292B232B222331F098E09093BD
:102C1000090791E0909308078D3C41F40E94B70B9F
:102C2000819580930E070E94CE150895E2E3E80F88
:102C3000E231C8F7F0E0E15CFD4C0C94BF310E943A
:102C4000B70BEFCF0E94B70B819580930D07EBCFA9
:102C50000E94B70BFACF0E94D70B80930F07E3CFE8
:102C60000E94D70B8195F9CF0E94D70B8195809355
:102C70001007D9CF0E94D70BFACF815D990B21E0C5
:102C800030E001C0220F8A95EAF780910C07822B71
:102C900080930C07C8CF80910A07816080930A0750
:102CA000C2CF80910A078260F9CF80910A078460C1
:102CB000F5CF8D3C59F480910E0787FF0DC010921F
:102CC0000E07222359F41092090708C08E3C81F4A4
:102CD00080910E0718169CF3222381F080910F0734
:102CE00090911007892B81119ECF109208079BCFDE
:102CF0008F3C41F427FFF0CF10920D0780910E0713
:102D00008823E0CF803D19F41216B4F3E5CF893D56
:102D100029F413160CF710920F07DECF8A3D19F431
:102D200037FFDACFF8CF8B3D29F497FFD5CF10923C
:102D30001007D2CF8C3D19F41916CCF3CDCF9FE2FA
:102D4000980F983090F4815D990B41E050E0BA0102
:102D500002C0660F771F8A95E2F7CB0180959091AC
:102D60000C07892380930C07B7CF8D3D31F48091F8
:102D70000A078E7F80930A07AFCF8E3D21F48091A2
:102D80000A078D7FF7CF8F3D09F0A6CF80910A0704
:102D90008B7FF0CFCF93C82F8823B1F18CEF8C0FAE
:102DA000813AA0F580915901882301F18091210792
:102DB00087FF1CC0EC2FE695E695E695F0E0EA511A
:102DC000FD4F828190E04C2F477021E030E002C03F
:102DD000220F331F4A95E2F782239323892B79F040
:102DE0008C2F0E948D0C0E94D81109C0E0EEF2E0F9
:102DF0008191C817A9F322E0E63EF207C9F78C2FAC
:102E00000E94590C0E94D811CF91089580E28C0F36
:102E1000883068F4C77081E090E001C0880FCA95DF
:102E2000EAF7C0911B07C82BC0931B07EBCF8BE5BC
:102E30008C0F833038F42C2F2452330BC9010E949D
:102E40000D0CE2CFE8E5EC0FEB3150F4F0E0EE0FC3
:102E5000FF1FEA55FD4F808191810E94330CD4CF32
:102E600083E38C0F833180F661E08C2F0E94F6158E
:102E7000CBCF882381F19CEF980F913A28F40E94E0
:102E80008D0C0E94D811089590E2980F983050F45C
:102E9000877091E001C0990F8A95EAF7892F0E9407
:102EA000D906EFCF9BE5980F933028F480E090E0AF
:102EB0000E940D0C089598E5980F9B3128F480E04E
:102EC00090E00E94330C089593E3980F933118F427
:102ED00060E00E94F61508951F93CF93DF93182F9B
:102EE000EB010E94CA16209739F4812F0E943917EE
:102EF000DF91CF911F9108958FE99FE00197F1F73E
:102F000000C000002197EFCF10921B07809159015C
:102F1000882339F18091210787FF23C0E8EEF2E092
:102F20008EE1DF011D928A95E9F780E090E00E9432
:102F30000D0C80E090E00E94330C109223070E9459
:102F4000D81186E0EBE0F7E0DF011D928A95E9F702
:102F5000109209071092080710920A070E94CE15D6
:102F60000895E0EEF2E086E0DCCF0E9484172FEFB8
:102F700084E39CE0215080409040E1F700C00000D5
:102F800088E19AE00FB6F894A895809360000FBE90
:102F900090936000FFCFAAE2B0E0E1EDF7E10C947E
:102FA00077318DE193E0FC0101962091F1002083BF
:102FB00023E085329207B9F780911E03893009F426
:102FC00056C0C8F4823009F4B3C0833009F482C01B
:102FD000813071F18091E80083FFE7C080911D038B
:102FE00090911E039A3008F0E0C0E92FF0E0EF5A0C
:102FF000FD4C0C94BF318A3009F489C08B3051F7F5
:1030000080911D03813231F7809121039091220339
:10301000892B01F78091E800877F8093E8000E9468
:10302000970D80911F03809359010E948417D2CF7E
:1030300080911D03813A71F68091E800877F80932B
:10304000E8008091210390912203892B61F060E0D8
:1030500080E090E070E00E943E0D8091E8008B7768
:103060008093E800B7CF68E085E293E0F3CF8091EA
:103070001D03813209F0AECF80912103909122038C
:103080008D7F892B09F0A6CF8091E800877F809300
:10309000E8008091E80082FF18C09091F3008091D1
:1030A000F200029731F48091F100813011F0863006
:1030B00021F48091F10080932D038091E8008B77BB
:1030C0008093E8000E94970D85CF80917D06811145
:1030D000E0CF80CF80911D03813A09F07BCF8091B2
:1030E000210390912203892B09F074CF8091E8008D
:1030F000877F8093E8008091E80080FFFCCF80917B
:1031000059018093F1008091E8008E77D9CF8091AA
:103110001D03813209F05ECF8091E800877F8093A4
:10312000E8000E94970D809120038093190352CFED
:1031300080911D03813A09F04DCF8091E800877F8F
:103140008093E8008091E80080FFFCCF8091190314
:10315000D8CF803889F0823841F5809121038F7073
:10316000873018F58093E9008091EB0085FB882774
:1031700080F91092E90006C080911A0390915406DC
:10318000911182609091E800977F9093E80080937E
:10319000F1001092F1008091E8008E7723C0811138
:1031A00016C080911F03813011F18091E80083FFE8
:1031B0000AC08091E800877F8093E8008091EB004F
:1031C00080628093EB00AA96E3E00C949331823006
:1031D00061F780911F03882389F01092E9008091A4
:1031E000E800877F8093E8000E94970DDECF81E0A2
:1031F000933009F080E080935406EFCF8091210353
:103200008F702FEF280F263080F68093E9002091F1
:10321000EB0020FFE2CF933031F48091EB0080622D
:103220008093EB00DACF9091EB0090619093EB00EC
:1032300021E030E0A90102C0440F551F8A95E2F752
:103240004093EA001092EA008091EB008860E8CF9A
:103250008111ABCF10911F031F778091E30080781D
:10326000812B8093E3008091E800877F8093E800C2
:103270000E94970D8091E80080FFFCCF8091E300D1
:1032800080688093E30083E0111101C082E08093A5
:103290007D068BCF8058823008F087CF40911F0386
:1032A000509120034C3D83E0580799F583E08A83D1
:1032B0008AE289834FB7F894DE01139620E03EE05E
:1032C00051E2E32FF0E050935700849120FF03C0B8
:1032D00082958F703F5F8F708A30C8F0895C90E074
:1032E0008D939D932F5F243161F74FBF8091E8004C
:1032F000877F8093E8006AE270E0CE0101960E9429
:103300003E0D8091E8008B778093E8004ECF805D82
:10331000E6CF8091210390912203252F332723307C
:10332000310509F44AC078F52130310509F479C036
:103330008BE590E0ECE0F7E02230310509F035CF85
:103340002091E800277F2093E8002091230330910B
:1033500024038217930708F49C0140E021153105EE
:1033600009F064C0411162C08091E80082FDC9CFBC
:1033700080917D06882329F2853019F28091E8003A
:1033800083FFF2CFBECF2132310509F43BC0223298
:10339000310509F00ACF8330910508F006CFFC0112
:1033A000EE0FFF1FEF59FE4F0190F081E02D825A82
:1033B0009E4FDC018C9190E011C0CA0199274130E9
:1033C00089F082309105B1F0892B09F0EECEE3EA65
:1033D000F7E0E4918E2F90E0E3EAF7E0009709F43C
:1033E000E4CEAECFE7E8F7E0E4918E2F90E0E7E897
:1033F000F7E0F4CFE9E7F7E0E4918E2F90E0E9E71A
:10340000F7E0ECCF8330910508F0CFCEFC01EE0F52
:10341000FF1FE959FE4F0190F081E02D89E090E017
:103420008FCF82E190E0E7E6F7E08ACF80917D06DA
:10343000882309F466CF853009F463CF8091E800D2
:1034400083FD5FCF8091E80082FD8ECF8091E80000
:1034500080FF84CF9091F3008091F2002115310517
:1034600019F08830910550F041E0089709F040E0EC
:103470008091E8008E778093E80070CF449140936C
:10348000F1003196215031090196E8CF803809F0DA
:103490008CCE8091E800877F8093E80080911B03A9
:1034A0008093F10078CE811180CE10911F031230ED
:1034B00008F07BCE8091E800877F8093E80010932E
:1034C0001B030E94970D1123D1F084E080937D06A9
:1034D00042E061EC81E00E94060E42E261EC84E091
:1034E0000E94060E42E261EC82E00E94060E42E279
:1034F00060EC83E00E94060E80917D0656CE80919E
:10350000E30087FDE2CF81E0E1CF9C014FB7F89463
:1035100080912E0390912F03A0913003B09131033D
:103520004FBF821B930B08952F923F925F926F9231
:103530007F928F929F92AF92BF92CF92DF92EF9243
:10354000FF920F931F93CF93DF9300D000D000D052
:10355000CDB7DEB780914C06882309F48BC08091EB
:103560005603909157030E94851AC29708F444C0ED
:103570000E94C21590935703809356038AE494E007
:1035800090934904809348048091BB068823A1F15D
:1035900081E599E00E948D1580911F070E94B20578
:1035A000811180C08CE499E00E948D1581E00E9419
:1035B0005B1584E499E00E948D1580911F070E949D
:1035C000B205813009F473C0823009F473C08111EF
:1035D00004C08EE399E00E948D1582E399E00E9479
:1035E0008D150E94FC0B81FF68C08DE299E00E945E
:1035F0008D1581E00E945B158091460490914704EF
:10360000892BA9F080914C06882389F080914A0685
:1036100081110DC00E94AE142091460430914704E0
:1036200080E061E070E02115310509F04AC0809129
:103630004B068823F9F00E94BA0C69837A838B8346
:103640009C8380914D0690914E06A0914F06B091BB
:10365000500629813A814B815C81281B390B4A0B2A
:103660005B0BDA01C9018F3F9F4FAF4FBF4710F48B
:103670000E949C140F900F900F900F900F900F903E
:10368000DF91CF911F910F91FF90EF90DF90CF903E
:10369000BF90AF909F908F907F906F905F903F9082
:1036A0002F90089587E499E00E948D1582CF89E3D9
:1036B00099E091CF85E399E08ECF87E299E097CFAB
:1036C0008F5F082F10E01B01082E02C0220C331C54
:1036D0000A94E2F7A10142235323452B89F39091E9
:1036E000520690FD44C0980136952795369527954A
:1036F000922F8295880F80763FE1380F80930201E8
:1037000020930501309303019093060124E630E0F5
:1037100047E050E060E071E088E70E94AB2E892B23
:1037200009F085CFA80125E0440F551F2A95E1F740
:103730008091520680FD23C0465B5B4F04E610E09B
:1037400020E230E060E488E70E94432F892B09F0F3
:103750006ECF910120953095809146049091470459
:1037600028233923309347042093460460CF880FE1
:10377000880F880F37E0380F20E093E0BFCFE6E3F3
:10378000F3E080E2DF011D928A95E9F7E1E7F1E0DD
:10379000FE83ED830DE611E085E7C82E81E0D82E8B
:1037A00097E0592E77247394AD81BE818D91BE83AD
:1037B000AD83F80121918F01240F352F311D265B38
:1037C0003B4FE82FF0E0EA5CFC4F80E090E0652C96
:1037D000681A872C082E01C0880C0A94EAF7790130
:1037E000A12CD701BD907D01B820662D6A196770A4
:1037F00070E0BB2D062E01C0BB0F0A94EAF79B2E8A
:103800007195619571096770772701C0B6946A95C3
:10381000EAF79B286081962A9082A39468E0A6121A
:10382000E0CF019631968830910589F68D819E8191
:10383000C816D90609F0B8CF04E610E020E230E05F
:1038400046E353E07FCF0F931F93CF93DF93C62FB1
:10385000D42F122F8823A9F0609311070E94C2155C
:103860009093110380931003C77081E001C0880F0B
:10387000CA95EAF70E942A12DF91CF911F910F910A
:10388000089580911107681336C0809110039091BC
:1038900011030E94851A883C910568F5CD130EC06E
:1038A0006AE070E0812F0E946C17D77081E001C040
:1038B000880FDA95EAF70E943412DECFC77001E074
:1038C000802F01C0880FCA95EAF70E94341280E267
:1038D0008D0F883050F48D2F877001C0000F8A95AE
:1038E000EAF7802F0E942A12DBCF6AE070E0812F76
:1038F0000E946C17C1CFC77081E001C0880FCA95C4
:10390000EAF7D9CFA8E0B0E0E8E8FCE10C946B312D
:103910006C01DC0114968C91882309F4BBC061E032
:10392000C6010E946A118C01F6018581882309F481
:103930009AC5980137572038310508F09FC50031E6
:1039400008F097C08FEF93E00E94FB31811191C086
:1039500029E2E22E22E0F22E01115AC01A821982C7
:10396000FE01339686E0DF011D928A95E9F7570143
:10397000BFEFAB1ABB0AC7010E94FB3189831A82D1
:10398000882309F476C0813009F088C087010E5F72
:103990001F4FC5010E94FB318A83882309F469C047
:1039A0009FEF980F933008F042C0E3E0EE0EF11C59
:1039B000C8010E94FB318B83882309F45AC01C8202
:1039C0008E010F5F1F4FD8018C91882381F28130C7
:1039D00009F0A7C011968C911197813009F060C051
:1039E0005801B2E0AB0EB11CF80182816AE070E0D0
:1039F000893311F460E570E00E946C178501EFE3F4
:103A0000FCE93197F1F700C000000F5F1F4FDBCFDB
:103A1000E114F4E0FF0669F1C7010E94FB31970150
:103A20002F5F3F4F79018111F3CF015095CF843043
:103A3000B9F492E0E92EF12CC8010F5F1F4F0E94EC
:103A4000FB31E1E0F0E0EC0FFD1FEE0DFF1D808388
:103A5000882379F08C3731F4FE01EE0DFF1D1282C0
:103A60007801AECFFFEFEF1AFF0A27E0E216F1046C
:103A700019F7809120078770882361F0D601159689
:103A80008C91882339F08091220782FF03C082E065
:103A90000E949B062896EFE00C948731750190CF29
:103AA000823049F45801F2E0AF0EB11C12968C91AD
:103AB0000E94CA16A3CF833049F45801B2E0AB0E7E
:103AC000B11CF80182810E94391798CF843019F017
:103AD0000F5F1F4F94CF12962C910E5F1F4F80E007
:103AE00090E06AE0A8014F5F5F4F2053330B2A300C
:103AF000310558F0009709F482CFAFE9BFE0119784
:103B0000F1F700C000000197F5CF689FF001699FB1
:103B1000F00D1124C9018E0F9F1FF80121818A0128
:103B2000E1CFE82FF0E0EA55F54F6490282F269575
:103B30002695269530E0F901EA56F54FA490877056
:103B4000782EB12C082E02C0B594A7940A94E2F7FF
:103B5000F1E0AF22BB24F901EA57F54F8490912C94
:103B600002C0959487948A95E2F781E0882299248F
:103B7000F901EA58F54F5490A114B10479F4811475
:103B8000910439F56AE070E0862D0E946C17AFE36E
:103B9000BCE91197F1F700C000003AC081EE0E9425
:103BA000CA16EFE3FCE93197F1F700C00000811479
:103BB000910479F46AE070E0862D0E946C178FE31F
:103BC0009CE90197F1F700C0000081EE0E943917CF
:103BD000DECF86EE0E94CA16AFE3BCE91197F1F77B
:103BE00000C000006AE070E0862D0E946C17EFE3D1
:103BF000FCE93197F1F700C0000086EE0E9439170A
:103C00008FE39CE90197F1F700C00000AB28E9F6CB
:103C1000E52DF0E0072C02C0F595E7950A94E2F750
:103C2000E0FFF3CE6AE070E08CE20E946C17E7CE12
:103C300026E241EE61EE0E94231C1BCF27E245EEF7
:103C400065EEF9CF26E241EE60EEF5CF27E245EED4
:103C500064EEF1CF26E241EE62EEEDCF27E245EED3
:103C600066EEE9CF28E241E0EBCF0631FCE71F0723
:103C700009F0DFC0809112078111D9C089E20E944A
:103C80008D0CD0C0809121078160809321076091C5
:103C900021077091220784E090E00E9437320E9451
:103CA0008417E7CE80912207886080932207EFCFA8
:103CB000809121078260E9CF809121078460E5CF60
:103CC000809121078860E1CF809122078160EDCF4C
:103CD000809122078260E9CF809121078061D5CF52
:103CE000809121078062D1CF809121078064CDCF60
:103CF0000E948417809121078068C7CF8091210797
:103D00008C60C3CF809122078360CFCF8091210741
:103D10008E7FBBCF80912207877FC7CF80912107FD
:103D20008D7FB3CF809121078B7FAFCF809121070B
:103D3000877FABCF809122078E7FB7CF80912207FC
:103D40008D7FB3CF809121078F7E9FCF80912107F8
:103D50008F7D9BCF809121078F7B97CF0E94841707
:103D6000809121078F7791CF80912107837F8DCF1D
:103D7000809122078C7F99CF8091210782FB992720
:103D800090F921E0922790FB82F990FB83F97DCF97
:103D900080912207982F909591708E7F892B90FBB0
:103DA00081F983CF90912107892F8F7B96FF8064C3
:103DB0006CCF0E94841790912107892F97FB87F978
:103DC000805863CF61E08EE090E00E9419325FCFAF
:103DD00060E0F9CF90912107892F8F7E94FF806159
:103DE00054CF90912107892F8E7F90FF81604DCF16
:103DF00090912207892F877F93FF886056CF0631E5
:103E00002CE7120709F068C080911B078A7A91E0BD
:103E1000811101C090E090931207882331F085E36F
:103E20000E94590C0E94D81124CE89E2F9CF85E373
:103E300026CF80911B078272F801E052F847E531E6
:103E4000F10508F075C0E55AFD4C0C94BF31809126
:103E5000130791E089278093130710925A0181E09C
:103E60000E940C0906CE45E75AE060E77AE00E941E
:103E7000270BFFCD40E75AE065E77AE0F8CF4DE940
:103E80005AE062E97AE0F3CF42E95AE06DE97AE07C
:103E9000EECF46EB5AE068EA7AE0E9CF48EA5AE02A
:103EA00066EB7AE0E4CF42ED5AE064EC7AE0DFCFF3
:103EB00044EC5AE062ED7AE0DACF4CEE5AE060EE84
:103EC0007AE0D5CF40EE5AE06CEE7AE0D0CF61E0F8
:103ED00081E00E94620ACDCD07373CE7130709F461
:103EE00084C008378CE7180709F48CC00A35BCE792
:103EF0001B0709F4A4C008F087C00130FCE71F07C6
:103F000009F49BC003302CE7120709F490C0011597
:103F10003CE71307C1F40E948417AFEFB4E3ECE071
:103F2000A150B040E040E1F700C000000E942A0D1F
:103F300007379CE7190709F461C082E00837ACE74E
:103F40001A0709F45CC0F6018581E080F1808823BE
:103F500009F479C0C7010E943F11182F682FC701CB
:103F60000E943D06B701812F0E9420110E94D407B4
:103F7000E82E192FD6011596BC9015971696AC9081
:103F8000A2948FE0A822809120078770882309F1EE
:103F9000FB2CBB20F9F0892F807F803469F080E210
:103FA0008E0D8830B0F0892F807E803229F4B1E008
:103FB000BE1578F4AA2069F08091220782FF09C01B
:103FC00082E00E949B06809120078770FF24F39473
:103FD0008111F12CE12FE295EF70103C08F09AC0AE
:103FE000F0E0E059FD4C0C94BF3181E00E94CA051D
:103FF00043E062E081E00E9470063BCD81E00E94D8
:10400000D605F6CF82E0F2CF0B358CE71807C9F062
:104010000C359CE7190709F096CF8091220782FBA7
:10402000882780F991E089270E94880F8CCF6FEF55
:104030007FEF80E090E00E9437320E94B51781E068
:10404000F3CF80E0F1CFC7010E945706182F8ACF27
:10405000012F0F70103110F00295007FBB20B9F0D6
:10406000002369F080E28E0D883010F0E11009C065
:1040700080911B07802B80931B070E94D8118E2DE7
:1040800041C080912307802B80932307F6CF8E2D8C
:104090000E9439170023F1F180E28E0D883010F074
:1040A000E11004C0802F0E94D90606C000958091BF
:1040B00023078023809323070E94D8112BC0012F50
:1040C0000F70107F103211F00295007FEE2051F03A
:1040D000E1E0EE1609F46BC0BB2009F477C0AA201A
:1040E000C9F1CDCF8091220782FD30C0BB2069F09D
:1040F000002339F080911B07802B80931B070E94BF
:10410000D81180E00E94CA1605C080E00E943917CD
:104110000111C8CFFF20A9F08091200780FD11C0B8
:10412000F60115828695869586950E94CA05C60178
:104130000E94821C809120078695869586950E9414
:10414000D60560E0C6010E946A11A4CCBB2099F09C
:10415000A11004C0802F0E942A12DCCFF1E0AF1220
:10416000D9CF80911C07902F9823091799F2802BA3
:1041700080931C07CFCFA110CDCF802F0E94341287
:1041800090911C07802F8923882329F0802F809508
:10419000892380931C0780911D07902F98239923D2
:1041A00009F4B8CF0095082300931D07B3CFBB20B7
:1041B00029F025E02A1508F4ADCFCCCF34E03A152C
:1041C00008F4A8CF802F0E943412A4CFAA20D1F3E4
:1041D00089E3E8120DC09FEFA7EEB3E09150A04035
:1041E000B040E1F700C000008E2D0E94391792CF39
:1041F000EFE3FCE93197F1F7F5CF812F86958695AE
:104200008370882369F0813009F084CF8E2D912F3F
:104210009370B11002C080E090E00E94330C7ACF1E
:104220008E2D912F9370B11002C080E090E00E941B
:104230000D0C70CF6B2D8E2D0E94F6156BCF812F3C
:104240008370811137C0B1102AC04E2D429546951A
:104250004770440F440F2E2D2F70042E01C0220FE3
:104260000A94EAF79E2D9071992341F08FE090E037
:1042700001C0880F4A95EAF7982F909516951695E4
:104280001370123091F0892F822B133031F080910E
:104290001E07113039F0292B82230E94C4050E9489
:1042A000FC0B38CF822B892BF8CF292B80911E074E
:1042B0008227F3CFBB2069F110FFF1CF4E2D42953D
:1042C00046954770440F440F2E2D2F70042E01C0C9
:1042D000220F0A94EAF79E2D9071992341F08FE006
:1042E00090E001C0880F4A95EAF7982F90951695AF
:1042F00016951370123099F0892F822B133031F0FC
:1043000080911F07113041F0292B82230E94C7059D
:10431000C6CF823020F2D2CF822B892BF7CF292B28
:1043200080911F078227F2CF1F70BB2039F0812FA9
:104330000E94CA058E2D0E942A12B1CF8E2D0E9496
:104340003412812F0E94D605AACFF2EFEF16A9F101
:10435000FE1588F020EFE216D9F031EFE31609F4EC
:1043600043C0BB2009F467C0AA2009F461C08E2DA8
:104370000E94CA1694CF83EFE81631F194EFE91644
:1043800079F1B110F1CFA11069C0812F8F71DACF0F
:10439000BB2081F0A4E0AA1508F481CF1F7181E051
:1043A00090E0012E01C0880F0A94EAF790911F0750
:1043B0008927ACCFB5E0AB16EFCF812F8F71B1104D
:1043C000C1CF0E94CA056BCF80E0BB2009F49ECF0D
:1043D0001F7181E0012E01C0880F0A94EAF796CF81
:1043E0008091220782FD06C0812F8F71BB2009F4C6
:1043F000A9CFE7CFBB2089F01F71812F0E94CA058A
:104400008091220782FF07C0E8E01E9FC0011124AF
:10441000836080932007812FD4CF81E00E949B0688
:10442000F1E0FA1508F03BCF82E00E949B0637CFFF
:10443000812F8F71C6CFAA2009F4A7CF29E3E212FA
:104440000DC03FEF87EE93E0315080409040E1F7A0
:1044500000C000008E2D0E94391721CFAFE3BCE9C8
:104460001197F1F7F5CFF801E851FC47E730F10576
:1044700008F0FBCBE458FD4C0C94BF31F801E85137
:10448000FC47E730F105B0F310921107C8019057CF
:10449000839708F0B4CC84E090E00E9403329093BC
:1044A000220780932107F801E150F047E232F1053D
:1044B00008F0E8CBED57FD4C0C94BF3180916407B8
:1044C000803178F480916307882359F0E0912507C3
:1044D0002091240730915F0740915E0757E02E132B
:1044E00001C008956E2F70E05E9FF0011124DF017E
:1044F000AA5DB84F14968C911497882361F1119698
:104500008C911197831327C08C91841324C0159626
:104510008C91159781111FC012968D919C91A0913D
:104520006007B09161078A1B9B0B883C910598F44A
:10453000809164078F70806180936407E45DF84F19
:1045400080818F70806180838EE597E00E94821C5D
:104550000E9491060895FB013196E770C0CFADE04F
:10456000B0E0E5EBF2E20C946C318C0186E0F801EE
:10457000DE01189601900D928A95E1F7F80170809E
:10458000F580A280B38084819EE5892E97E0992EE4
:1045900060906207611018C0882399F0FF2009F429
:1045A00013C1C8010E949911882309F40DC187E045
:1045B000F801AEE5B7E001900D928A95E1F70E940F
:1045C0005E22FF24F39453C0D090630720916007CC
:1045D00030916107A501421B530BDD2009F4C4C0D3
:1045E000483C510508F07AC0882359F380915F0751
:1045F000C180E0906407FFE0FE1508F459C0C812BE
:1046000015C080915E07871111C0F1104BC08E2D2F
:104610008F708061809364078EE597E00E94821C12
:1046200080916407F8018683F12C21C0F1103AC013
:1046300040E06C2D872D0E94980E40E06C2D872D58
:104640000E94980EF82E8111EFCF888599850E94DF
:104650008A11292F22952F70903470F49F70223088
:10466000A0F09923B1F0F8019681903190F48F2D4C
:104670002D96EEE00C9488312A5F2F70223068F07E
:10468000C8010E94821CFD2CF2CF992311F08823CF
:1046900071F3805E883058F3F3CF803F40F3815F41
:1046A0008230F9CF80916407816080936407BCCF2A
:1046B000C8123CC080915E07871138C0F11036C027
:1046C000F801E682C8010E94821C87E0F801AEE58D
:1046D000B7E001900D928A95E1F773CFE0906407FF
:1046E000FFE0FE1550F08EE597E00E94821C87E007
:1046F000F40111928A95E9F797CF882309F461CFE5
:1047000090915F07F8018181981310C080915E0736
:1047100087110CC0F1100AC0E682C8010E94821CF9
:1047200087E0F40111928A95E9F74BCFC8010E9406
:104730009911882309F448C0FF2009F445C08091ED
:104740006407803208F433CF80915E0790915F0751
:104750009A838983BC82AB826D821E82EF82CE01F6
:1047600001960E94821C23CF483C510508F0BFCF20
:10477000882309F426CFFF2039F190915F078181CA
:10478000981318C080915E07871114C08091640748
:1047900080FD9BCF803108F498CF8683807F803F57
:1047A00009F490CF8681982F907F905F8F70892B2E
:1047B000868388CFC8010E9499118111F8CE80911B
:1047C0006407816080936407C8010E94821CF9CE4F
:1047D000ABE1B0E0EEEEF3E20C9477314E8B5F8B01
:1047E000688F798F8A8F9B8F9111109223071D8A72
:1047F00086E0FE017696DE011F9601900D928A9565
:10480000E1F78B89882329F061E0CE010F960E94A1
:104810006A1187E0FE013F96DE01189601900D9225
:104820008A95E1F7CE0108960E94AF2281112BC034
:1048300087E0FE013896DE01119601900D928A956F
:10484000E1F720912407409125078C858823D9F032
:1048500030E0C90101968770992750E084179507C9
:10486000E9F097E0929FD001939FB00D1124AA5DCB
:10487000B84FFE01319601900D929A95E1F7809321
:1048800024070E94910617E0809125079091240744
:10489000891312C06B96E3E00C9493310E94841745
:1048A000109224071092250787E0EEE5F7E0DF017C
:1048B0001D928A95E9F7E7CF189FC00111248A5D00
:1048C000984F0E94AF22882329F38091250790E01A
:1048D00001968770992780932507D6CFA6E0B0E090
:1048E000E4E7F4E20C9476310E94C2158C018091C9
:1048F000C1069091C2068017910779F019821A8239
:104900000E94C215BC0149815A8180E090E00E945A
:10491000E8231093C2060093C1062696E4E00C94A7
:104920009231ACE0B0E0E7E9F4E20C94723180E05F
:104930000CEF93E0D92EFF24F3942DEFE22E32E01A
:10494000C32E9091630620916206291709F45CC07A
:10495000E92FF0E0EC59F94F2081122F1F779F5F6C
:10496000937090936306809161068F5F80936106D8
:1049700027FD1CC01F8308870E94C215BC018987C0
:104980009A87DB86FC864F81588583E091E00E9400
:10499000E8238FE39CE90197F1F700C00000198339
:1049A0000A830E94C215282F83E01BC01F83E8865C
:1049B0000E94C215BC0189879A87CB86FC864F81ED
:1049C000588582E091E00E94E8238FE39CE90197FB
:1049D000F1F700C000001983EA820E94C215282F57
:1049E00082E0622F792F2B839C838D831E824981E5
:1049F0005A8190E00E94E8238FE39CE90197F1F748
:104A000000C0000081E09DCF2C96E8E00C948E3130
:104A1000A3E1B0E0EEE0F5E20C946D311A82198268
:104A2000FE01339688E0DF011D928A95E9F789E857
:104A3000A82E82E0B82E8E010F5F1F4F4801EE2492
:104A4000E394F12C24E9C22E22E0D22EF5018191CB
:104A50005F018F3F09F441C0F894E82FE295EF70B1
:104A6000F0E021A18F70A70102C0440F551F8A9565
:104A7000E2F7CA01922F982B91A392A180958923E6
:104A800082A3789400C0EEE8F2E031E0712C21912D
:104A90002F3F09F4A5C0A22FA295AF70A05EB0E091
:104AA0008C9190E02F7002C0959587952A95E2F73A
:104AB0008170811195C0832F782A330FCE16DF06BF
:104AC00031F7F501319780818F3F11F00E94EF0897
:104AD00050EA5A95F1F7D8017C920F5F1F4FBEE85C
:104AE000AB16B2E0BB0609F0B1CF4AE050E0B4012A
:104AF00089E394E00E94D5310091440410E00D5800
:104B0000194F892B09F46EC08AE0F401A9E3B4E0DF
:104B100001900D928A95E1F781E080930F030E9446
:104B2000C21590930E0380930D038091BB068823DA
:104B300009F4B0C01C861B86FE013D9683E0DF01B0
:104B40001D928A95E9F7809118038A3008F06CC0AD
:104B50007E01BBE0EB0EF11C4AED52E1B701C8014A
:104B60000E944E0F6701882309F482C042E453E19A
:104B7000B701C8010E944E0F882309F479C043E7AA
:104B800053E1B701C8010E944E0F882309F470C099
:104B900047EC53E1B701C8010E944E0F882309F486
:104BA00067C041E553E1B701C8010E944E0F882359
:104BB00009F45EC0109218038091430490E045E030
:104BC00050E0B6018D58994F0E94D53121E02093D5
:104BD0000C03892B09F03FC06396EDE00C948931FA
:104BE00080E06ACF80910F03882309F49ECF8091E3
:104BF0000D0390910E030E94851A059708F495CF36
:104C000045E050E069E374E0C8010E94D531892B8A
:104C100041F085E0E9E3F4E0D80101900D928A9536
:104C2000E1F710920F0381CF80910A0390910B035B
:104C30000E94851A843F914008F08ACF80910C032E
:104C4000882351F2FE013B9685E0DF011D928A9593
:104C5000E9F710920C03A0914304B0E0AD58B94FAE
:104C600085E0FE013B9601900D928A95E1F7B4CF65
:104C7000809118038F3F39F40E94C21590930B0363
:104C800080930A03DBCF8F5F809318038A3008F488
:104C900093CFF2CFE0904304F12CF701ED58F94F98
:104CA0007F0185E0F801ABE9B6E001900D928A95AD
:104CB000E1F765E070E08BE996E00E94900B80934D
:104CC0009A0685E0E0EAF6E0D70101900D928A9518
:104CD000E1F788E0E0E6F6E0A6EAB6E001900D92A2
:104CE0008A95E1F768E070E086EA96E00E94900B12
:104CF0008093A506C090AE06D090AF06E090B006B7
:104D0000F090B1068091060390910703A0910803EB
:104D1000B0910903C816D906EA06FB06B1F0C092A5
:104D20000603D0920703E0920803F09209030E9461
:104D3000BA0CC61AD70AE80AF90AC092BD06D09280
:104D4000BE06E092BF06F092C00688E0E2EBF6E015
:104D5000A3E1B7E001900D928A95E1F78091BA0640
:104D60000E94480A39CFCDB7DEB7A5970FB6F894A1
:104D7000DEBF0FBECDBF85B7806885BF85B78068B1
:104D800085BF84B7877F84BF0FB6F894A8958091BC
:104D90006000886180936000109260000FBE80E820
:104DA00090E00FB6F89480936100909361000FBE7D
:104DB0008DEE98E09093DD028093DC020E94E70D77
:104DC0000E943D0E8091E20084608093E20078941E
:104DD00080917D06882399F08091E9001091EC0084
:104DE0001795112717958F70182B1092E900809155
:104DF000E80083FD0E94CB171F701093E90082E04A
:104E000084BD93E095BD9AEF97BD80936E0010929C
:104E1000BD061092BE061092BF061092C0060E94F8
:104E2000BF11811102C00E94A9108091D800806139
:104E30008093D8002AE12A95F1F700C08091D9002B
:104E400080FD0EC10E94E70D10927D061092BB06F8
:104E50001092BC0610920E01E0E6F6E088E0DF0159
:104E60001D928A95E9F780910E0191E08927809340
:104E70006A0680910E0190936D0680910E018091DB
:104E80000E01811106C084EF80930D0185EF8093A0
:104E90000C0160E080E00E94500B61E080E00E9425
:104EA000500BEFE8F1E03197F1F700C0000010E09F
:104EB00080916D06181708F4DDC080910E01809175
:104EC0000E0190E0811101C095E09093440485E0CB
:104ED000891B8093430409E812E0D8018D918D016C
:104EE0008F3F11F00E94EF08B2E00E381B07A9F7C0
:104EF0000EE812E064E9E62E62E0F62EF8018191F8
:104F00008F018F3F11F00E94EF08E016F106B1F714
:104F10008AE0E3E7F6E0DF01282F1D922A95E9F702
:104F2000E9E3F4E0DF011D928A95E9F780E090E083
:104F30000E940332863E9E4F21F40E94BF118111D0
:104F400068C066EE7EEF80E090E00E94373260E05D
:104F500082E090E00E94193281E080931E0761E0B8
:104F600083E090E00E94193260E074E184E090E018
:104F70000E94373260E086E090E00E94193260E0E3
:104F800087E090E00E94193240E050E0BA0188E0EA
:104F900090E00E942B3260E084E290E00E9419329F
:104FA00060E087E190E00E94193260E08CE090E0E0
:104FB0000E94193260E08DE090E00E94193219825F
:104FC0001A821B821C821D821E821F82188648E064
:104FD00050E068E170E0CE0101960E94093240E0A5
:104FE00050E0BA0180E290E00E942B3280E00E9403
:104FF0008B100E94A91040E050E0BA018FE090E0D1
:105000000E942B3240E050E0BA0183E190E00E9420
:105010002B3282E090E00E94FB318093550684E0C1
:1050200090E00E94033290932207809321070E9410
:105030000825EFEFF6E721E0E150F0402040E1F7EE
:1050400000C000000E9408258091730680FF24C0E4
:105050006FEF7FEF80E090E00E9437320E942A0DD0
:1050600081E08093BB068093BC0680930E010E9472
:10507000F12FF2CE60E0812F0E94730B082F61E0C8
:10508000812F0E94730BE12FF0E0E559F94F880F53
:10509000802B80831F5F0CCF83E090E00E94FB3168
:1050A0000E94C4050E94F80A81E08093450448E00C
:1050B00050E068E170E083E197E00E94EB311092EC
:1050C0004504809113078430B8F485E0809313077A
:1050D00080915B0190915C01A0915D018093140728
:1050E00090931507A09316078FE7809317078FEF0C
:1050F000809318070E94081483E08093520680E290
:10510000809351060E94752E6BE070E08BE69AE06A
:105110000E948F14882309F443C08091520665E0F1
:1051200070E081FDB8C086E69AE00E948F14882363
:10513000B9F16DE070E084E59AE00E948F14882355
:1051400079F10E94BA0C69A37AA38BA39CA3DC011A
:10515000CB01805A9541AF4FBF4F80934D0690933E
:105160004E06A0934F06B0935006EAE4F4E080E0C8
:1051700092E0DF019C011D9221503040E1F7F09355
:105180004904E09348048FEF9FEF90934704809386
:10519000460481E080934C0680934B0610924A06A9
:1051A0008091BB06811102C00E94F42F8FE091E034
:1051B0009093E4068093E30628E1622E712C3DE78C
:1051C000E32E36E0F32E40E6C42E46E0D42E52E025
:1051D000452E512C80917D06853061F480917D06AD
:1051E000853009F45BC00E9484170E94FC0B80E0AC
:1051F0000E94480A0E94082506E516E093E7A92EBA
:1052000096E0B92ED501F80191918D91CE16DF0669
:1052100009F499C09817C1F38091BB068DA3912C16
:10522000D5018D905D01F80181918F01881551F1B3
:10523000882589A3312C2224239489A182218823C3
:10524000C9F0FDA1FF23B1F039829A820E94C215F4
:105250009C838B8321E02D8391E0882D8221811115
:1052600001C090E09E8349815A816B817C818D8150
:105270000E94E8233394220C36E03312DECFF8018B
:105280003197808293948AE09812CACF0E94D70CFB
:10529000992493945DC081E69AE047CF80917D0682
:1052A000843049F10E94131481E00E94480A0E9450
:1052B0009C141092530630E40FB6F894A8956092AF
:1052C00060000FBE3093600083B7817F846083BF2E
:1052D00083B7816083BF7894889583B78E7F83BFBF
:1052E0000FB6F894A8958091600088618093600063
:1052F000109260000FBE80915406882309F46ECF8F
:105300000E940825E3E7F6E08191811104C0EE16C2
:10531000FF06D1F763CF80E189BD82E189BD09B481
:1053200000FEFDCF8091D8008F7D8093D8008091C2
:10533000E00082608093E0008091E00081FDFCCF7E
:105340000E9484174BCF981367CF0E946E24912C34
:105350000E941314B090BB06BB2019F00E94912448
:10536000B82E80918706882351F01092870680918D
:105370006206809363068091600680936106A12C8B
:1053800039C061E08A2D0E94730B182F60E08A2DCE
:105390000E94730B110F812B0A2D10E0D801A55923
:1053A000B94FEC919E2F9370891719F1EE0FEE0F04
:1053B000E82BEC9380916A068A0DEF70F0E0EC56D2
:1053C000FD4F0859194F8080D8019C91890EB1E09A
:1053D00060E0B81524F0EFEF8E161CF461E00E9437
:1053E0002E0B882D880C990BB2010E94AB31D8018D
:1053F0008C93A39480916D06A81618F28091BB0639
:10540000882319F00E949124B82ABB2039F00E9409
:10541000D70C0E94941A0E94AE1404C00E94941AE1
:105420009110F9CF86E0EBE0F7E0DE0111960190F4
:105430000D928A95E1F7B0900C0700910D0710913D
:105440000E0790900F07A090100710920D07109272
:105450000E0710920F0710921007812F802B8823C0
:1054600079F080917006909171060E94851A9C01D6
:105470008091090781115CC02B30310508F05EC0B6
:10548000892D8A29882379F080916E0690916F0684
:105490000E94851A9C0180910807811187C02B30DA
:1054A000310508F089C080910C078B1116C08091DE
:1054B0000D07882311F0801310C090910E079923D7
:1054C00011F091130AC020911007211106C02091FC
:1054D0000F07211102C0892B81110E94CE1586E091
:1054E000FE013196ABE0B7E001900D928A95E1F7AD
:1054F0000E94FC0B90917206891721F0809372062E
:105500000E94BA0C80917D06843009F063CE83E05E
:105510008093E9008091E80082FF5CCE8091E800F2
:1055200085FD82C08091E8008B778093E80052CEA1
:105530002531310508F4A4CF8F3F19F08F5F809398
:105540000907002359F00E94B70B9FEF10160CF4C7
:1055500091E0899F802D112480930D07112359F02C
:105560000E94B70B91E011160CF09FEF899F802DE0
:10557000112480930E0780910D07882309F480CFB2
:1055800080900E07882009F47BCF0E94A90B81111F
:1055900001C081E080930D07882D0E94A90B88230C
:1055A00019F080930E076CCF81E0FBCF21353105D8
:1055B00008F479CF8F3F19F08F5F80930807992007
:1055C00059F00E94D70B9FEF19140CF491E0899FBA
:1055D000802D112480930F07AA2059F00E94D70B29
:1055E00091E01A140CF09FEF899F802D1124809375
:1055F000100780910F07882309F455CFA09010075A
:10560000AA2009F450CF0E94A90B811101C081E0AA
:1056100080930F078A2D0E94A90B882319F080938D
:10562000100741CF81E0FBCF0E94B60D882379F0AF
:105630008091E8008B778093E8008981EFEFE80F95
:10564000E53190F5F0E0EB55FD4C0C94BF3180E274
:10565000A82EB12C8E010F5F1F4F8091E80085FDB1
:105660000AC08091E8008B778093E8000E94B60D15
:10567000882399F3DDCF8091F100F8018083F1E078
:10568000AF1AB108A114B10499F20F5F1F4FE5CF13
:105690001A828CE08B831AC08A81833049F138F4F6
:1056A000813061F08230D9F08FEF89830FC0843070
:1056B000D9F71B821C821D821E8208C00E94BA0C70
:1056C0000E94C5316B837C838D839E8340E250E0D2
:1056D000BE016F5F7F4F82E00E94E40E7BCD88E2C7
:1056E00090E00E94FB311B821C821D828E83EECFD4
:1056F0008B8190E0DE0114968A3091053CF7FC0125
:10570000FF27ED58F94F20812D930196F5CF8A811F
:10571000823071F0853041F68091130791E089273E
:105720008093130710925A0180E00E940C09CECF9B
:105730008B819C81AD81BE8189A39AA3ABA3BCA3BD
:10574000BC01CD010E94C53188E290E00E9419326F
:10575000BDCF4C816B818A810E94B910982789271F
:1057600098279E838D83B2CF2D813E8132272327B8
:1057700032274C816B818A810E949F0FA7CF0E94A4
:10578000F20FA4CF9A81933009F08ECF883009F4BC
:1057900041C0893009F462C08B818330B9F198F43B
:1057A0008130D1F0823009F091CF8C819091130734
:1057B000292F237081111EC0211110925A019C7F44
:1057C0009093130783CF843009F080CF8C8120E041
:1057D000409116076D810AC04C812FEF429F412DE9
:1057E00011248091140720E06091150790E00E9439
:1057F000820A6CCF211102C010925A019C7F9160E5
:105800009093130760E00E94620A60CF8C818093BE
:1058100017078ACF8B818330F1F078F48130B9F0AB
:10582000823009F053CF80911307982F937086959B
:10583000869591110EC080E00CC0843009F046CFEF
:10584000809114078C83809115078D833FCF8091C1
:1058500016078C833BCF80911707FBCF0E9408145B
:1058600035CF80E18A8332CF81E08A8387ED12CF02
:105870000A811B811027012710278C814801880E7F
:10588000911C5E0195E0A90EB11C0815190509F4DB
:105890001DCF80E0073DA1E01A0728F4C801875D0D
:1058A0009D4F0E94FB31F50181935F010F5F1F4FF8
:1058B000ECCF0A811B811027012710279E012F5F43
:1058C0003F4F59018C814901880E911CA814B904DD
:1058D00009F4FCCE073D31E0130740F4D5011496DE
:1058E0006C91C801875D9D4F0E9419320F5F1F4F59
:1058F000BFEFAB1ABB0AEACF0E947B10E7CE84E071
:10590000B1CF0A811B811027012710278C81480104
:10591000880E911C5E01E5E0AE0EB11C081519055C
:1059200009F4D4CE80E0003EF1E01F0720F4C80166
:1059300089960E94FB31D5018D935D010F5F1F4F4A
:10594000EDCF0A811B81102701271027FE01319618
:105950005F018C814F01880E911CA814B90409F4D1
:10596000B5CE003EF1E01F0738F4D50114966C91D6
:10597000C80189960E9419320F5F1F4FBFEFAB1A03
:10598000BB0AEBCF41E08C81811101C040E06B810B
:105990008A810E94E810E2CE2D813E8132272327A2
:1059A000322741E08C81811101C040E06B818A8106
:1059B0000E94C60F8BCE78941F921FB61F9211249F
:1059C0008F939F93AF93BF9380912E0390912F035A
:1059D000A0913003B09131030196A11DB11D8093B8
:1059E0002E0390932F03A0933003B0933103BF9104
:1059F000AF919F918F911F901FBE1F9018951F927E
:105A00000F920FB60F9211242F933F934F935F93F2
:105A10006F937F938F939F93AF93BF93EF93FF9376
:105A20008091E10082FF09C08091E20082FF05C001
:105A30008091E1008B7F8093E1008091DA0080FF0C
:105A400024C08091D80080FF20C08091DA008E7F32
:105A50008093DA008091D90080FF9BC080E189BDEE
:105A600082E189BD09B400FEFDCF81E080937D060F
:105A700080911C03811109C00E94E70D0E943D0E18
:105A80008091E20084608093E2008091E10080FFD9
:105A900017C08091E20080FF13C08091E2008E7FEA
:105AA0008093E2008091E20080618093E200809127
:105AB000D80080628093D80019BC85E080937D0671
:105AC0008091E10084FF29C08091E20084FF25C01D
:105AD00080E189BD82E189BD09B400FEFDCF8091DE
